{
  "contractName": "Delays",
  "abi": [
    {
      "anonymous": false,
      "inputs": [
        {
          "indexed": true,
          "internalType": "address",
          "name": "previousOwner",
          "type": "address"
        },
        {
          "indexed": true,
          "internalType": "address",
          "name": "newOwner",
          "type": "address"
        }
      ],
      "name": "OwnershipTransferred",
      "type": "event"
    },
    {
      "anonymous": false,
      "inputs": [
        {
          "indexed": false,
          "internalType": "address",
          "name": "account",
          "type": "address"
        }
      ],
      "name": "Paused",
      "type": "event"
    },
    {
      "anonymous": false,
      "inputs": [
        {
          "indexed": false,
          "internalType": "address",
          "name": "account",
          "type": "address"
        }
      ],
      "name": "Unpaused",
      "type": "event"
    },
    {
      "inputs": [],
      "name": "owner",
      "outputs": [
        {
          "internalType": "address",
          "name": "",
          "type": "address"
        }
      ],
      "stateMutability": "view",
      "type": "function"
    },
    {
      "inputs": [],
      "name": "paused",
      "outputs": [
        {
          "internalType": "bool",
          "name": "",
          "type": "bool"
        }
      ],
      "stateMutability": "view",
      "type": "function"
    },
    {
      "inputs": [
        {
          "internalType": "bool",
          "name": "_isPaused",
          "type": "bool"
        }
      ],
      "name": "setPause",
      "outputs": [],
      "stateMutability": "nonpayable",
      "type": "function"
    },
    {
      "inputs": [
        {
          "internalType": "address",
          "name": "newOwner",
          "type": "address"
        }
      ],
      "name": "transferOwnership",
      "outputs": [],
      "stateMutability": "nonpayable",
      "type": "function"
    },
    {
      "inputs": [],
      "name": "getGDelay",
      "outputs": [
        {
          "internalType": "uint256",
          "name": "",
          "type": "uint256"
        }
      ],
      "stateMutability": "view",
      "type": "function"
    },
    {
      "inputs": [],
      "name": "getPDelay",
      "outputs": [
        {
          "internalType": "uint256",
          "name": "",
          "type": "uint256"
        }
      ],
      "stateMutability": "view",
      "type": "function"
    },
    {
      "inputs": [
        {
          "internalType": "uint256",
          "name": "_secDelay",
          "type": "uint256"
        }
      ],
      "name": "setGDelay",
      "outputs": [],
      "stateMutability": "nonpayable",
      "type": "function"
    },
    {
      "inputs": [
        {
          "internalType": "uint256",
          "name": "_secDelay",
          "type": "uint256"
        }
      ],
      "name": "setPDelay",
      "outputs": [],
      "stateMutability": "nonpayable",
      "type": "function"
    }
  ],
  "bytecode": "0x6080604052426004556000600555600060065534801561001e57600080fd5b5061004161003364010000000061008e810204565b640100000000610092810204565b61005264010000000061008e810204565b60018054600160a860020a031916600160a060020a039290921691909117740100000000000000000000000000000000000000001790556100e2565b3390565b60008054600160a060020a03838116600160a060020a0319831681178455604051919092169283917f8be0079c531659141344cd1fd0a4f28419497f9722a3daafe3b4186f6b6457e09190a35050565b610744806100f16000396000f3fe608060405234801561001057600080fd5b50600436106100a5576000357c010000000000000000000000000000000000000000000000000000000090048063893c9cfe11610078578063893c9cfe146101105780638da5cb5b14610123578063bedb86fb1461014b578063f2fde38b1461015e57600080fd5b80632c598130146100aa5780635c975abb146100bf57806362c4953e146100f25780636972ca6714610108575b600080fd5b6100bd6100b83660046106f5565b610171565b005b60015474010000000000000000000000000000000000000000900460ff1660405190151581526020015b60405180910390f35b6100fa6101eb565b6040519081526020016100e9565b6100fa610264565b6100bd61011e3660046106f5565b6102dd565b60005460405173ffffffffffffffffffffffffffffffffffffffff90911681526020016100e9565b6100bd6101593660046106d3565b610352565b6100bd61016c366004610696565b61048e565b3361017a6105a9565b6101e5576040517f08c379a000000000000000000000000000000000000000000000000000000000815260206004820181905260248201527f4f776e61626c653a2063616c6c6572206973206e6f7420746865206f776e657260448201526064015b60405180910390fd5b50600555565b6000336101f66105a9565b61025c576040517f08c379a000000000000000000000000000000000000000000000000000000000815260206004820181905260248201527f4f776e61626c653a2063616c6c6572206973206e6f7420746865206f776e657260448201526064016101dc565b505060055490565b60003361026f6105a9565b6102d5576040517f08c379a000000000000000000000000000000000000000000000000000000000815260206004820181905260248201527f4f776e61626c653a2063616c6c6572206973206e6f7420746865206f776e657260448201526064016101dc565b505060065490565b336102e66105a9565b61034c576040517f08c379a000000000000000000000000000000000000000000000000000000000815260206004820181905260248201527f4f776e61626c653a2063616c6c6572206973206e6f7420746865206f776e657260448201526064016101dc565b50600655565b3361035b6105a9565b6103c1576040517f08c379a000000000000000000000000000000000000000000000000000000000815260206004820181905260248201527f4f776e61626c653a2063616c6c6572206973206e6f7420746865206f776e657260448201526064016101dc565b600180547fffffffffffffffffffffff00ffffffffffffffffffffffffffffffffffffffff16740100000000000000000000000000000000000000008415158102919091179182905560ff91041615610463577f62e78cea01bee320cd4e420270b5ea74000d11b0c9f74754ebdbfc544b05a258335b60405173ffffffffffffffffffffffffffffffffffffffff909116815260200160405180910390a15050565b7f5db9ee0a495bf2e6ff9c91a7834c1ba4fdd244a5e8aa4e537bd38aeae4b073aa33610437565b5050565b336104976105a9565b6104fd576040517f08c379a000000000000000000000000000000000000000000000000000000000815260206004820181905260248201527f4f776e61626c653a2063616c6c6572206973206e6f7420746865206f776e657260448201526064016101dc565b73ffffffffffffffffffffffffffffffffffffffff82166105a0576040517f08c379a000000000000000000000000000000000000000000000000000000000815260206004820152602660248201527f4f776e61626c653a206e6577206f776e657220697320746865207a65726f206160448201527f646472657373000000000000000000000000000000000000000000000000000060648201526084016101dc565b61048a82610621565b60008054339073ffffffffffffffffffffffffffffffffffffffff1681148061061b57508073ffffffffffffffffffffffffffffffffffffffff1661060360015473ffffffffffffffffffffffffffffffffffffffff1690565b73ffffffffffffffffffffffffffffffffffffffff16145b91505090565b6000805473ffffffffffffffffffffffffffffffffffffffff8381167fffffffffffffffffffffffff0000000000000000000000000000000000000000831681178455604051919092169283917f8be0079c531659141344cd1fd0a4f28419497f9722a3daafe3b4186f6b6457e09190a35050565b6000602082840312156106a857600080fd5b813573ffffffffffffffffffffffffffffffffffffffff811681146106cc57600080fd5b9392505050565b6000602082840312156106e557600080fd5b813580151581146106cc57600080fd5b60006020828403121561070757600080fd5b503591905056fea264697066735822122094faea6b604de6aa7f08797a482c0dbe6827101516b2c54cead3f10e7c8f3a0264736f6c63430008060033",
  "immutableReferences": {},
  "source": "// SPDX-License-Identifier: MIT\r\n\r\nimport \"@openzeppelin/contracts/utils/math/SafeMath.sol\";\r\nimport \"@openzeppelin/contracts/utils/Strings.sol\";\r\n\r\nimport \"./Security.sol\";\r\nimport \"./Holders.sol\";\r\n\r\npragma solidity ^0.8.4;\r\n\r\ncontract Delays is SecPausable, Holders {\r\n    uint256 private _lastGTrans = block.timestamp;\r\n    uint256 private _globalDelay = 0;\r\n    uint256 private _personalDelay = 0;\r\n\r\n    modifier canTransfer() {\r\n        if (_globalDelay != 0 && !secured()) {\r\n            uint256 _time = atGDelay();\r\n            require(_time == 0, string(abi.encodePacked(\"Delay: Contract Cool Off seconds - \", Strings.toString(_time))));\r\n\r\n            _lastGTrans = block.timestamp + _globalDelay;\r\n        }\r\n\r\n        if (_personalDelay != 0 && isHolder(_msgSender()) && !secured()) {\r\n            address holderAddress = _msgSender();\r\n            uint256 _time = atPDelay(holderAddress);\r\n            require(_time == 0, string(abi.encodePacked(\"Delay: Wallet Cool Off seconds - \", Strings.toString(_time))));\r\n            \r\n            holderStructs[holderAddress].transTime = block.timestamp + _personalDelay;\r\n        }\r\n        \r\n        _;\r\n    }\r\n    \r\n    function atGDelay() internal view returns (uint256) {\r\n        bool _delay; uint256 _time;\r\n        (_delay, _time) = SafeMath.trySub(_lastGTrans, block.timestamp);\r\n        return _time;\r\n    }\r\n\r\n    function atPDelay(address holderAddress) internal view returns (uint256) {\r\n        bool _delay; uint256 _time;\r\n        uint256 _lastPTrans = holderStructs[holderAddress].transTime;\r\n        (_delay, _time) = SafeMath.trySub(_lastPTrans, block.timestamp); \r\n        return _time;\r\n    }\r\n\r\n    function getGDelay() external view onlyOwner returns (uint256) {\r\n        return _globalDelay;\r\n    }\r\n\r\n    function getPDelay() external view onlyOwner returns (uint256) {\r\n        return _personalDelay;\r\n    }\r\n\r\n    function setGDelay(uint256 _secDelay) external onlyOwner {\r\n        _globalDelay = _secDelay;\r\n    }\r\n\r\n    function setPDelay(uint256 _secDelay) external onlyOwner {\r\n        _personalDelay = _secDelay;\r\n    }\r\n}",
  "sourcePath": "D:\\Programs\\TOKEN\\contracts\\Delays.sol",
  "compiler": {
    "name": "solc",
    "version": "0.8.6+commit.11564f7e.Emscripten.clang"
  },
  "schemaVersion": "3.4.2",
  "updatedAt": "2021-08-03T19:45:13.335Z",
  "devdoc": {
    "kind": "dev",
    "methods": {
      "owner()": {
        "details": "Returns the address of the current owner."
      },
      "paused()": {
        "details": "Returns true if the contract is paused, and false otherwise."
      },
      "setPause(bool)": {
        "details": "Triggers change state."
      },
      "transferOwnership(address)": {
        "details": "Transfers ownership of the contract to a new account (`newOwner`). Can only be called by the current owner."
      }
    },
    "version": 1
  },
  "userdoc": {
    "kind": "user",
    "methods": {},
    "version": 1
  }
}