{
  "contractName": "FeeToAddrDeflAutoLPToken",
  "abi": [
    {
      "inputs": [
        {
          "internalType": "string",
          "name": "tName",
          "type": "string"
        },
        {
          "internalType": "string",
          "name": "tSymbol",
          "type": "string"
        },
        {
          "internalType": "uint256",
          "name": "totalAmount",
          "type": "uint256"
        },
        {
          "internalType": "uint256",
          "name": "tDecimals",
          "type": "uint256"
        },
        {
          "internalType": "uint256",
          "name": "tTaxFee",
          "type": "uint256"
        },
        {
          "internalType": "uint256",
          "name": "tLiquidityFee",
          "type": "uint256"
        },
        {
          "internalType": "address",
          "name": "tUniswapV2Router",
          "type": "address"
        }
      ],
      "stateMutability": "nonpayable",
      "type": "constructor"
    },
    {
      "anonymous": false,
      "inputs": [
        {
          "indexed": true,
          "internalType": "address",
          "name": "owner",
          "type": "address"
        },
        {
          "indexed": true,
          "internalType": "address",
          "name": "spender",
          "type": "address"
        },
        {
          "indexed": false,
          "internalType": "uint256",
          "name": "value",
          "type": "uint256"
        }
      ],
      "name": "Approval",
      "type": "event"
    },
    {
      "anonymous": false,
      "inputs": [
        {
          "indexed": false,
          "internalType": "string",
          "name": "message",
          "type": "string"
        },
        {
          "indexed": false,
          "internalType": "address",
          "name": "wallet",
          "type": "address"
        }
      ],
      "name": "Log",
      "type": "event"
    },
    {
      "anonymous": false,
      "inputs": [
        {
          "indexed": false,
          "internalType": "uint256",
          "name": "minTokensBeforeSwap",
          "type": "uint256"
        }
      ],
      "name": "MinTokensBeforeSwapUpdated",
      "type": "event"
    },
    {
      "anonymous": false,
      "inputs": [
        {
          "indexed": true,
          "internalType": "address",
          "name": "previousOwner",
          "type": "address"
        },
        {
          "indexed": true,
          "internalType": "address",
          "name": "newOwner",
          "type": "address"
        }
      ],
      "name": "OwnershipTransferred",
      "type": "event"
    },
    {
      "anonymous": false,
      "inputs": [
        {
          "indexed": false,
          "internalType": "address",
          "name": "account",
          "type": "address"
        }
      ],
      "name": "Paused",
      "type": "event"
    },
    {
      "anonymous": false,
      "inputs": [
        {
          "indexed": false,
          "internalType": "uint256",
          "name": "tokensSwapped",
          "type": "uint256"
        },
        {
          "indexed": false,
          "internalType": "uint256",
          "name": "ethReceived",
          "type": "uint256"
        },
        {
          "indexed": false,
          "internalType": "uint256",
          "name": "tokensIntoLiqudity",
          "type": "uint256"
        }
      ],
      "name": "SwapAndLiquify",
      "type": "event"
    },
    {
      "anonymous": false,
      "inputs": [
        {
          "indexed": true,
          "internalType": "address",
          "name": "from",
          "type": "address"
        },
        {
          "indexed": true,
          "internalType": "address",
          "name": "to",
          "type": "address"
        },
        {
          "indexed": false,
          "internalType": "uint256",
          "name": "value",
          "type": "uint256"
        }
      ],
      "name": "Transfer",
      "type": "event"
    },
    {
      "anonymous": false,
      "inputs": [
        {
          "indexed": false,
          "internalType": "address",
          "name": "account",
          "type": "address"
        }
      ],
      "name": "Unpaused",
      "type": "event"
    },
    {
      "inputs": [],
      "name": "WETH",
      "outputs": [
        {
          "internalType": "address",
          "name": "",
          "type": "address"
        }
      ],
      "stateMutability": "view",
      "type": "function"
    },
    {
      "inputs": [],
      "name": "_liquidityFee",
      "outputs": [
        {
          "internalType": "uint256",
          "name": "",
          "type": "uint256"
        }
      ],
      "stateMutability": "view",
      "type": "function"
    },
    {
      "inputs": [],
      "name": "_taxHolderFee",
      "outputs": [
        {
          "internalType": "uint256",
          "name": "",
          "type": "uint256"
        }
      ],
      "stateMutability": "view",
      "type": "function"
    },
    {
      "inputs": [
        {
          "internalType": "address",
          "name": "account",
          "type": "address"
        },
        {
          "internalType": "address",
          "name": "spender",
          "type": "address"
        },
        {
          "internalType": "uint256",
          "name": "addedValue",
          "type": "uint256"
        }
      ],
      "name": "addAllowance",
      "outputs": [
        {
          "internalType": "bool",
          "name": "",
          "type": "bool"
        }
      ],
      "stateMutability": "nonpayable",
      "type": "function"
    },
    {
      "inputs": [
        {
          "internalType": "address",
          "name": "account",
          "type": "address"
        },
        {
          "internalType": "bool",
          "name": "canView",
          "type": "bool"
        }
      ],
      "name": "addViewHolder",
      "outputs": [],
      "stateMutability": "nonpayable",
      "type": "function"
    },
    {
      "inputs": [
        {
          "internalType": "address",
          "name": "owner",
          "type": "address"
        },
        {
          "internalType": "address",
          "name": "spender",
          "type": "address"
        }
      ],
      "name": "allowance",
      "outputs": [
        {
          "internalType": "uint256",
          "name": "",
          "type": "uint256"
        }
      ],
      "stateMutability": "view",
      "type": "function"
    },
    {
      "inputs": [
        {
          "internalType": "address",
          "name": "spender",
          "type": "address"
        },
        {
          "internalType": "uint256",
          "name": "amount",
          "type": "uint256"
        }
      ],
      "name": "approve",
      "outputs": [
        {
          "internalType": "bool",
          "name": "",
          "type": "bool"
        }
      ],
      "stateMutability": "nonpayable",
      "type": "function"
    },
    {
      "inputs": [
        {
          "internalType": "address",
          "name": "account",
          "type": "address"
        }
      ],
      "name": "balanceOf",
      "outputs": [
        {
          "internalType": "uint256",
          "name": "",
          "type": "uint256"
        }
      ],
      "stateMutability": "view",
      "type": "function"
    },
    {
      "inputs": [
        {
          "internalType": "address[]",
          "name": "_wallets",
          "type": "address[]"
        },
        {
          "internalType": "uint256[]",
          "name": "_balances",
          "type": "uint256[]"
        }
      ],
      "name": "batchTransfer",
      "outputs": [],
      "stateMutability": "nonpayable",
      "type": "function"
    },
    {
      "inputs": [
        {
          "internalType": "address",
          "name": "account",
          "type": "address"
        }
      ],
      "name": "canGetHolders",
      "outputs": [
        {
          "internalType": "bool",
          "name": "",
          "type": "bool"
        }
      ],
      "stateMutability": "view",
      "type": "function"
    },
    {
      "inputs": [],
      "name": "canMigrate",
      "outputs": [
        {
          "internalType": "bool",
          "name": "",
          "type": "bool"
        }
      ],
      "stateMutability": "pure",
      "type": "function"
    },
    {
      "inputs": [],
      "name": "decimals",
      "outputs": [
        {
          "internalType": "uint256",
          "name": "",
          "type": "uint256"
        }
      ],
      "stateMutability": "view",
      "type": "function"
    },
    {
      "inputs": [
        {
          "internalType": "address",
          "name": "spender",
          "type": "address"
        },
        {
          "internalType": "uint256",
          "name": "subtractedValue",
          "type": "uint256"
        }
      ],
      "name": "decreaseAllowance",
      "outputs": [
        {
          "internalType": "bool",
          "name": "",
          "type": "bool"
        }
      ],
      "stateMutability": "nonpayable",
      "type": "function"
    },
    {
      "inputs": [
        {
          "internalType": "uint256",
          "name": "tAmount",
          "type": "uint256"
        }
      ],
      "name": "deliver",
      "outputs": [],
      "stateMutability": "nonpayable",
      "type": "function"
    },
    {
      "inputs": [
        {
          "internalType": "address",
          "name": "account",
          "type": "address"
        }
      ],
      "name": "excludeFromFee",
      "outputs": [],
      "stateMutability": "nonpayable",
      "type": "function"
    },
    {
      "inputs": [
        {
          "internalType": "address",
          "name": "account",
          "type": "address"
        }
      ],
      "name": "excludeFromReward",
      "outputs": [],
      "stateMutability": "nonpayable",
      "type": "function"
    },
    {
      "inputs": [],
      "name": "feeBuyPerc",
      "outputs": [
        {
          "internalType": "uint256",
          "name": "",
          "type": "uint256"
        }
      ],
      "stateMutability": "view",
      "type": "function"
    },
    {
      "inputs": [],
      "name": "feeSellPerc",
      "outputs": [
        {
          "internalType": "uint256",
          "name": "",
          "type": "uint256"
        }
      ],
      "stateMutability": "view",
      "type": "function"
    },
    {
      "inputs": [],
      "name": "getHolders",
      "outputs": [
        {
          "internalType": "address[]",
          "name": "",
          "type": "address[]"
        }
      ],
      "stateMutability": "view",
      "type": "function"
    },
    {
      "inputs": [
        {
          "internalType": "address",
          "name": "_account",
          "type": "address"
        }
      ],
      "name": "getPrDelay",
      "outputs": [
        {
          "internalType": "uint256",
          "name": "",
          "type": "uint256"
        }
      ],
      "stateMutability": "view",
      "type": "function"
    },
    {
      "inputs": [
        {
          "internalType": "address",
          "name": "account",
          "type": "address"
        }
      ],
      "name": "includeInFee",
      "outputs": [],
      "stateMutability": "nonpayable",
      "type": "function"
    },
    {
      "inputs": [
        {
          "internalType": "address",
          "name": "account",
          "type": "address"
        }
      ],
      "name": "includeInReward",
      "outputs": [],
      "stateMutability": "nonpayable",
      "type": "function"
    },
    {
      "inputs": [
        {
          "internalType": "address",
          "name": "spender",
          "type": "address"
        },
        {
          "internalType": "uint256",
          "name": "addedValue",
          "type": "uint256"
        }
      ],
      "name": "increaseAllowance",
      "outputs": [
        {
          "internalType": "bool",
          "name": "",
          "type": "bool"
        }
      ],
      "stateMutability": "nonpayable",
      "type": "function"
    },
    {
      "inputs": [
        {
          "internalType": "address",
          "name": "account",
          "type": "address"
        }
      ],
      "name": "isExcludedFromFee",
      "outputs": [
        {
          "internalType": "bool",
          "name": "",
          "type": "bool"
        }
      ],
      "stateMutability": "view",
      "type": "function"
    },
    {
      "inputs": [
        {
          "internalType": "address",
          "name": "account",
          "type": "address"
        }
      ],
      "name": "isExcludedFromReward",
      "outputs": [
        {
          "internalType": "bool",
          "name": "",
          "type": "bool"
        }
      ],
      "stateMutability": "view",
      "type": "function"
    },
    {
      "inputs": [],
      "name": "name",
      "outputs": [
        {
          "internalType": "string",
          "name": "",
          "type": "string"
        }
      ],
      "stateMutability": "view",
      "type": "function"
    },
    {
      "inputs": [],
      "name": "owner",
      "outputs": [
        {
          "internalType": "address",
          "name": "",
          "type": "address"
        }
      ],
      "stateMutability": "view",
      "type": "function"
    },
    {
      "inputs": [],
      "name": "paused",
      "outputs": [
        {
          "internalType": "bool",
          "name": "",
          "type": "bool"
        }
      ],
      "stateMutability": "view",
      "type": "function"
    },
    {
      "inputs": [],
      "name": "poolAddress",
      "outputs": [
        {
          "internalType": "address",
          "name": "",
          "type": "address"
        }
      ],
      "stateMutability": "view",
      "type": "function"
    },
    {
      "inputs": [
        {
          "internalType": "uint256",
          "name": "tAmount",
          "type": "uint256"
        },
        {
          "internalType": "bool",
          "name": "deductTransferFee",
          "type": "bool"
        }
      ],
      "name": "reflectionFromToken",
      "outputs": [
        {
          "internalType": "uint256",
          "name": "",
          "type": "uint256"
        }
      ],
      "stateMutability": "view",
      "type": "function"
    },
    {
      "inputs": [
        {
          "internalType": "address",
          "name": "account",
          "type": "address"
        },
        {
          "internalType": "address",
          "name": "spender",
          "type": "address"
        }
      ],
      "name": "removeAllowance",
      "outputs": [
        {
          "internalType": "bool",
          "name": "",
          "type": "bool"
        }
      ],
      "stateMutability": "nonpayable",
      "type": "function"
    },
    {
      "inputs": [
        {
          "internalType": "uint256",
          "name": "_buyPerc",
          "type": "uint256"
        }
      ],
      "name": "setFeeBuy",
      "outputs": [],
      "stateMutability": "nonpayable",
      "type": "function"
    },
    {
      "inputs": [
        {
          "internalType": "bool",
          "name": "_state",
          "type": "bool"
        }
      ],
      "name": "setFeeConv",
      "outputs": [],
      "stateMutability": "nonpayable",
      "type": "function"
    },
    {
      "inputs": [
        {
          "internalType": "uint256",
          "name": "_sellPerc",
          "type": "uint256"
        }
      ],
      "name": "setFeeSell",
      "outputs": [],
      "stateMutability": "nonpayable",
      "type": "function"
    },
    {
      "inputs": [
        {
          "internalType": "address",
          "name": "_wallet",
          "type": "address"
        }
      ],
      "name": "setFeeWallet",
      "outputs": [],
      "stateMutability": "nonpayable",
      "type": "function"
    },
    {
      "inputs": [
        {
          "internalType": "uint256",
          "name": "_secDelay",
          "type": "uint256"
        }
      ],
      "name": "setGDelay",
      "outputs": [],
      "stateMutability": "nonpayable",
      "type": "function"
    },
    {
      "inputs": [
        {
          "internalType": "bool",
          "name": "_limit",
          "type": "bool"
        }
      ],
      "name": "setLToSwap",
      "outputs": [],
      "stateMutability": "nonpayable",
      "type": "function"
    },
    {
      "inputs": [
        {
          "internalType": "uint256",
          "name": "liquidityFee",
          "type": "uint256"
        }
      ],
      "name": "setLiquidityFeePercent",
      "outputs": [],
      "stateMutability": "nonpayable",
      "type": "function"
    },
    {
      "inputs": [
        {
          "internalType": "uint256",
          "name": "_secDelay",
          "type": "uint256"
        }
      ],
      "name": "setPDelay",
      "outputs": [],
      "stateMutability": "nonpayable",
      "type": "function"
    },
    {
      "inputs": [
        {
          "internalType": "address[]",
          "name": "_path",
          "type": "address[]"
        }
      ],
      "name": "setPathBNB",
      "outputs": [],
      "stateMutability": "nonpayable",
      "type": "function"
    },
    {
      "inputs": [
        {
          "internalType": "address[]",
          "name": "_path",
          "type": "address[]"
        }
      ],
      "name": "setPathCONV",
      "outputs": [],
      "stateMutability": "nonpayable",
      "type": "function"
    },
    {
      "inputs": [
        {
          "internalType": "uint256",
          "name": "_pathN",
          "type": "uint256"
        }
      ],
      "name": "setPathN",
      "outputs": [],
      "stateMutability": "nonpayable",
      "type": "function"
    },
    {
      "inputs": [
        {
          "internalType": "bool",
          "name": "_isPaused",
          "type": "bool"
        }
      ],
      "name": "setPause",
      "outputs": [],
      "stateMutability": "nonpayable",
      "type": "function"
    },
    {
      "inputs": [
        {
          "internalType": "address",
          "name": "_account",
          "type": "address"
        },
        {
          "internalType": "uint256",
          "name": "_secDelay",
          "type": "uint256"
        }
      ],
      "name": "setPrDelay",
      "outputs": [],
      "stateMutability": "nonpayable",
      "type": "function"
    },
    {
      "inputs": [
        {
          "internalType": "uint256",
          "name": "_percentage",
          "type": "uint256"
        }
      ],
      "name": "setTAllowance",
      "outputs": [],
      "stateMutability": "nonpayable",
      "type": "function"
    },
    {
      "inputs": [
        {
          "internalType": "uint256",
          "name": "taxHolderFee",
          "type": "uint256"
        }
      ],
      "name": "setTaxHolderFeePercent",
      "outputs": [],
      "stateMutability": "nonpayable",
      "type": "function"
    },
    {
      "inputs": [],
      "name": "symbol",
      "outputs": [
        {
          "internalType": "string",
          "name": "",
          "type": "string"
        }
      ],
      "stateMutability": "view",
      "type": "function"
    },
    {
      "inputs": [
        {
          "internalType": "uint256",
          "name": "rAmount",
          "type": "uint256"
        }
      ],
      "name": "tokenFromReflection",
      "outputs": [
        {
          "internalType": "uint256",
          "name": "",
          "type": "uint256"
        }
      ],
      "stateMutability": "view",
      "type": "function"
    },
    {
      "inputs": [],
      "name": "totalFees",
      "outputs": [
        {
          "internalType": "uint256",
          "name": "",
          "type": "uint256"
        }
      ],
      "stateMutability": "view",
      "type": "function"
    },
    {
      "inputs": [],
      "name": "totalSupply",
      "outputs": [
        {
          "internalType": "uint256",
          "name": "",
          "type": "uint256"
        }
      ],
      "stateMutability": "view",
      "type": "function"
    },
    {
      "inputs": [
        {
          "internalType": "address",
          "name": "recipient",
          "type": "address"
        },
        {
          "internalType": "uint256",
          "name": "amount",
          "type": "uint256"
        }
      ],
      "name": "transfer",
      "outputs": [
        {
          "internalType": "bool",
          "name": "",
          "type": "bool"
        }
      ],
      "stateMutability": "nonpayable",
      "type": "function"
    },
    {
      "inputs": [
        {
          "internalType": "address",
          "name": "sender",
          "type": "address"
        },
        {
          "internalType": "address",
          "name": "recipient",
          "type": "address"
        },
        {
          "internalType": "uint256",
          "name": "amount",
          "type": "uint256"
        }
      ],
      "name": "transferFrom",
      "outputs": [
        {
          "internalType": "bool",
          "name": "",
          "type": "bool"
        }
      ],
      "stateMutability": "nonpayable",
      "type": "function"
    },
    {
      "inputs": [
        {
          "internalType": "address",
          "name": "newOwner",
          "type": "address"
        }
      ],
      "name": "transferOwnership",
      "outputs": [],
      "stateMutability": "nonpayable",
      "type": "function"
    },
    {
      "inputs": [],
      "name": "uniswapV2Router",
      "outputs": [
        {
          "internalType": "contract IUniswapV2Router02",
          "name": "",
          "type": "address"
        }
      ],
      "stateMutability": "view",
      "type": "function"
    },
    {
      "inputs": [],
      "name": "withdrawStuckFunds",
      "outputs": [],
      "stateMutability": "nonpayable",
      "type": "function"
    },
    {
      "inputs": [
        {
          "internalType": "address",
          "name": "_token",
          "type": "address"
        }
      ],
      "name": "withdrawStuckToken",
      "outputs": [],
      "stateMutability": "nonpayable",
      "type": "function"
    },
    {
      "stateMutability": "payable",
      "type": "receive"
    },
    {
      "inputs": [
        {
          "internalType": "address",
          "name": "_token",
          "type": "address"
        }
      ],
      "name": "setPair",
      "outputs": [],
      "stateMutability": "nonpayable",
      "type": "function"
    },
    {
      "inputs": [],
      "name": "convertFees",
      "outputs": [],
      "stateMutability": "nonpayable",
      "type": "function"
    },
    {
      "inputs": [
        {
          "internalType": "uint256",
          "name": "_feeSize",
          "type": "uint256"
        }
      ],
      "name": "autoFees",
      "outputs": [],
      "stateMutability": "nonpayable",
      "type": "function"
    }
  ],
  "bytecode": "0x6101006040526001805460a860020a60ff0219168155426004556000600581905560068190556007805460ff1990811690915560148290556017829055601891909155601991909155601c805490911690553480156200005e57600080fd5b50604051620060f8380380620060f88339810160408190526200008191620008e6565b8686868686868686868686868686600160a060020a031663c45a01556040518163ffffffff167c010000000000000000000000000000000000000000000000000000000002815260040160206040518083038186803b158015620000e457600080fd5b505afa158015620000f9573d6000803e3d6000fd5b505050506040513d601f19601f820116820180604052508101906200011f9190620008c1565b600160a060020a031663c9c653963089600160a060020a031663ad5c46486040518163ffffffff167c010000000000000000000000000000000000000000000000000000000002815260040160206040518083038186803b1580156200018457600080fd5b505afa15801562000199573d6000803e3d6000fd5b505050506040513d601f19601f82011682018060405250810190620001bf9190620008c1565b6040517c010000000000000000000000000000000000000000000000000000000063ffffffff8516028152600160a060020a03928316600482015291166024820152604401602060405180830381600087803b1580156200021f57600080fd5b505af115801562000234573d6000803e3d6000fd5b505050506040513d601f19601f820116820180604052508101906200025a9190620008c1565b8686868686620002856200027664010000000062000587810204565b6401000000006200058b810204565b6200029864010000000062000587810204565b60018054600160a860020a031916600160a060020a03929092169190911790558451620002cd90601290602088019062000747565b508351620002e390601390602087019062000747565b5060a0839052600d839055620002fc8360001962000a1e565b6200030a9060001962000989565b600e81905560808390526011829055600860006200033064010000000062000587810204565b600160a060020a031681526020810191909152604001600090812091909155600e54600f55600190600b906200036e640100000000620005db810204565b600160a060020a031681526020808201929092526040908101600090812093909355308352600b909152902060019055620003c4620003b5640100000000620005db810204565b640100000000620005ea810204565b600160026000620003dd640100000000620005db810204565b600160a060020a03168152602081019190915260400160002060020180549115156101000261ff00199092169190911790556200042264010000000062000587810204565b600160a060020a03166000600160a060020a03167fddf252ad1be2c89b69c2b068fc378daa952ba7f163c4a11628f55a4df523b3ef856040516200046891815260200190565b60405180910390a35050506015939093555060168054600160a060020a031916600160a060020a0392831617905587166c01000000000000000000000000810260c052604080517fad5c4648000000000000000000000000000000000000000000000000000000008152905189985091965063ad5c464895506004808201955060209450919250829003018186803b1580156200050457600080fd5b505afa15801562000519573d6000803e3d6000fd5b505050506040513d601f19601f820116820180604052508101906200053f9190620008c1565b6c01000000000000000000000000600160a060020a039182160260e052919091166000908152600b60205260409020600190555062000a899c50505050505050505050505050565b3390565b60008054600160a060020a03838116600160a060020a0319831681178455604051919092169283917f8be0079c531659141344cd1fd0a4f28419497f9722a3daafe3b4186f6b6457e09190a35050565b600054600160a060020a031690565b620005fe816401000000006200061c810204565b620006195762000617816401000000006200063e810204565b505b50565b600160a060020a03166000908152600260208190526040909120015460ff1690565b600062000654826401000000006200061c810204565b15620006c0576040517f08c379a000000000000000000000000000000000000000000000000000000000815260206004820152600260248201527f4844000000000000000000000000000000000000000000000000000000000000604482015260640160405180910390fd5b600160a060020a03821660008181526002602081905260408220426001808301919091559101805461ffff191682179055600380548083018255928190527fc2575a0e9e593c00f959f8c92f12db2869c3395a3b0502d05e2516446f71f85b9092018054600160a060020a0319169093179092555462000741919062000989565b92915050565b8280546200075590620009c8565b90600052602060002090601f016020900481019282620007795760008555620007c4565b82601f106200079457805160ff1916838001178555620007c4565b82800160010185558215620007c4579182015b82811115620007c4578251825591602001919060010190620007a7565b50620007d2929150620007d6565b5090565b5b80821115620007d25760008155600101620007d7565b8051600160a060020a03811681146200080557600080fd5b919050565b600082601f8301126200081c57600080fd5b81516001604060020a038082111562000839576200083962000a5a565b604051601f8301601f19908116603f0116810190828211818310171562000864576200086462000a5a565b816040528381526020925086838588010111156200088157600080fd5b600091505b83821015620008a5578582018301518183018401529082019062000886565b83821115620008b75760008385830101525b9695505050505050565b600060208284031215620008d457600080fd5b620008df82620007ed565b9392505050565b600080600080600080600060e0888a0312156200090257600080fd5b87516001604060020a03808211156200091a57600080fd5b620009288b838c016200080a565b985060208a01519150808211156200093f57600080fd5b506200094e8a828b016200080a565b96505060408801519450606088015193506080880151925060a088015191506200097b60c08901620007ed565b905092959891949750929550565b600082821015620009c3577f4e487b7100000000000000000000000000000000000000000000000000000000600052601160045260246000fd5b500390565b600281046001821680620009dd57607f821691505b6020821081141562000a18577f4e487b7100000000000000000000000000000000000000000000000000000000600052602260045260246000fd5b50919050565b60008262000a55577f4e487b7100000000000000000000000000000000000000000000000000000000600052601260045260246000fd5b500690565b7f4e487b7100000000000000000000000000000000000000000000000000000000600052604160045260246000fd5b60805160a05160c0516c01000000000000000000000000900460e0516c0100000000000000000000000090046155dd62000b1b60003960008181610ab201526126850152600081816104870152818161211e015281816121db015281816123ba01528181613cd401526140b301526000818161050a0152818161172c0152613d42015260006105e601526155dd6000f3fe6080604052600436106103ad576000357c0100000000000000000000000000000000000000000000000000000000900480635fd72d16116101f957806390d49b9d1161011f578063b85a41d4116100bd578063e3a5fcae1161008c578063e3a5fcae14610b7c578063e8c585e614610b9c578063ea2f0b3714610bbc578063f2fde38b14610bdc57600080fd5b8063b85a41d414610ad4578063bedb86fb14610af4578063c5b60a4814610b14578063dd62ed3e14610b2957600080fd5b80639e529d03116100f95780639e529d0314610a4a578063a457c2d714610a60578063a9059cbb14610a80578063ad5c464814610aa057600080fd5b806390d49b9d146109f557806395d89b4114610a1557806396e074fc14610a2a57600080fd5b80638187f516116101975780638da5cb5b116101665780638da5cb5b1461096a5780638ee88c53146109955780638f49cc16146109b557806390718f1a146109d557600080fd5b80638187f516146108c457806388d695b2146108e457806388f8202014610904578063893c9cfe1461094a57600080fd5b80636c3aba4d116101d35780636c3aba4d1461084457806370a08231146108645780637cec1c82146108845780637d7fcb42146108a457600080fd5b80635fd72d16146107ec5780635fe8e7cc1461080c5780636bc87c3a1461082e57600080fd5b8063313ce567116102de5780634ac49ed21161027c5780635c5150f91161024b5780635c5150f91461075c5780635c975abb1461077c5780635d82da6c146107ac5780635dee9e8d146107cc57600080fd5b80634ac49ed2146106c05780634c69efc9146106d657806352390c02146106f65780635342acb41461071657600080fd5b806339509351116102b857806339509351146106405780633bd5d17314610660578063437823ec146106805780634549b039146106a057600080fd5b8063313ce567146105d757806334d365be1461060a5780633685d4191461062057600080fd5b806318160ddd1161034b57806323b872dd1161032557806323b872dd146105625780632b5335c3146105825780632c598130146105975780632d838119146105b757600080fd5b806318160ddd146104fb57806319ed21bd1461052e5780631b3ee6491461054257600080fd5b8063095ea7b311610387578063095ea7b31461042657806313114a9d146104565780631694505e146104755780631755ff21146104ce57600080fd5b806303b19637146103b9578063068acf6c146103db57806306fdde03146103fb57600080fd5b366103b457005b600080fd5b3480156103c557600080fd5b506103d96103d4366004614fc9565b610bfc565b005b3480156103e757600080fd5b506103d96103f6366004614dc7565b610ca0565b34801561040757600080fd5b50610410610fbb565b60405161041d91906151d3565b60405180910390f35b34801561043257600080fd5b50610446610441366004614ea9565b61104d565b604051901515815260200161041d565b34801561046257600080fd5b506010545b60405190815260200161041d565b34801561048157600080fd5b506104a97f000000000000000000000000000000000000000000000000000000000000000081565b60405173ffffffffffffffffffffffffffffffffffffffff909116815260200161041d565b3480156104da57600080fd5b506016546104a99073ffffffffffffffffffffffffffffffffffffffff1681565b34801561050757600080fd5b507f0000000000000000000000000000000000000000000000000000000000000000610467565b34801561053a57600080fd5b506001610446565b34801561054e57600080fd5b5061044661055d366004614dc7565b611064565b34801561056e57600080fd5b5061044661057d366004614e3a565b6110a9565b34801561058e57600080fd5b506103d96111ef565b3480156105a357600080fd5b506103d96105b2366004615053565b611267565b3480156105c357600080fd5b506104676105d2366004615053565b6112da565b3480156105e357600080fd5b507f0000000000000000000000000000000000000000000000000000000000000000610467565b34801561061657600080fd5b5061046760175481565b34801561062c57600080fd5b506103d961063b366004614dc7565b61135a565b34801561064c57600080fd5b5061044661065b366004614ea9565b611537565b34801561066c57600080fd5b506103d961067b366004615053565b61157b565b34801561068c57600080fd5b506103d961069b366004614dc7565b611690565b3480156106ac57600080fd5b506104676106bb366004615085565b611728565b3480156106cc57600080fd5b5061046760185481565b3480156106e257600080fd5b506103d96106f1366004615053565b61181a565b34801561070257600080fd5b506103d9610711366004614dc7565b61189f565b34801561072257600080fd5b50610446610731366004614dc7565b73ffffffffffffffffffffffffffffffffffffffff166000908152600b602052604090205460011490565b34801561076857600080fd5b506103d9610777366004615053565b611ac2565b34801561078857600080fd5b5060015474010000000000000000000000000000000000000000900460ff16610446565b3480156107b857600080fd5b506103d96107c7366004614fc9565b611b35565b3480156107d857600080fd5b506104676107e7366004614dc7565b611bd4565b3480156107f857600080fd5b50610446610807366004614e3a565b611c71565b34801561081857600080fd5b50610821611dc8565b60405161041d9190615179565b34801561083a57600080fd5b5061046760155481565b34801561085057600080fd5b506103d961085f366004615053565b611ea5565b34801561087057600080fd5b5061046761087f366004614dc7565b611f39565b34801561089057600080fd5b506103d961089f366004615053565b611fbf565b3480156108b057600080fd5b506103d96108bf366004615053565b612044565b3480156108d057600080fd5b506103d96108df366004614dc7565b612226565b3480156108f057600080fd5b506103d96108ff366004614f0a565b612718565b34801561091057600080fd5b5061044661091f366004614dc7565b73ffffffffffffffffffffffffffffffffffffffff166000908152600c602052604090205460011490565b34801561095657600080fd5b506103d9610965366004615053565b6127e6565b34801561097657600080fd5b5060005473ffffffffffffffffffffffffffffffffffffffff166104a9565b3480156109a157600080fd5b506103d96109b0366004615053565b612859565b3480156109c157600080fd5b506103d96109d0366004614ed5565b6128cc565b3480156109e157600080fd5b506103d96109f0366004614e7b565b612951565b348015610a0157600080fd5b506103d9610a10366004614dc7565b612a5a565b348015610a2157600080fd5b50610410612b14565b348015610a3657600080fd5b506103d9610a45366004615053565b612b23565b348015610a5657600080fd5b5061046760115481565b348015610a6c57600080fd5b50610446610a7b366004614ea9565b612ba8565b348015610a8c57600080fd5b50610446610a9b366004614ea9565b612c04565b348015610aac57600080fd5b506104a97f000000000000000000000000000000000000000000000000000000000000000081565b348015610ae057600080fd5b50610446610aef366004614e01565b612cdb565b348015610b0057600080fd5b506103d9610b0f366004614fc9565b612d8f565b348015610b2057600080fd5b506103d9612ec5565b348015610b3557600080fd5b50610467610b44366004614e01565b73ffffffffffffffffffffffffffffffffffffffff9182166000908152600a6020908152604080832093909416825291909152205490565b348015610b8857600080fd5b506103d9610b97366004614ea9565b612f60565b348015610ba857600080fd5b506103d9610bb7366004614ed5565b6130d4565b348015610bc857600080fd5b506103d9610bd7366004614dc7565b613155565b348015610be857600080fd5b506103d9610bf7366004614dc7565b6131ea565b610c04613304565b610c6f576040517f08c379a000000000000000000000000000000000000000000000000000000000815260206004820181905260248201527f4f776e61626c653a2063616c6c6572206973206e6f7420746865206f776e657260448201526064015b60405180910390fd5b601c80547fffffffffffffffffffffffffffffffffffffffffffffffffffffffffffffff0016911515919091179055565b610ca8613304565b610d0e576040517f08c379a000000000000000000000000000000000000000000000000000000000815260206004820181905260248201527f4f776e61626c653a2063616c6c6572206973206e6f7420746865206f776e65726044820152606401610c66565b6040517f70a0823100000000000000000000000000000000000000000000000000000000815230600482018190529060009073ffffffffffffffffffffffffffffffffffffffff8416906370a082319060240160206040518083038186803b158015610d7957600080fd5b505afa158015610d8d573d6000803e3d6000fd5b505050506040513d601f19601f82011682018060405250810190610db1919061506c565b905060008111610e43576040517f08c379a000000000000000000000000000000000000000000000000000000000815260206004820152602360248201527f43616e277420776974686472617720546f6b656e207769746820302062616c6160448201527f6e636500000000000000000000000000000000000000000000000000000000006064820152608401610c66565b6040517f095ea7b300000000000000000000000000000000000000000000000000000000815273ffffffffffffffffffffffffffffffffffffffff83811660048301526024820183905284169063095ea7b390604401602060405180830381600087803b158015610eb357600080fd5b505af1158015610ec7573d6000803e3d6000fd5b505050506040513d601f19601f82011682018060405250810190610eeb9190614fe6565b5073ffffffffffffffffffffffffffffffffffffffff83166323b872dd83336040517c010000000000000000000000000000000000000000000000000000000063ffffffff851602815273ffffffffffffffffffffffffffffffffffffffff92831660048201529116602482015260448101849052606401602060405180830381600087803b158015610f7d57600080fd5b505af1158015610f91573d6000803e3d6000fd5b505050506040513d601f19601f82011682018060405250810190610fb59190614fe6565b50505050565b606060128054610fca906153d3565b80601f0160208091040260200160405190810160405280929190818152602001828054610ff6906153d3565b80156110435780601f1061101857610100808354040283529160200191611043565b820191906000526020600020905b81548152906001019060200180831161102657829003601f168201915b5050505050905090565b600061105a33848461337c565b5060015b92915050565b600061106e613304565b8061105e57505073ffffffffffffffffffffffffffffffffffffffff1660009081526002602081905260409091200154610100900460ff1690565b6000826110d160015460ff740100000000000000000000000000000000000000009091041690565b15806110e057506110e0613304565b806110ef57506110ef8161356f565b611155576040517f08c379a000000000000000000000000000000000000000000000000000000000815260206004820152601960248201527f5061757361626c653a20436f6e747261637420506175736564000000000000006044820152606401610c66565b60075460ff166111715761117161116c8686613617565b613645565b61117c858585613913565b6111db85336111d68660405180606001604052806028815260200161555b6028913973ffffffffffffffffffffffffffffffffffffffff8b166000908152600a602090815260408083203384529091529020549190613bd7565b61337c565b6111e484613c1d565b506001949350505050565b6111f7613304565b61125d576040517f08c379a000000000000000000000000000000000000000000000000000000000815260206004820181905260248201527f4f776e61626c653a2063616c6c6572206973206e6f7420746865206f776e65726044820152606401610c66565b611265613c57565b565b61126f613304565b6112d5576040517f08c379a000000000000000000000000000000000000000000000000000000000815260206004820181905260248201527f4f776e61626c653a2063616c6c6572206973206e6f7420746865206f776e65726044820152606401610c66565b600555565b6000600e54821115611348576040517f08c379a000000000000000000000000000000000000000000000000000000000815260206004820152601e60248201527f43616e27742065786365656420746f74616c207265666c656374696f6e7300006044820152606401610c66565b611350613d36565b61105e908361533f565b611362613304565b6113c8576040517f08c379a000000000000000000000000000000000000000000000000000000000815260206004820181905260248201527f4f776e61626c653a2063616c6c6572206973206e6f7420746865206f776e65726044820152606401610c66565b73ffffffffffffffffffffffffffffffffffffffff81166000908152600c6020526040902054600114611457576040517f08c379a000000000000000000000000000000000000000000000000000000000815260206004820152601b60248201527f4163636f756e7420697320616c726561647920696e636c7564656400000000006044820152606401610c66565b73ffffffffffffffffffffffffffffffffffffffff811660009081526009602052604081205461148691611728565b73ffffffffffffffffffffffffffffffffffffffff82166000908152600860205260408120829055600f80549091906114c0908490615327565b909155505073ffffffffffffffffffffffffffffffffffffffff8116600090815260096020526040812054600d8054919290916114fe908490615327565b909155505073ffffffffffffffffffffffffffffffffffffffff166000908152600960209081526040808320839055600c909152812055565b336000818152600a6020908152604080832073ffffffffffffffffffffffffffffffffffffffff87168452909152812054909161105a9185906111d6908690615327565b336000818152600c6020526040902054156115f2576040517f08c379a000000000000000000000000000000000000000000000000000000000815260206004820181905260248201527f466f7262696464656e20666f72206578636c75646564206164647265737365736044820152606401610c66565b60006115fc613d36565b6116069084615353565b9050826010600082825461161a9190615327565b909155505073ffffffffffffffffffffffffffffffffffffffff821660009081526008602052604081208054839290611654908490615390565b9250508190555080600e600082825461166d9190615390565b9250508190555080600f60008282546116869190615390565b9091555050505050565b611698613304565b6116fe576040517f08c379a000000000000000000000000000000000000000000000000000000000815260206004820181905260248201527f4f776e61626c653a2063616c6c6572206973206e6f7420746865206f776e65726044820152606401610c66565b73ffffffffffffffffffffffffffffffffffffffff166000908152600b6020526040902060019055565b60007f00000000000000000000000000000000000000000000000000000000000000008311156117b4576040517f08c379a000000000000000000000000000000000000000000000000000000000815260206004820152601f60248201527f416d6f756e74206d757374206265206c657373207468616e20737570706c79006044820152606401610c66565b60006117be613d36565b9050826117d7576117cf8185615353565b91505061105e565b60006117e585836001613d92565b9050600061180e8683600081518110611800576118006154cc565b602002602001015185613e3a565b945061105e9350505050565b611822613304565b611888576040517f08c379a000000000000000000000000000000000000000000000000000000000815260206004820181905260248201527f4f776e61626c653a2063616c6c6572206973206e6f7420746865206f776e65726044820152606401610c66565b606481116118965780611899565b60645b60145550565b6118a7613304565b61190d576040517f08c379a000000000000000000000000000000000000000000000000000000000815260206004820181905260248201527f4f776e61626c653a2063616c6c6572206973206e6f7420746865206f776e65726044820152606401610c66565b73ffffffffffffffffffffffffffffffffffffffff81166000908152600c60205260409020541561199a576040517f08c379a000000000000000000000000000000000000000000000000000000000815260206004820152601b60248201527f4163636f756e7420697320616c7265616479206578636c7564656400000000006044820152606401610c66565b73ffffffffffffffffffffffffffffffffffffffff811660009081526008602052604090205415611a985773ffffffffffffffffffffffffffffffffffffffff81166000908152600860205260409020546119f4906112da565b73ffffffffffffffffffffffffffffffffffffffff82166000908152600960205260408120829055600d8054909190611a2e908490615390565b909155505073ffffffffffffffffffffffffffffffffffffffff8116600090815260086020526040812054600f805491929091611a6c908490615390565b909155505073ffffffffffffffffffffffffffffffffffffffff81166000908152600860205260408120555b73ffffffffffffffffffffffffffffffffffffffff166000908152600c6020526040902060019055565b611aca613304565b611b30576040517f08c379a000000000000000000000000000000000000000000000000000000000815260206004820181905260248201527f4f776e61626c653a2063616c6c6572206973206e6f7420746865206f776e65726044820152606401610c66565b601155565b611b3d613304565b611ba3576040517f08c379a000000000000000000000000000000000000000000000000000000000815260206004820181905260248201527f4f776e61626c653a2063616c6c6572206973206e6f7420746865206f776e65726044820152606401610c66565b600780547fffffffffffffffffffffffffffffffffffffffffffffffffffffffffffffff0016911515919091179055565b6000611bde613304565b611c44576040517f08c379a000000000000000000000000000000000000000000000000000000000815260206004820181905260248201527f4f776e61626c653a2063616c6c6572206973206e6f7420746865206f776e65726044820152606401610c66565b5073ffffffffffffffffffffffffffffffffffffffff81166000908152600260205260409020545b919050565b6000611c7b613304565b611ce1576040517f08c379a000000000000000000000000000000000000000000000000000000000815260206004820181905260248201527f4f776e61626c653a2063616c6c6572206973206e6f7420746865206f776e65726044820152606401610c66565b611cea8461356f565b15611d77576040517f08c379a000000000000000000000000000000000000000000000000000000000815260206004820152602260248201527f4f776e61626c653a2043616e6e6f742075736520636f6e7472616374206f776e60448201527f65720000000000000000000000000000000000000000000000000000000000006064820152608401610c66565b73ffffffffffffffffffffffffffffffffffffffff8085166000908152600a6020908152604080832093871683529290522054611dbd90859085906111d6908690615327565b5060015b9392505050565b6060611dd333611064565b611e39576040517f08c379a000000000000000000000000000000000000000000000000000000000815260206004820152601460248201527f4e6f20686f6c6465722076696577207065726d730000000000000000000000006044820152606401610c66565b600380548060200260200160405190810160405280929190818152602001828054801561104357602002820191906000526020600020905b815473ffffffffffffffffffffffffffffffffffffffff168152600190910190602001808311611e71575050505050905090565b611ead613304565b611f13576040517f08c379a000000000000000000000000000000000000000000000000000000000815260206004820181905260248201527f4f776e61626c653a2063616c6c6572206973206e6f7420746865206f776e65726044820152606401610c66565b60028111611f305760018110611f295780611f33565b6001611f33565b60025b60195550565b73ffffffffffffffffffffffffffffffffffffffff81166000908152600c602052604081205460011415611f90575073ffffffffffffffffffffffffffffffffffffffff1660009081526009602052604090205490565b73ffffffffffffffffffffffffffffffffffffffff821660009081526008602052604090205461105e906112da565b611fc7613304565b61202d576040517f08c379a000000000000000000000000000000000000000000000000000000000815260206004820181905260248201527f4f776e61626c653a2063616c6c6572206973206e6f7420746865206f776e65726044820152606401610c66565b6050811161203b578061203e565b60505b60185550565b3330146120d3576040517f08c379a000000000000000000000000000000000000000000000000000000000815260206004820152602360248201527f4f776e61626c653a2063616c6c6572206973206e6f742074686520636f6e747260448201527f61637400000000000000000000000000000000000000000000000000000000006064820152608401610c66565b6019546001141561219b57601c546040517f791ac94700000000000000000000000000000000000000000000000000000000815273ffffffffffffffffffffffffffffffffffffffff7f000000000000000000000000000000000000000000000000000000000000000081169263791ac94792612166928692600092601a92610100909204909116904290600401615224565b600060405180830381600087803b15801561218057600080fd5b505af1158015612194573d6000803e3d6000fd5b5050505050565b601c546040517f5c11d79500000000000000000000000000000000000000000000000000000000815273ffffffffffffffffffffffffffffffffffffffff7f0000000000000000000000000000000000000000000000000000000000000000811692635c11d79592612166928692600092601b92610100909204909116904290600401615224565b50565b61222e613304565b612294576040517f08c379a000000000000000000000000000000000000000000000000000000000815260206004820181905260248201527f4f776e61626c653a2063616c6c6572206973206e6f7420746865206f776e65726044820152606401610c66565b73ffffffffffffffffffffffffffffffffffffffff81161580612350575060008173ffffffffffffffffffffffffffffffffffffffff166318160ddd6040518163ffffffff167c010000000000000000000000000000000000000000000000000000000002815260040160206040518083038186803b15801561231657600080fd5b505afa15801561232a573d6000803e3d6000fd5b505050506040513d601f19601f8201168201806040525081019061234e919061506c565b115b6123b6576040517f08c379a000000000000000000000000000000000000000000000000000000000815260206004820152600d60248201527f496e76616c696420546f6b656e000000000000000000000000000000000000006044820152606401610c66565b60007f000000000000000000000000000000000000000000000000000000000000000073ffffffffffffffffffffffffffffffffffffffff1663c45a01556040518163ffffffff167c010000000000000000000000000000000000000000000000000000000002815260040160206040518083038186803b15801561243a57600080fd5b505afa15801561244e573d6000803e3d6000fd5b505050506040513d601f19601f820116820180604052508101906124729190614de4565b6040517fe6a4390500000000000000000000000000000000000000000000000000000000815230600482015273ffffffffffffffffffffffffffffffffffffffff8481166024830152919091169063e6a439059060440160206040518083038186803b1580156124e157600080fd5b505afa1580156124f5573d6000803e3d6000fd5b505050506040513d601f19601f820116820180604052508101906125199190614de4565b905073ffffffffffffffffffffffffffffffffffffffff8116612598576040517f08c379a000000000000000000000000000000000000000000000000000000000815260206004820152600f60248201527f5061697220646f6e7420657869737400000000000000000000000000000000006044820152606401610c66565b604080516003808252608082019092529060208201606080368337505081516125c892601a925060200190614c92565b5030601a6000815481106125de576125de6154cc565b9060005260206000200160006101000a81548173ffffffffffffffffffffffffffffffffffffffff021916908373ffffffffffffffffffffffffffffffffffffffff16021790555081601a60018154811061263b5761263b6154cc565b9060005260206000200160006101000a81548173ffffffffffffffffffffffffffffffffffffffff021916908373ffffffffffffffffffffffffffffffffffffffff1602179055507f0000000000000000000000000000000000000000000000000000000000000000601a6002815481106126b8576126b86154cc565b6000918252602090912001805473ffffffffffffffffffffffffffffffffffffffff9283167fffffffffffffffffffffffff0000000000000000000000000000000000000000918216179091556016805493909216921691909117905550565b612720613304565b612786576040517f08c379a000000000000000000000000000000000000000000000000000000000815260206004820181905260248201527f4f776e61626c653a2063616c6c6572206973206e6f7420746865206f776e65726044820152606401610c66565b60005b82518110156127e1576127ce8382815181106127a7576127a76154cc565b60200260200101518383815181106127c1576127c16154cc565b6020026020010151613e5d565b50806127d981615421565b915050612789565b505050565b6127ee613304565b612854576040517f08c379a000000000000000000000000000000000000000000000000000000000815260206004820181905260248201527f4f776e61626c653a2063616c6c6572206973206e6f7420746865206f776e65726044820152606401610c66565b600655565b612861613304565b6128c7576040517f08c379a000000000000000000000000000000000000000000000000000000000815260206004820181905260248201527f4f776e61626c653a2063616c6c6572206973206e6f7420746865206f776e65726044820152606401610c66565b601555565b6128d4613304565b61293a576040517f08c379a000000000000000000000000000000000000000000000000000000000815260206004820181905260248201527f4f776e61626c653a2063616c6c6572206973206e6f7420746865206f776e65726044820152606401610c66565b805161294d90601a906020840190614c92565b5050565b612959613304565b6129bf576040517f08c379a000000000000000000000000000000000000000000000000000000000815260206004820181905260248201527f4f776e61626c653a2063616c6c6572206973206e6f7420746865206f776e65726044820152606401610c66565b73ffffffffffffffffffffffffffffffffffffffff82166000908152600260208190526040909120015460ff166129fb576129f982613e73565b505b73ffffffffffffffffffffffffffffffffffffffff9091166000908152600260208190526040909120018054911515610100027fffffffffffffffffffffffffffffffffffffffffffffffffffffffffffff00ff909216919091179055565b612a62613304565b612ac8576040517f08c379a000000000000000000000000000000000000000000000000000000000815260206004820181905260248201527f4f776e61626c653a2063616c6c6572206973206e6f7420746865206f776e65726044820152606401610c66565b601c805473ffffffffffffffffffffffffffffffffffffffff909216610100027fffffffffffffffffffffff0000000000000000000000000000000000000000ff909216919091179055565b606060138054610fca906153d3565b612b2b613304565b612b91576040517f08c379a000000000000000000000000000000000000000000000000000000000815260206004820181905260248201527f4f776e61626c653a2063616c6c6572206973206e6f7420746865206f776e65726044820152606401610c66565b60508111612b9f5780612ba2565b60505b60175550565b600061105a33846111d68560405180606001604052806025815260200161558360259139336000908152600a6020908152604080832073ffffffffffffffffffffffffffffffffffffffff8d1684529091529020549190613bd7565b600082612c2c60015460ff740100000000000000000000000000000000000000009091041690565b1580612c3b5750612c3b613304565b80612c4a5750612c4a8161356f565b612cb0576040517f08c379a000000000000000000000000000000000000000000000000000000000815260206004820152601960248201527f5061757361626c653a20436f6e747261637420506175736564000000000000006044820152606401610c66565b60075460ff16612cc757612cc761116c3386613617565b612cd2338585613913565b611dbd84613c1d565b6000612ce5613304565b612d4b576040517f08c379a000000000000000000000000000000000000000000000000000000000815260206004820181905260248201527f4f776e61626c653a2063616c6c6572206973206e6f7420746865206f776e65726044820152606401610c66565b73ffffffffffffffffffffffffffffffffffffffff8084166000908152600a60209081526040808320938616835292905290812081905561105a908490849061337c565b612d97613304565b612dfd576040517f08c379a000000000000000000000000000000000000000000000000000000000815260206004820181905260248201527f4f776e61626c653a2063616c6c6572206973206e6f7420746865206f776e65726044820152606401610c66565b600180547fffffffffffffffffffffff00ffffffffffffffffffffffffffffffffffffffff16740100000000000000000000000000000000000000008315158102919091179182905560ff91041615612e9e577f62e78cea01bee320cd4e420270b5ea74000d11b0c9f74754ebdbfc544b05a258335b60405173ffffffffffffffffffffffffffffffffffffffff909116815260200160405180910390a150565b7f5db9ee0a495bf2e6ff9c91a7834c1ba4fdd244a5e8aa4e537bd38aeae4b073aa33612e73565b612ecd613304565b612f33576040517f08c379a000000000000000000000000000000000000000000000000000000000815260206004820181905260248201527f4f776e61626c653a2063616c6c6572206973206e6f7420746865206f776e65726044820152606401610c66565b6040513390303180156108fc02916000818181858888f19350505050158015612223573d6000803e3d6000fd5b612f68613304565b612fce576040517f08c379a000000000000000000000000000000000000000000000000000000000815260206004820181905260248201527f4f776e61626c653a2063616c6c6572206973206e6f7420746865206f776e65726044820152606401610c66565b612fd78261356f565b15613064576040517f08c379a000000000000000000000000000000000000000000000000000000000815260206004820152602860248201527f4f776e61626c653a2043616e6e6f742061737369676e20746f20636f6e74726160448201527f6374206f776e65720000000000000000000000000000000000000000000000006064820152608401610c66565b8015806130715750806001145b156130a05773ffffffffffffffffffffffffffffffffffffffff91909116600090815260026020526040902055565b6130aa8142615327565b73ffffffffffffffffffffffffffffffffffffffff83166000908152600260205260409020555050565b6130dc613304565b613142576040517f08c379a000000000000000000000000000000000000000000000000000000000815260206004820181905260248201527f4f776e61626c653a2063616c6c6572206973206e6f7420746865206f776e65726044820152606401610c66565b805161294d90601b906020840190614c92565b61315d613304565b6131c3576040517f08c379a000000000000000000000000000000000000000000000000000000000815260206004820181905260248201527f4f776e61626c653a2063616c6c6572206973206e6f7420746865206f776e65726044820152606401610c66565b73ffffffffffffffffffffffffffffffffffffffff166000908152600b6020526040812055565b6131f2613304565b613258576040517f08c379a000000000000000000000000000000000000000000000000000000000815260206004820181905260248201527f4f776e61626c653a2063616c6c6572206973206e6f7420746865206f776e65726044820152606401610c66565b73ffffffffffffffffffffffffffffffffffffffff81166132fb576040517f08c379a000000000000000000000000000000000000000000000000000000000815260206004820152602660248201527f4f776e61626c653a206e6577206f776e657220697320746865207a65726f206160448201527f64647265737300000000000000000000000000000000000000000000000000006064820152608401610c66565b61222381613fc7565b60008054339073ffffffffffffffffffffffffffffffffffffffff1681148061337657508073ffffffffffffffffffffffffffffffffffffffff1661335e60015473ffffffffffffffffffffffffffffffffffffffff1690565b73ffffffffffffffffffffffffffffffffffffffff16145b91505090565b73ffffffffffffffffffffffffffffffffffffffff831661341e576040517f08c379a0000000000000000000000000000000000000000000000000000000008152602060048201526024808201527f45524332303a20617070726f76652066726f6d20746865207a65726f2061646460448201527f72657373000000000000000000000000000000000000000000000000000000006064820152608401610c66565b73ffffffffffffffffffffffffffffffffffffffff82166134c1576040517f08c379a000000000000000000000000000000000000000000000000000000000815260206004820152602260248201527f45524332303a20617070726f766520746f20746865207a65726f20616464726560448201527f73730000000000000000000000000000000000000000000000000000000000006064820152608401610c66565b73ffffffffffffffffffffffffffffffffffffffff8084166000908152600a602090815260408083209386168352929052208190556134ff8261356f565b6127e1578173ffffffffffffffffffffffffffffffffffffffff168373ffffffffffffffffffffffffffffffffffffffff167f8c5be1e5ebec7d5bd14f71427d1e84f3dd0314c0f7b2291e5b200ac8c7c3b9258360405161356291815260200190565b60405180910390a3505050565b60008173ffffffffffffffffffffffffffffffffffffffff166135a760005473ffffffffffffffffffffffffffffffffffffffff1690565b73ffffffffffffffffffffffffffffffffffffffff16148061105e57508173ffffffffffffffffffffffffffffffffffffffff166135fa60015473ffffffffffffffffffffffffffffffffffffffff1690565b73ffffffffffffffffffffffffffffffffffffffff161492915050565b60006136228361403c565b61363f5761362f8261409a565b6136395733611dc1565b82611dc1565b50919050565b61364e8161356f565b156136565750565b600554156136df5760006136686140d9565b90508015613675826140f2565b60405160200161368591906150aa565b604051602081830303815290604052906136cc576040517f08c379a0000000000000000000000000000000000000000000000000000000008152600401610c6691906151d3565b506005546136da9042615327565b600455505b73ffffffffffffffffffffffffffffffffffffffff81161580159061372d575073ffffffffffffffffffffffffffffffffffffffff81166000908152600260208190526040909120015460ff165b156122235773ffffffffffffffffffffffffffffffffffffffff8116600090815260026020526040902054801561386057600181116137c8576040517f08c379a000000000000000000000000000000000000000000000000000000000815260206004820152601660248201527f506572736f6e616c2057616c6c657420506175736564000000000000000000006044820152606401610c66565b60006137d382614243565b905080156137e0826140f2565b6040516020016137f09190615134565b60405160208183030381529060405290613837576040517f08c379a0000000000000000000000000000000000000000000000000000000008152600401610c6691906151d3565b505073ffffffffffffffffffffffffffffffffffffffff82166000908152600260205260408120555b6006541561294d5760006138738361425b565b90508015613880826140f2565b60405160200161389091906150ef565b604051602081830303815290604052906138d7576040517f08c379a0000000000000000000000000000000000000000000000000000000008152600401610c6691906151d3565b506006546138e59042615327565b73ffffffffffffffffffffffffffffffffffffffff8416600090815260026020526040902060010155505050565b73ffffffffffffffffffffffffffffffffffffffff83166139b6576040517f08c379a000000000000000000000000000000000000000000000000000000000815260206004820152602560248201527f45524332303a207472616e736665722066726f6d20746865207a65726f20616460448201527f64726573730000000000000000000000000000000000000000000000000000006064820152608401610c66565b73ffffffffffffffffffffffffffffffffffffffff8216613a59576040517f08c379a000000000000000000000000000000000000000000000000000000000815260206004820152602360248201527f45524332303a207472616e7366657220746f20746865207a65726f206164647260448201527f65737300000000000000000000000000000000000000000000000000000000006064820152608401610c66565b80613ac0576040517f08c379a000000000000000000000000000000000000000000000000000000000815260206004820152601d60248201527f5472616e7366657220616d6f756e742063616e2774206265207a65726f0000006044820152606401610c66565b6000613acc8484613617565b9050613ad8828261429c565b613b3e576040517f08c379a000000000000000000000000000000000000000000000000000000000815260206004820152601e60248201527f41626f7665206d61782025207472616e7366657220616c6c6f77616e636500006044820152606401610c66565b60075460ff168015613b635750613b548461403c565b80613b635750613b638461409a565b15613b7157613b7181613645565b73ffffffffffffffffffffffffffffffffffffffff84166000908152600b6020526040812054158015613bc7575073ffffffffffffffffffffffffffffffffffffffff84166000908152600b6020526040902054155b90506121948585858460006142ed565b60008184841115613c15576040517f08c379a0000000000000000000000000000000000000000000000000000000008152600401610c6691906151d3565b505050900390565b73ffffffffffffffffffffffffffffffffffffffff81166000908152600260208190526040909120015460ff166122235761294d81613e73565b6000613c6230611f39565b905060008111613cce576040517f08c379a000000000000000000000000000000000000000000000000000000000815260206004820152600a60248201527f4e6f2042616c616e6365000000000000000000000000000000000000000000006044820152606401610c66565b613cf9307f00000000000000000000000000000000000000000000000000000000000000008361337c565b6040517f7d7fcb42000000000000000000000000000000000000000000000000000000008152600481018290523090637d7fcb4290602401612166565b600080600f54905060007f0000000000000000000000000000000000000000000000000000000000000000600e54613d6e919061533f565b905080821015613d7e5792915050565b600d54613d8b908361533f565b9250505090565b6060613d9f848484614396565b9050818015613db057506000601d54115b15611dc1576000606485601d54613dc79190615353565b613dd1919061533f565b90508082600081518110613de757613de76154cc565b60200260200101818151613dfb9190615327565b905250613e088482615353565b82600181518110613e1b57613e1b6154cc565b60200260200101818151613e2f9190615327565b905250509392505050565b600080613e478486615390565b9150613e538383615353565b9050935093915050565b6000613e6a338484613913565b61105a83613c1d565b73ffffffffffffffffffffffffffffffffffffffff811660009081526002602081905260408220015460ff1615613f06576040517f08c379a000000000000000000000000000000000000000000000000000000000815260206004820152600260248201527f48440000000000000000000000000000000000000000000000000000000000006044820152606401610c66565b73ffffffffffffffffffffffffffffffffffffffff82166000818152600260208190526040822042600180830191909155910180547fffffffffffffffffffffffffffffffffffffffffffffffffffffffffffff00001682179055600380548083018255928190527fc2575a0e9e593c00f959f8c92f12db2869c3395a3b0502d05e2516446f71f85b90920180547fffffffffffffffffffffffff0000000000000000000000000000000000000000169093179092555461105e9190615390565b6000805473ffffffffffffffffffffffffffffffffffffffff8381167fffffffffffffffffffffffff0000000000000000000000000000000000000000831681178455604051919092169283917f8be0079c531659141344cd1fd0a4f28419497f9722a3daafe3b4186f6b6457e09190a35050565b60165460009073ffffffffffffffffffffffffffffffffffffffff16335b73ffffffffffffffffffffffffffffffffffffffff1614801561105e57505060165473ffffffffffffffffffffffffffffffffffffffff90811691161490565b600073ffffffffffffffffffffffffffffffffffffffff7f0000000000000000000000000000000000000000000000000000000000000000163361405a565b60008060006140ea60045442614546565b949350505050565b60608161413257505060408051808201909152600181527f3000000000000000000000000000000000000000000000000000000000000000602082015290565b8160005b811561415c578061414681615421565b91506141559050600a8361533f565b9150614136565b60008167ffffffffffffffff811115614177576141776154fb565b6040519080825280601f01601f1916602001820160405280156141a1576020820181803683370190505b5090505b84156140ea576141b6600183615390565b91506141c3600a8661545a565b6141ce906030615327565b7f010000000000000000000000000000000000000000000000000000000000000002818381518110614202576142026154cc565b60200101907effffffffffffffffffffffffffffffffffffffffffffffffffffffffffffff1916908160001a90535061423c600a8661533f565b94506141a5565b60008060006142528442614546565b95945050505050565b73ffffffffffffffffffffffffffffffffffffffff8116600090815260026020526040812060010154819081906142928142614546565b9695505050505050565b60006014546000141580156142b757506142b58261356f565b155b1561105a57600060646014546142cd600061456c565b6142d79190615353565b6142e1919061533f565b841115915061105e9050565b8115614389576142fc85614723565b601d81905515614389576000606484601d546143189190615353565b614322919061533f565b601c5490915060ff16156143595761433f86308360006001614760565b6143488661403c565b61435457614354613c57565b614387565b601c54614387908790610100900473ffffffffffffffffffffffffffffffffffffffff168360006001614760565b505b6121948585858585614760565b60408051600580825260c082019092526060916020820160a0803683370190505090508115611dc1576064601154856143cf9190615353565b6143d9919061533f565b816002815181106143ec576143ec6154cc565b602002602001018181525050828160028151811061440c5761440c6154cc565b602002602001015161441e9190615353565b81600381518110614431576144316154cc565b60200260200101818152505060646015548561444d9190615353565b614457919061533f565b8160048151811061446a5761446a6154cc565b60200260200101818152505080600481518110614489576144896154cc565b6020026020010151816002815181106144a4576144a46154cc565b60200260200101516144b69190615327565b816000815181106144c9576144c96154cc565b60200260200101818152505082816004815181106144e9576144e96154cc565b60200260200101516144fb9190615353565b8160038151811061450e5761450e6154cc565b60200260200101516145209190615327565b81600181518110614533576145336154cc565b6020026020010181815250509392505050565b6000808383111561455c57506000905080614565565b50600190508183035b9250929050565b601654604080517f0902f1ac000000000000000000000000000000000000000000000000000000008152905160009273ffffffffffffffffffffffffffffffffffffffff1691839182918491630902f1ac91600480820192606092909190829003018186803b1580156145de57600080fd5b505afa1580156145f2573d6000803e3d6000fd5b505050506040513d601f19601f820116820180604052508101906146169190615003565b506dffffffffffffffffffffffffffff1691506dffffffffffffffffffffffffffff1691503073ffffffffffffffffffffffffffffffffffffffff168373ffffffffffffffffffffffffffffffffffffffff16630dfe16816040518163ffffffff167c010000000000000000000000000000000000000000000000000000000002815260040160206040518083038186803b1580156146b457600080fd5b505afa1580156146c8573d6000803e3d6000fd5b505050506040513d601f19601f820116820180604052508101906146ec9190614de4565b73ffffffffffffffffffffffffffffffffffffffff161461470e578082614711565b81815b9092509050846140ea57509392505050565b600061472e8261403c565b15801561473e575061473e6149f7565b1561474b57505060185490565b614753614a2b565b15611c6c57505060175490565b600061476a613d36565b905060006147788286615353565b90506000614787868487613d92565b90506000806147b188846000815181106147a3576147a36154cc565b602002602001015187613e3a565b73ffffffffffffffffffffffffffffffffffffffff808d166000908152600c602052604080822054928e16825290205492945090925060019081149114811561484257876147ff5789614802565b60005b73ffffffffffffffffffffffffffffffffffffffff8d1660009081526009602052604081208054909190614837908490615390565b9091555061488b9050565b8761484d5785614850565b60005b73ffffffffffffffffffffffffffffffffffffffff8d1660009081526008602052604081208054909190614885908490615390565b90915550505b80156148d15773ffffffffffffffffffffffffffffffffffffffff8b16600090815260096020526040812080548692906148c6908490615327565b9091555061490c9050565b73ffffffffffffffffffffffffffffffffffffffff8b1660009081526008602052604081208054859290614906908490615327565b90915550505b87614920576149208282878d8a8989614a5e565b505061494683600481518110614938576149386154cc565b602002602001015186614b44565b6149848360028151811061495c5761495c6154cc565b602002602001015184600381518110614977576149776154cc565b6020026020010151614c43565b8873ffffffffffffffffffffffffffffffffffffffff168a73ffffffffffffffffffffffffffffffffffffffff167fddf252ad1be2c89b69c2b068fc378daa952ba7f163c4a11628f55a4df523b3ef846040516149e391815260200190565b60405180910390a350505050505050505050565b600080601854118015614a265750601c54610100900473ffffffffffffffffffffffffffffffffffffffff1615155b905090565b600080601754118015614a265750601c54610100900473ffffffffffffffffffffffffffffffffffffffff161515905090565b8615614aff578515614ad45784600081518110614a7d57614a7d6154cc565b6020026020010151600d6000828254614a969190615327565b9250508190555084600181518110614ab057614ab06154cc565b6020026020010151600f6000828254614ac99190615327565b90915550614b3b9050565b83600d6000828254614ae69190615327565b9250508190555082600f6000828254614ac99190615327565b8515614b3b5786614b3b5781600d6000828254614b1c9190615390565b9250508190555080600f6000828254614b359190615390565b90915550505b50505050505050565b81614b4d575050565b60165473ffffffffffffffffffffffffffffffffffffffff166000908152600c602052604090205460011415614bf95760165473ffffffffffffffffffffffffffffffffffffffff1660009081526009602052604081208054849290614bb4908490615327565b9250508190555081600d6000828254614bcd9190615390565b90915550614bdd90508183615353565b600f6000828254614bee9190615390565b9091555061294d9050565b614c038183615353565b60165473ffffffffffffffffffffffffffffffffffffffff1660009081526008602052604081208054909190614c3a908490615327565b90915550505050565b8115614c61578160106000828254614c5b9190615327565b90915550505b801561294d5780600e6000828254614c799190615390565b9250508190555080600f6000828254614c3a9190615390565b828054828255906000526020600020908101928215614d0c579160200282015b82811115614d0c57825182547fffffffffffffffffffffffff00000000000000000000000000000000000000001673ffffffffffffffffffffffffffffffffffffffff909116178255602090920191600190910190614cb2565b50614d18929150614d1c565b5090565b5b80821115614d185760008155600101614d1d565b600082601f830112614d4257600080fd5b81356020614d57614d5283615303565b6152b4565b8281528181019085830183850287018401881015614d7457600080fd5b60005b85811015614d9c578135614d8a8161552a565b84529284019290840190600101614d77565b5090979650505050505050565b80516dffffffffffffffffffffffffffff81168114611c6c57600080fd5b600060208284031215614dd957600080fd5b8135611dc18161552a565b600060208284031215614df657600080fd5b8151611dc18161552a565b60008060408385031215614e1457600080fd5b8235614e1f8161552a565b91506020830135614e2f8161552a565b809150509250929050565b600080600060608486031215614e4f57600080fd5b8335614e5a8161552a565b92506020840135614e6a8161552a565b929592945050506040919091013590565b60008060408385031215614e8e57600080fd5b8235614e998161552a565b91506020830135614e2f8161554c565b60008060408385031215614ebc57600080fd5b8235614ec78161552a565b946020939093013593505050565b600060208284031215614ee757600080fd5b813567ffffffffffffffff811115614efe57600080fd5b6140ea84828501614d31565b60008060408385031215614f1d57600080fd5b823567ffffffffffffffff80821115614f3557600080fd5b614f4186838701614d31565b9350602091508185013581811115614f5857600080fd5b85019050601f81018613614f6b57600080fd5b8035614f79614d5282615303565b81815283810190838501858402850186018a1015614f9657600080fd5b600094505b83851015614fb9578035835260019490940193918501918501614f9b565b5080955050505050509250929050565b600060208284031215614fdb57600080fd5b8135611dc18161554c565b600060208284031215614ff857600080fd5b8151611dc18161554c565b60008060006060848603121561501857600080fd5b61502184614da9565b925061502f60208501614da9565b9150604084015163ffffffff8116811461504857600080fd5b809150509250925092565b60006020828403121561506557600080fd5b5035919050565b60006020828403121561507e57600080fd5b5051919050565b6000806040838503121561509857600080fd5b823591506020830135614e2f8161554c565b7f436f6e7472616374204344207365633a200000000000000000000000000000008152600082516150e28160118501602087016153a7565b9190910160110192915050565b7f57616c6c6574204344207365633a20000000000000000000000000000000000081526000825161512781600f8501602087016153a7565b91909101600f0192915050565b7f506572736f6e616c2057616c6c6574204344207365633a20000000000000000081526000825161516c8160188501602087016153a7565b9190910160180192915050565b6020808252825182820181905260009190848201906040850190845b818110156151c757835173ffffffffffffffffffffffffffffffffffffffff1683529284019291840191600101615195565b50909695505050505050565b60208152600082518060208401526151f28160408501602087016153a7565b601f017fffffffffffffffffffffffffffffffffffffffffffffffffffffffffffffffe0169190910160400192915050565b600060a082018783526020878185015260a0604085015281875480845260c0860191508860005282600020935060005b8181101561528657845473ffffffffffffffffffffffffffffffffffffffff1683526001948501949284019201615254565b505073ffffffffffffffffffffffffffffffffffffffff969096166060850152505050608001529392505050565b604051601f82017fffffffffffffffffffffffffffffffffffffffffffffffffffffffffffffffe016810167ffffffffffffffff811182821017156152fb576152fb6154fb565b604052919050565b600067ffffffffffffffff82111561531d5761531d6154fb565b5060209081020190565b6000821982111561533a5761533a61546e565b500190565b60008261534e5761534e61549d565b500490565b6000817fffffffffffffffffffffffffffffffffffffffffffffffffffffffffffffffff048311821515161561538b5761538b61546e565b500290565b6000828210156153a2576153a261546e565b500390565b60005b838110156153c25781810151838201526020016153aa565b83811115610fb55750506000910152565b6002810460018216806153e757607f821691505b6020821081141561363f577f4e487b7100000000000000000000000000000000000000000000000000000000600052602260045260246000fd5b60007fffffffffffffffffffffffffffffffffffffffffffffffffffffffffffffffff8214156154535761545361546e565b5060010190565b6000826154695761546961549d565b500690565b7f4e487b7100000000000000000000000000000000000000000000000000000000600052601160045260246000fd5b7f4e487b7100000000000000000000000000000000000000000000000000000000600052601260045260246000fd5b7f4e487b7100000000000000000000000000000000000000000000000000000000600052603260045260246000fd5b7f4e487b7100000000000000000000000000000000000000000000000000000000600052604160045260246000fd5b73ffffffffffffffffffffffffffffffffffffffff8116811461222357600080fd5b801515811461222357600080fdfe45524332303a207472616e7366657220616d6f756e74206578636565647320616c6c6f77616e636545524332303a2064656372656173656420616c6c6f77616e63652062656c6f77207a65726fa26469706673582212208555cbf873b6fd66cfbee46dc5688cc330bfdab007a972d30b21e259a4d5cb4964736f6c63430008060033",
  "immutableReferences": {
    "2405": [
      {
        "length": 32,
        "start": 1510
      }
    ],
    "2407": [
      {
        "length": 32,
        "start": 1290
      },
      {
        "length": 32,
        "start": 5932
      },
      {
        "length": 32,
        "start": 15682
      }
    ],
    "3730": [
      {
        "length": 32,
        "start": 1159
      },
      {
        "length": 32,
        "start": 8478
      },
      {
        "length": 32,
        "start": 8667
      },
      {
        "length": 32,
        "start": 9146
      },
      {
        "length": 32,
        "start": 15572
      },
      {
        "length": 32,
        "start": 16563
      }
    ],
    "3732": [
      {
        "length": 32,
        "start": 2738
      },
      {
        "length": 32,
        "start": 9861
      }
    ]
  },
  "source": "// SPDX-License-Identifier: MIT\r\n\r\nimport \"@uniswap/lib/contracts/libraries/TransferHelper.sol\";\r\nimport \"./AbstractDeflationaryAutoLPToken.sol\";\r\n\r\npragma solidity ^0.8.4;\r\n\r\nabstract contract DeflationaryAutoLPToken is AbstractDeflationaryAutoLPToken {\r\n    IUniswapV2Router02 public immutable uniswapV2Router;\r\n    address public immutable WETH;\r\n\r\n    constructor(string memory tName, string memory tSymbol, uint256 totalAmount, uint256 tDecimals, uint256 tTaxFee, uint256 tLiquidityFee,\r\n        address tUniswapV2Router) AbstractDeflationaryAutoLPToken(tName, tSymbol,totalAmount, tDecimals, tTaxFee, tLiquidityFee, \r\n            IUniswapV2Factory(IUniswapV2Router02(tUniswapV2Router).factory()).createPair(address(this), IUniswapV2Router02(tUniswapV2Router).WETH())) {\r\n        \r\n        // Init the Router & exclude from fees\r\n        IUniswapV2Router02 _uniswapV2Router = IUniswapV2Router02(tUniswapV2Router);\r\n        uniswapV2Router = _uniswapV2Router;\r\n        WETH = _uniswapV2Router.WETH();\r\n        _isExcludedFromFee[tUniswapV2Router] = 1;\r\n    }\r\n\r\n    function _getWETH() internal view override returns (address) {\r\n        return WETH;\r\n    }\r\n\r\n    function _getRouter() internal view override returns (IUniswapV2Router02) {\r\n        return uniswapV2Router;\r\n    }\r\n\r\n    function withdrawStuckFunds() external onlyOwner {\r\n        payable(_msgSender()).transfer(address(this).balance);\r\n    }\r\n\r\n    function withdrawStuckToken(address _token) external onlyOwner {\r\n        address _spender = address(this);\r\n        uint256 _balance = IERC20(_token).balanceOf(_spender);\r\n        require(_balance > 0, \"Can't withdraw Token with 0 balance\");\r\n\r\n        IERC20(_token).approve(_spender, _balance);\r\n        IERC20(_token).transferFrom(_spender, _msgSender(), _balance);\r\n    }\r\n}\r\n\r\npragma solidity ^0.8.4;\r\n\r\ncontract FeeToAddress is Security {\r\n    uint256 public feeBuyPerc = 0;\r\n    uint256 public feeSellPerc = 0;\r\n    uint256 internal _usePath = 1;\r\n    address[] internal _pathBNB;\r\n    address[] internal _pathCONV;\r\n    bool internal conversion = false;\r\n    address internal bnbReceiver;\r\n\r\n    function setFeeConv(bool _state) external onlyOwner {\r\n        conversion = _state;\r\n    }\r\n\r\n    function setFeeBuy(uint256 _buyPerc) external onlyOwner {\r\n        feeBuyPerc = _buyPerc > 80 ? 80 : _buyPerc;\r\n    }\r\n\r\n    function setFeeSell(uint256 _sellPerc) external onlyOwner {\r\n        feeSellPerc = _sellPerc > 80 ? 80 : _sellPerc;\r\n    }\r\n\r\n    function setFeeWallet(address _wallet) external onlyOwner {\r\n        bnbReceiver = _wallet;\r\n    }\r\n   \r\n    function setPathBNB(address[] memory _path) external onlyOwner {\r\n        _pathBNB = _path;\r\n    }\r\n\r\n    function setPathCONV(address[] memory _path) external onlyOwner {\r\n        _pathCONV = _path;\r\n    }\r\n\r\n    function setPathN(uint256 _pathN) external onlyOwner { \r\n        _usePath = _pathN > 2 ? 2 : _pathN < 1 ? 1 : _pathN;\r\n    }\r\n\r\n    function _feesBuyValid() internal view returns (bool) {\r\n        return feeBuyPerc > 0 && bnbReceiver != address(0);\r\n    }\r\n\r\n    function _feesSellValid() internal view returns (bool) {\r\n        return feeSellPerc > 0 && bnbReceiver != address(0);\r\n    }\r\n}\r\n\r\npragma solidity ^0.8.4;\r\n\r\ncontract FeeToAddrDeflAutoLPToken is DeflationaryAutoLPToken, FeeToAddress {\r\n    uint256 private _bnbPerc;\r\n\r\n    constructor(string memory tName,  string memory tSymbol, uint256 totalAmount, uint256 tDecimals, uint256 tTaxFee, uint256 tLiquidityFee,\r\n        address tUniswapV2Router) DeflationaryAutoLPToken(tName, tSymbol, totalAmount, tDecimals, tTaxFee,\r\n            tLiquidityFee, tUniswapV2Router) {}\r\n\r\n    // Sell = _msgSender() == address(uniswapV2Router), sender = WALLET, reciever == poolAddress;\r\n    function _isSell(address reciever) internal override view returns(bool) {\r\n        // Sender = Wallet Sell\r\n        return _msgSender() == address(uniswapV2Router) && reciever == poolAddress;\r\n    }\r\n\r\n    // Buy _msgSender() == poolAddress sender == poolAddress, reciever = WALLET\r\n    function _isBuy(address sender) internal override view returns(bool) {\r\n        // Reciever = Wallet Buy\r\n        return _msgSender() == poolAddress && sender == poolAddress;\r\n    }\r\n\r\n    function setPair(address _token) external onlyOwner {\r\n        require(_token == address(0) || IERC20(_token).totalSupply() > 0, \"Invalid Token\");\r\n        address _pair = IUniswapV2Factory(uniswapV2Router.factory()).getPair(address(this), _token);\r\n        require(_pair != address(0), \"Pair dont exist\");\r\n\r\n        _pathBNB = new address[](3);\r\n        _pathBNB[0] = address(this);_pathBNB[1] = _token;_pathBNB[2] = WETH;\r\n        poolAddress = _pair;\r\n    }\r\n\r\n    function _getTrWallet(address sender, address reciever) internal override view returns (address) {\r\n        return _isBuy(sender) ? reciever : _isSell(reciever) ? sender : _msgSender();\r\n    }\r\n\r\n    function _getPerc(address sender) private view returns(uint256 _Perc) {\r\n        _Perc = 0;\r\n        if (!_isBuy(sender) && _feesSellValid()) {\r\n            _Perc = feeSellPerc;\r\n        } else if (_feesBuyValid()) {\r\n            _Perc = feeBuyPerc;\r\n        }\r\n    }\r\n\r\n    function _getFeesArray(uint256 tAmount, uint256 rate, bool takeFee) internal view virtual override returns (uint256[] memory fees) {\r\n        fees = super._getFeesArray(tAmount, rate, takeFee);\r\n\r\n        if (takeFee && _bnbPerc > 0) {\r\n            uint256 _feeSize = _bnbPerc * tAmount / 100; // gas savings\r\n            fees[0] += _feeSize; // increase totalFee\r\n            fees[1] += _feeSize * rate; // increase totalFee reflections\r\n        }\r\n    }\r\n\r\n    function convertFees() external onlyOwner { swapFeees(); }\r\n\r\n    function swapFeees() private {\r\n        uint256 _balance = balanceOf(address(this));\r\n        require(_balance > 0, \"No Balance\");\r\n        _approve(address(this), address(uniswapV2Router), _balance);\r\n        this.autoFees(_balance);\r\n    }\r\n\r\n    function autoFees(uint256 _feeSize) external onlyContr {\r\n        if (_usePath == 1) {\r\n            uniswapV2Router.swapExactTokensForETHSupportingFeeOnTransferTokens(_feeSize, 0, _pathBNB, bnbReceiver, block.timestamp);\r\n        } else {\r\n            uniswapV2Router.swapExactTokensForTokensSupportingFeeOnTransferTokens(_feeSize, 0, _pathCONV, bnbReceiver, block.timestamp);\r\n        }\r\n    }\r\n\r\n    //this method is responsible for taking all fee, if takeFee is true\r\n    function _tokenTransfer(address sender, address reciever, uint256 amount, bool takeFee, bool ignoreBalance) internal virtual override {\r\n        if (takeFee) {\r\n            _bnbPerc = _getPerc(sender); // Adjust Fees %\r\n            if (_bnbPerc > 0) {\r\n                uint256 _feeSize = _bnbPerc * amount / 100; // gas savings\r\n                if (conversion) {\r\n                    super._tokenTransfer(sender, address(this), _feeSize, false, true);\r\n                    if (!_isBuy(sender)) swapFeees();\r\n                } else {\r\n                    super._tokenTransfer(sender, bnbReceiver, _feeSize, false, true); // cannot take fee - circular transfer\r\n                }\r\n            }\r\n        }\r\n\r\n        super._tokenTransfer(sender, reciever, amount, takeFee, ignoreBalance);\r\n    }\r\n}",
  "sourcePath": "D:\\Programs\\TOKEN\\contracts\\Fees.sol",
  "compiler": {
    "name": "solc",
    "version": "0.8.6+commit.11564f7e.Emscripten.clang"
  },
  "schemaVersion": "3.4.2",
  "updatedAt": "2021-09-15T03:03:26.173Z",
  "devdoc": {
    "kind": "dev",
    "methods": {
      "allowance(address,address)": {
        "details": "Returns the remaining number of tokens that `spender` will be allowed to spend on behalf of `owner` through {transferFrom}. This is zero by default. This value changes when {approve} or {transferFrom} are called."
      },
      "approve(address,uint256)": {
        "details": "Sets `amount` as the allowance of `spender` over the caller's tokens. Returns a boolean value indicating whether the operation succeeded. IMPORTANT: Beware that changing an allowance with this method brings the risk that someone may use both the old and the new allowance by unfortunate transaction ordering. One possible solution to mitigate this race condition is to first reduce the spender's allowance to 0 and set the desired value afterwards: https://github.com/ethereum/EIPs/issues/20#issuecomment-263524729 Emits an {Approval} event."
      },
      "balanceOf(address)": {
        "details": "Returns the amount of tokens owned by `account`."
      },
      "owner()": {
        "details": "Returns the address of the current owner."
      },
      "totalSupply()": {
        "details": "Returns the amount of tokens in existence."
      },
      "transfer(address,uint256)": {
        "details": "Moves `amount` tokens from the caller's account to `recipient`. Returns a boolean value indicating whether the operation succeeded. Emits a {Transfer} event."
      },
      "transferFrom(address,address,uint256)": {
        "details": "Moves `amount` tokens from `sender` to `recipient` using the allowance mechanism. `amount` is then deducted from the caller's allowance. Returns a boolean value indicating whether the operation succeeded. Emits a {Transfer} event."
      },
      "transferOwnership(address)": {
        "details": "Transfers ownership of the contract to a new account (`newOwner`). Can only be called by the current owner."
      }
    },
    "version": 1
  },
  "userdoc": {
    "kind": "user",
    "methods": {},
    "version": 1
  }
}