{
  "contractName": "FeeToAddress",
  "abi": [
    {
      "anonymous": false,
      "inputs": [
        {
          "indexed": true,
          "internalType": "address",
          "name": "previousOwner",
          "type": "address"
        },
        {
          "indexed": true,
          "internalType": "address",
          "name": "newOwner",
          "type": "address"
        }
      ],
      "name": "OwnershipTransferred",
      "type": "event"
    },
    {
      "inputs": [],
      "name": "feeBuyPerc",
      "outputs": [
        {
          "internalType": "uint256",
          "name": "",
          "type": "uint256"
        }
      ],
      "stateMutability": "view",
      "type": "function"
    },
    {
      "inputs": [],
      "name": "feeSellPerc",
      "outputs": [
        {
          "internalType": "uint256",
          "name": "",
          "type": "uint256"
        }
      ],
      "stateMutability": "view",
      "type": "function"
    },
    {
      "inputs": [],
      "name": "owner",
      "outputs": [
        {
          "internalType": "address",
          "name": "",
          "type": "address"
        }
      ],
      "stateMutability": "view",
      "type": "function"
    },
    {
      "inputs": [
        {
          "internalType": "address",
          "name": "newOwner",
          "type": "address"
        }
      ],
      "name": "transferOwnership",
      "outputs": [],
      "stateMutability": "nonpayable",
      "type": "function"
    },
    {
      "inputs": [
        {
          "internalType": "bool",
          "name": "_state",
          "type": "bool"
        }
      ],
      "name": "setFeeConv",
      "outputs": [],
      "stateMutability": "nonpayable",
      "type": "function"
    },
    {
      "inputs": [
        {
          "internalType": "uint256",
          "name": "_buyPerc",
          "type": "uint256"
        }
      ],
      "name": "setFeeBuy",
      "outputs": [],
      "stateMutability": "nonpayable",
      "type": "function"
    },
    {
      "inputs": [
        {
          "internalType": "uint256",
          "name": "_sellPerc",
          "type": "uint256"
        }
      ],
      "name": "setFeeSell",
      "outputs": [],
      "stateMutability": "nonpayable",
      "type": "function"
    },
    {
      "inputs": [
        {
          "internalType": "address",
          "name": "_wallet",
          "type": "address"
        }
      ],
      "name": "setFeeWallet",
      "outputs": [],
      "stateMutability": "nonpayable",
      "type": "function"
    },
    {
      "inputs": [
        {
          "internalType": "address[]",
          "name": "_path",
          "type": "address[]"
        }
      ],
      "name": "setPathBNB",
      "outputs": [],
      "stateMutability": "nonpayable",
      "type": "function"
    },
    {
      "inputs": [
        {
          "internalType": "address[]",
          "name": "_path",
          "type": "address[]"
        }
      ],
      "name": "setPathCONV",
      "outputs": [],
      "stateMutability": "nonpayable",
      "type": "function"
    },
    {
      "inputs": [
        {
          "internalType": "uint256",
          "name": "_pathN",
          "type": "uint256"
        }
      ],
      "name": "setPathN",
      "outputs": [],
      "stateMutability": "nonpayable",
      "type": "function"
    }
  ],
  "bytecode": "0x60806040526000600281905560035560016004556007805460ff1916905534801561002957600080fd5b5061004c61003e640100000000610082810204565b640100000000610086810204565b61005d640100000000610082810204565b60018054600160a060020a031916600160a060020a03929092169190911790556100d6565b3390565b60008054600160a060020a03838116600160a060020a0319831681178455604051919092169283917f8be0079c531659141344cd1fd0a4f28419497f9722a3daafe3b4186f6b6457e09190a35050565b610a51806100e56000396000f3fe608060405234801561001057600080fd5b50600436106100e6576000357c0100000000000000000000000000000000000000000000000000000000900480638da5cb5b1161009e57806396e074fc1161007857806396e074fc14610199578063e8c585e6146101ac578063f2fde38b146101bf57600080fd5b80638da5cb5b1461014b5780638f49cc161461017357806390d49b9d1461018657600080fd5b80634ac49ed2116100cf5780634ac49ed21461011c5780636c3aba4d146101255780637cec1c821461013857600080fd5b806303b19637146100eb57806334d365be14610100575b600080fd5b6100fe6100f93660046109b1565b6101d2565b005b61010960025481565b6040519081526020015b60405180910390f35b61010960035481565b6100fe6101333660046109d3565b610276565b6100fe6101463660046109d3565b61030a565b60005460405173ffffffffffffffffffffffffffffffffffffffff9091168152602001610113565b6100fe6101813660046108c8565b61038f565b6100fe6101943660046108a6565b610414565b6100fe6101a73660046109d3565b6104ce565b6100fe6101ba3660046108c8565b610553565b6100fe6101cd3660046108a6565b6105d4565b6101da6106f1565b610245576040517f08c379a000000000000000000000000000000000000000000000000000000000815260206004820181905260248201527f4f776e61626c653a2063616c6c6572206973206e6f7420746865206f776e657260448201526064015b60405180910390fd5b600780547fffffffffffffffffffffffffffffffffffffffffffffffffffffffffffffff0016911515919091179055565b61027e6106f1565b6102e4576040517f08c379a000000000000000000000000000000000000000000000000000000000815260206004820181905260248201527f4f776e61626c653a2063616c6c6572206973206e6f7420746865206f776e6572604482015260640161023c565b6002811161030157600181106102fa5780610304565b6001610304565b60025b60045550565b6103126106f1565b610378576040517f08c379a000000000000000000000000000000000000000000000000000000000815260206004820181905260248201527f4f776e61626c653a2063616c6c6572206973206e6f7420746865206f776e6572604482015260640161023c565b605081116103865780610389565b60505b60035550565b6103976106f1565b6103fd576040517f08c379a000000000000000000000000000000000000000000000000000000000815260206004820181905260248201527f4f776e61626c653a2063616c6c6572206973206e6f7420746865206f776e6572604482015260640161023c565b80516104109060059060208401906107de565b5050565b61041c6106f1565b610482576040517f08c379a000000000000000000000000000000000000000000000000000000000815260206004820181905260248201527f4f776e61626c653a2063616c6c6572206973206e6f7420746865206f776e6572604482015260640161023c565b6007805473ffffffffffffffffffffffffffffffffffffffff909216610100027fffffffffffffffffffffff0000000000000000000000000000000000000000ff909216919091179055565b6104d66106f1565b61053c576040517f08c379a000000000000000000000000000000000000000000000000000000000815260206004820181905260248201527f4f776e61626c653a2063616c6c6572206973206e6f7420746865206f776e6572604482015260640161023c565b6050811161054a578061054d565b60505b60025550565b61055b6106f1565b6105c1576040517f08c379a000000000000000000000000000000000000000000000000000000000815260206004820181905260248201527f4f776e61626c653a2063616c6c6572206973206e6f7420746865206f776e6572604482015260640161023c565b80516104109060069060208401906107de565b6105dc6106f1565b610642576040517f08c379a000000000000000000000000000000000000000000000000000000000815260206004820181905260248201527f4f776e61626c653a2063616c6c6572206973206e6f7420746865206f776e6572604482015260640161023c565b73ffffffffffffffffffffffffffffffffffffffff81166106e5576040517f08c379a000000000000000000000000000000000000000000000000000000000815260206004820152602660248201527f4f776e61626c653a206e6577206f776e657220697320746865207a65726f206160448201527f6464726573730000000000000000000000000000000000000000000000000000606482015260840161023c565b6106ee81610769565b50565b60008054339073ffffffffffffffffffffffffffffffffffffffff1681148061076357508073ffffffffffffffffffffffffffffffffffffffff1661074b60015473ffffffffffffffffffffffffffffffffffffffff1690565b73ffffffffffffffffffffffffffffffffffffffff16145b91505090565b6000805473ffffffffffffffffffffffffffffffffffffffff8381167fffffffffffffffffffffffff0000000000000000000000000000000000000000831681178455604051919092169283917f8be0079c531659141344cd1fd0a4f28419497f9722a3daafe3b4186f6b6457e09190a35050565b828054828255906000526020600020908101928215610858579160200282015b8281111561085857825182547fffffffffffffffffffffffff00000000000000000000000000000000000000001673ffffffffffffffffffffffffffffffffffffffff9091161782556020909201916001909101906107fe565b50610864929150610868565b5090565b5b808211156108645760008155600101610869565b803573ffffffffffffffffffffffffffffffffffffffff811681146108a157600080fd5b919050565b6000602082840312156108b857600080fd5b6108c18261087d565b9392505050565b600060208083850312156108db57600080fd5b823567ffffffffffffffff808211156108f357600080fd5b818501915085601f83011261090757600080fd5b813581811115610919576109196109ec565b8381026040517fffffffffffffffffffffffffffffffffffffffffffffffffffffffffffffffe0603f8301168101818110858211171561095b5761095b6109ec565b604052828152858101935084860182860187018a101561097a57600080fd5b600095505b838610156109a4576109908161087d565b85526001959095019493860193860161097f565b5098975050505050505050565b6000602082840312156109c357600080fd5b813580151581146108c157600080fd5b6000602082840312156109e557600080fd5b5035919050565b7f4e487b7100000000000000000000000000000000000000000000000000000000600052604160045260246000fdfea26469706673582212209f56b56b7f164aafd895108a4f3ba01b7d7f7d83578b4c05526314412c86dea464736f6c63430008060033",
  "immutableReferences": {},
  "source": "// SPDX-License-Identifier: MIT\r\n\r\nimport \"@uniswap/lib/contracts/libraries/TransferHelper.sol\";\r\nimport \"./AbstractDeflationaryAutoLPToken.sol\";\r\n\r\npragma solidity ^0.8.4;\r\n\r\nabstract contract DeflationaryAutoLPToken is AbstractDeflationaryAutoLPToken {\r\n    IUniswapV2Router02 public immutable uniswapV2Router;\r\n    address public immutable WETH;\r\n\r\n    constructor(string memory tName, string memory tSymbol, uint256 totalAmount, uint256 tDecimals, uint256 tTaxFee, uint256 tLiquidityFee,\r\n        address tUniswapV2Router) AbstractDeflationaryAutoLPToken(tName, tSymbol,totalAmount, tDecimals, tTaxFee, tLiquidityFee, \r\n            IUniswapV2Factory(IUniswapV2Router02(tUniswapV2Router).factory()).createPair(address(this), IUniswapV2Router02(tUniswapV2Router).WETH())) {\r\n        \r\n        // Init the Router & exclude from fees\r\n        IUniswapV2Router02 _uniswapV2Router = IUniswapV2Router02(tUniswapV2Router);\r\n        uniswapV2Router = _uniswapV2Router;\r\n        WETH = _uniswapV2Router.WETH();\r\n        _isExcludedFromFee[tUniswapV2Router] = 1;\r\n    }\r\n\r\n    function _getWETH() internal view override returns (address) {\r\n        return WETH;\r\n    }\r\n\r\n    function _getRouter() internal view override returns (IUniswapV2Router02) {\r\n        return uniswapV2Router;\r\n    }\r\n\r\n    function withdrawStuckFunds() external onlyOwner {\r\n        payable(_msgSender()).transfer(address(this).balance);\r\n    }\r\n\r\n    function withdrawStuckToken(address _token) external onlyOwner {\r\n        address _spender = address(this);\r\n        uint256 _balance = IERC20(_token).balanceOf(_spender);\r\n        require(_balance > 0, \"Can't withdraw Token with 0 balance\");\r\n\r\n        IERC20(_token).approve(_spender, _balance);\r\n        IERC20(_token).transferFrom(_spender, _msgSender(), _balance);\r\n    }\r\n}\r\n\r\npragma solidity ^0.8.4;\r\n\r\ncontract FeeToAddress is Security {\r\n    uint256 public feeBuyPerc = 0;\r\n    uint256 public feeSellPerc = 0;\r\n    uint256 internal _usePath = 1;\r\n    address[] internal _pathBNB;\r\n    address[] internal _pathCONV;\r\n    bool internal conversion = false;\r\n    address internal bnbReceiver;\r\n\r\n    function setFeeConv(bool _state) external onlyOwner {\r\n        conversion = _state;\r\n    }\r\n\r\n    function setFeeBuy(uint256 _buyPerc) external onlyOwner {\r\n        feeBuyPerc = _buyPerc > 80 ? 80 : _buyPerc;\r\n    }\r\n\r\n    function setFeeSell(uint256 _sellPerc) external onlyOwner {\r\n        feeSellPerc = _sellPerc > 80 ? 80 : _sellPerc;\r\n    }\r\n\r\n    function setFeeWallet(address _wallet) external onlyOwner {\r\n        bnbReceiver = _wallet;\r\n    }\r\n   \r\n    function setPathBNB(address[] memory _path) external onlyOwner {\r\n        _pathBNB = _path;\r\n    }\r\n\r\n    function setPathCONV(address[] memory _path) external onlyOwner {\r\n        _pathCONV = _path;\r\n    }\r\n\r\n    function setPathN(uint256 _pathN) external onlyOwner { \r\n        _usePath = _pathN > 2 ? 2 : _pathN < 1 ? 1 : _pathN;\r\n    }\r\n\r\n    function _feesBuyValid() internal view returns (bool) {\r\n        return feeBuyPerc > 0 && bnbReceiver != address(0);\r\n    }\r\n\r\n    function _feesSellValid() internal view returns (bool) {\r\n        return feeSellPerc > 0 && bnbReceiver != address(0);\r\n    }\r\n}\r\n\r\npragma solidity ^0.8.4;\r\n\r\ncontract FeeToAddrDeflAutoLPToken is DeflationaryAutoLPToken, FeeToAddress {\r\n    uint256 private _bnbPerc;\r\n\r\n    constructor(string memory tName,  string memory tSymbol, uint256 totalAmount, uint256 tDecimals, uint256 tTaxFee, uint256 tLiquidityFee,\r\n        address tUniswapV2Router) DeflationaryAutoLPToken(tName, tSymbol, totalAmount, tDecimals, tTaxFee,\r\n            tLiquidityFee, tUniswapV2Router) {}\r\n\r\n    // Sell = _msgSender() == address(uniswapV2Router), sender = WALLET, reciever == poolAddress;\r\n    function _isSell(address reciever) internal override view returns(bool) {\r\n        // Sender = Wallet Sell\r\n        return _msgSender() == address(uniswapV2Router) && reciever == poolAddress;\r\n    }\r\n\r\n    // Buy _msgSender() == poolAddress sender == poolAddress, reciever = WALLET\r\n    function _isBuy(address sender) internal override view returns(bool) {\r\n        // Reciever = Wallet Buy\r\n        return _msgSender() == poolAddress && sender == poolAddress;\r\n    }\r\n\r\n    function setPair(address _token) external onlyOwner {\r\n        require(_token == address(0) || IERC20(_token).totalSupply() > 0, \"Invalid Token\");\r\n        address _pair = IUniswapV2Factory(uniswapV2Router.factory()).getPair(address(this), _token);\r\n        require(_pair != address(0), \"Pair dont exist\");\r\n\r\n        _pathBNB = new address[](3);\r\n        _pathBNB[0] = address(this);_pathBNB[1] = _token;_pathBNB[2] = WETH;\r\n        poolAddress = _pair;\r\n    }\r\n\r\n    function _getTrWallet(address sender, address reciever) internal override view returns (address) {\r\n        return _isBuy(sender) ? reciever : _isSell(reciever) ? sender : _msgSender();\r\n    }\r\n\r\n    function _getPerc(address sender) private view returns(uint256 _Perc) {\r\n        _Perc = 0;\r\n        if (!_isBuy(sender) && _feesSellValid()) {\r\n            _Perc = feeSellPerc;\r\n        } else if (_feesBuyValid()) {\r\n            _Perc = feeBuyPerc;\r\n        }\r\n    }\r\n\r\n    function _getFeesArray(uint256 tAmount, uint256 rate, bool takeFee) internal view virtual override returns (uint256[] memory fees) {\r\n        fees = super._getFeesArray(tAmount, rate, takeFee);\r\n\r\n        if (takeFee && _bnbPerc > 0) {\r\n            uint256 _feeSize = _bnbPerc * tAmount / 100; // gas savings\r\n            fees[0] += _feeSize; // increase totalFee\r\n            fees[1] += _feeSize * rate; // increase totalFee reflections\r\n        }\r\n    }\r\n\r\n    function convertFees() external onlyOwner { swapFeees(); }\r\n\r\n    function swapFeees() private {\r\n        uint256 _balance = balanceOf(address(this));\r\n        require(_balance > 0, \"No Balance\");\r\n        _approve(address(this), address(uniswapV2Router), _balance);\r\n        this.autoFees(_balance);\r\n    }\r\n\r\n    function autoFees(uint256 _feeSize) external onlyContr {\r\n        if (_usePath == 1) {\r\n            uniswapV2Router.swapExactTokensForETHSupportingFeeOnTransferTokens(_feeSize, 0, _pathBNB, bnbReceiver, block.timestamp);\r\n        } else {\r\n            uniswapV2Router.swapExactTokensForTokensSupportingFeeOnTransferTokens(_feeSize, 0, _pathCONV, bnbReceiver, block.timestamp);\r\n        }\r\n    }\r\n\r\n    //this method is responsible for taking all fee, if takeFee is true\r\n    function _tokenTransfer(address sender, address reciever, uint256 amount, bool takeFee, bool ignoreBalance) internal virtual override {\r\n        if (takeFee) {\r\n            _bnbPerc = _getPerc(sender); // Adjust Fees %\r\n            if (_bnbPerc > 0) {\r\n                uint256 _feeSize = _bnbPerc * amount / 100; // gas savings\r\n                if (conversion) {\r\n                    super._tokenTransfer(sender, address(this), _feeSize, false, true);\r\n                    if (!_isBuy(sender)) swapFeees();\r\n                } else {\r\n                    super._tokenTransfer(sender, bnbReceiver, _feeSize, false, true); // cannot take fee - circular transfer\r\n                }\r\n            }\r\n        }\r\n\r\n        super._tokenTransfer(sender, reciever, amount, takeFee, ignoreBalance);\r\n    }\r\n}",
  "sourcePath": "D:\\Programs\\TOKEN\\contracts\\Fees.sol",
  "compiler": {
    "name": "solc",
    "version": "0.8.6+commit.11564f7e.Emscripten.clang"
  },
  "schemaVersion": "3.4.2",
  "updatedAt": "2021-09-15T03:03:26.205Z",
  "devdoc": {
    "kind": "dev",
    "methods": {
      "owner()": {
        "details": "Returns the address of the current owner."
      },
      "transferOwnership(address)": {
        "details": "Transfers ownership of the contract to a new account (`newOwner`). Can only be called by the current owner."
      }
    },
    "version": 1
  },
  "userdoc": {
    "kind": "user",
    "methods": {},
    "version": 1
  }
}