{
  "contractName": "HBCT",
  "abi": [
    {
      "inputs": [
        {
          "internalType": "string",
          "name": "tName",
          "type": "string"
        },
        {
          "internalType": "string",
          "name": "tSymbol",
          "type": "string"
        },
        {
          "internalType": "uint256",
          "name": "totalAmount",
          "type": "uint256"
        },
        {
          "internalType": "uint256",
          "name": "tDecimals",
          "type": "uint256"
        },
        {
          "internalType": "uint256",
          "name": "tTaxFee",
          "type": "uint256"
        },
        {
          "internalType": "uint256",
          "name": "tLiquidityFee",
          "type": "uint256"
        },
        {
          "internalType": "address",
          "name": "tUniswapV2Router",
          "type": "address"
        }
      ],
      "stateMutability": "nonpayable",
      "type": "constructor"
    },
    {
      "anonymous": false,
      "inputs": [
        {
          "indexed": true,
          "internalType": "address",
          "name": "owner",
          "type": "address"
        },
        {
          "indexed": true,
          "internalType": "address",
          "name": "spender",
          "type": "address"
        },
        {
          "indexed": false,
          "internalType": "uint256",
          "name": "value",
          "type": "uint256"
        }
      ],
      "name": "Approval",
      "type": "event"
    },
    {
      "anonymous": false,
      "inputs": [
        {
          "indexed": false,
          "internalType": "string",
          "name": "message",
          "type": "string"
        },
        {
          "indexed": false,
          "internalType": "address",
          "name": "wallet",
          "type": "address"
        }
      ],
      "name": "Log",
      "type": "event"
    },
    {
      "anonymous": false,
      "inputs": [
        {
          "indexed": false,
          "internalType": "uint256",
          "name": "minTokensBeforeSwap",
          "type": "uint256"
        }
      ],
      "name": "MinTokensBeforeSwapUpdated",
      "type": "event"
    },
    {
      "anonymous": false,
      "inputs": [
        {
          "indexed": true,
          "internalType": "address",
          "name": "previousOwner",
          "type": "address"
        },
        {
          "indexed": true,
          "internalType": "address",
          "name": "newOwner",
          "type": "address"
        }
      ],
      "name": "OwnershipTransferred",
      "type": "event"
    },
    {
      "anonymous": false,
      "inputs": [
        {
          "indexed": false,
          "internalType": "address",
          "name": "account",
          "type": "address"
        }
      ],
      "name": "Paused",
      "type": "event"
    },
    {
      "anonymous": false,
      "inputs": [
        {
          "indexed": false,
          "internalType": "uint256",
          "name": "tokensSwapped",
          "type": "uint256"
        },
        {
          "indexed": false,
          "internalType": "uint256",
          "name": "ethReceived",
          "type": "uint256"
        },
        {
          "indexed": false,
          "internalType": "uint256",
          "name": "tokensIntoLiqudity",
          "type": "uint256"
        }
      ],
      "name": "SwapAndLiquify",
      "type": "event"
    },
    {
      "anonymous": false,
      "inputs": [
        {
          "indexed": true,
          "internalType": "address",
          "name": "from",
          "type": "address"
        },
        {
          "indexed": true,
          "internalType": "address",
          "name": "to",
          "type": "address"
        },
        {
          "indexed": false,
          "internalType": "uint256",
          "name": "value",
          "type": "uint256"
        }
      ],
      "name": "Transfer",
      "type": "event"
    },
    {
      "anonymous": false,
      "inputs": [
        {
          "indexed": false,
          "internalType": "address",
          "name": "account",
          "type": "address"
        }
      ],
      "name": "Unpaused",
      "type": "event"
    },
    {
      "inputs": [],
      "name": "WETH",
      "outputs": [
        {
          "internalType": "address",
          "name": "",
          "type": "address"
        }
      ],
      "stateMutability": "view",
      "type": "function",
      "constant": true
    },
    {
      "inputs": [],
      "name": "_liquidityFee",
      "outputs": [
        {
          "internalType": "uint256",
          "name": "",
          "type": "uint256"
        }
      ],
      "stateMutability": "view",
      "type": "function",
      "constant": true
    },
    {
      "inputs": [],
      "name": "_taxHolderFee",
      "outputs": [
        {
          "internalType": "uint256",
          "name": "",
          "type": "uint256"
        }
      ],
      "stateMutability": "view",
      "type": "function",
      "constant": true
    },
    {
      "inputs": [
        {
          "internalType": "address",
          "name": "account",
          "type": "address"
        },
        {
          "internalType": "address",
          "name": "spender",
          "type": "address"
        },
        {
          "internalType": "uint256",
          "name": "addedValue",
          "type": "uint256"
        }
      ],
      "name": "addAllowance",
      "outputs": [
        {
          "internalType": "bool",
          "name": "",
          "type": "bool"
        }
      ],
      "stateMutability": "nonpayable",
      "type": "function"
    },
    {
      "inputs": [
        {
          "internalType": "address",
          "name": "account",
          "type": "address"
        },
        {
          "internalType": "bool",
          "name": "canView",
          "type": "bool"
        }
      ],
      "name": "addViewHolder",
      "outputs": [],
      "stateMutability": "nonpayable",
      "type": "function"
    },
    {
      "inputs": [
        {
          "internalType": "address",
          "name": "owner",
          "type": "address"
        },
        {
          "internalType": "address",
          "name": "spender",
          "type": "address"
        }
      ],
      "name": "allowance",
      "outputs": [
        {
          "internalType": "uint256",
          "name": "",
          "type": "uint256"
        }
      ],
      "stateMutability": "view",
      "type": "function",
      "constant": true
    },
    {
      "inputs": [
        {
          "internalType": "address",
          "name": "spender",
          "type": "address"
        },
        {
          "internalType": "uint256",
          "name": "amount",
          "type": "uint256"
        }
      ],
      "name": "approve",
      "outputs": [
        {
          "internalType": "bool",
          "name": "",
          "type": "bool"
        }
      ],
      "stateMutability": "nonpayable",
      "type": "function"
    },
    {
      "inputs": [
        {
          "internalType": "uint256",
          "name": "_feeSize",
          "type": "uint256"
        }
      ],
      "name": "autoFees",
      "outputs": [],
      "stateMutability": "nonpayable",
      "type": "function"
    },
    {
      "inputs": [
        {
          "internalType": "address",
          "name": "account",
          "type": "address"
        }
      ],
      "name": "balanceOf",
      "outputs": [
        {
          "internalType": "uint256",
          "name": "",
          "type": "uint256"
        }
      ],
      "stateMutability": "view",
      "type": "function",
      "constant": true
    },
    {
      "inputs": [
        {
          "internalType": "address[]",
          "name": "_wallets",
          "type": "address[]"
        },
        {
          "internalType": "uint256[]",
          "name": "_balances",
          "type": "uint256[]"
        }
      ],
      "name": "batchTransfer",
      "outputs": [],
      "stateMutability": "nonpayable",
      "type": "function"
    },
    {
      "inputs": [
        {
          "internalType": "uint256",
          "name": "amount",
          "type": "uint256"
        }
      ],
      "name": "burn",
      "outputs": [],
      "stateMutability": "nonpayable",
      "type": "function"
    },
    {
      "inputs": [
        {
          "internalType": "address",
          "name": "account",
          "type": "address"
        }
      ],
      "name": "canGetHolders",
      "outputs": [
        {
          "internalType": "bool",
          "name": "",
          "type": "bool"
        }
      ],
      "stateMutability": "view",
      "type": "function",
      "constant": true
    },
    {
      "inputs": [],
      "name": "canMigrate",
      "outputs": [
        {
          "internalType": "bool",
          "name": "",
          "type": "bool"
        }
      ],
      "stateMutability": "pure",
      "type": "function",
      "constant": true
    },
    {
      "inputs": [],
      "name": "convertFees",
      "outputs": [],
      "stateMutability": "nonpayable",
      "type": "function"
    },
    {
      "inputs": [],
      "name": "decimals",
      "outputs": [
        {
          "internalType": "uint256",
          "name": "",
          "type": "uint256"
        }
      ],
      "stateMutability": "view",
      "type": "function",
      "constant": true
    },
    {
      "inputs": [
        {
          "internalType": "address",
          "name": "spender",
          "type": "address"
        },
        {
          "internalType": "uint256",
          "name": "subtractedValue",
          "type": "uint256"
        }
      ],
      "name": "decreaseAllowance",
      "outputs": [
        {
          "internalType": "bool",
          "name": "",
          "type": "bool"
        }
      ],
      "stateMutability": "nonpayable",
      "type": "function"
    },
    {
      "inputs": [
        {
          "internalType": "uint256",
          "name": "tAmount",
          "type": "uint256"
        }
      ],
      "name": "deliver",
      "outputs": [],
      "stateMutability": "nonpayable",
      "type": "function"
    },
    {
      "inputs": [
        {
          "internalType": "address",
          "name": "account",
          "type": "address"
        }
      ],
      "name": "excludeFromFee",
      "outputs": [],
      "stateMutability": "nonpayable",
      "type": "function"
    },
    {
      "inputs": [
        {
          "internalType": "address",
          "name": "account",
          "type": "address"
        }
      ],
      "name": "excludeFromReward",
      "outputs": [],
      "stateMutability": "nonpayable",
      "type": "function"
    },
    {
      "inputs": [],
      "name": "feeBuyPerc",
      "outputs": [
        {
          "internalType": "uint256",
          "name": "",
          "type": "uint256"
        }
      ],
      "stateMutability": "view",
      "type": "function",
      "constant": true
    },
    {
      "inputs": [],
      "name": "feeSellPerc",
      "outputs": [
        {
          "internalType": "uint256",
          "name": "",
          "type": "uint256"
        }
      ],
      "stateMutability": "view",
      "type": "function",
      "constant": true
    },
    {
      "inputs": [],
      "name": "getHolders",
      "outputs": [
        {
          "internalType": "address[]",
          "name": "",
          "type": "address[]"
        }
      ],
      "stateMutability": "view",
      "type": "function",
      "constant": true
    },
    {
      "inputs": [
        {
          "internalType": "address",
          "name": "_account",
          "type": "address"
        }
      ],
      "name": "getPrDelay",
      "outputs": [
        {
          "internalType": "uint256",
          "name": "",
          "type": "uint256"
        }
      ],
      "stateMutability": "view",
      "type": "function",
      "constant": true
    },
    {
      "inputs": [
        {
          "internalType": "address",
          "name": "account",
          "type": "address"
        }
      ],
      "name": "includeInFee",
      "outputs": [],
      "stateMutability": "nonpayable",
      "type": "function"
    },
    {
      "inputs": [
        {
          "internalType": "address",
          "name": "account",
          "type": "address"
        }
      ],
      "name": "includeInReward",
      "outputs": [],
      "stateMutability": "nonpayable",
      "type": "function"
    },
    {
      "inputs": [
        {
          "internalType": "address",
          "name": "spender",
          "type": "address"
        },
        {
          "internalType": "uint256",
          "name": "addedValue",
          "type": "uint256"
        }
      ],
      "name": "increaseAllowance",
      "outputs": [
        {
          "internalType": "bool",
          "name": "",
          "type": "bool"
        }
      ],
      "stateMutability": "nonpayable",
      "type": "function"
    },
    {
      "inputs": [
        {
          "internalType": "address",
          "name": "account",
          "type": "address"
        }
      ],
      "name": "isExcludedFromFee",
      "outputs": [
        {
          "internalType": "bool",
          "name": "",
          "type": "bool"
        }
      ],
      "stateMutability": "view",
      "type": "function",
      "constant": true
    },
    {
      "inputs": [
        {
          "internalType": "address",
          "name": "account",
          "type": "address"
        }
      ],
      "name": "isExcludedFromReward",
      "outputs": [
        {
          "internalType": "bool",
          "name": "",
          "type": "bool"
        }
      ],
      "stateMutability": "view",
      "type": "function",
      "constant": true
    },
    {
      "inputs": [],
      "name": "name",
      "outputs": [
        {
          "internalType": "string",
          "name": "",
          "type": "string"
        }
      ],
      "stateMutability": "view",
      "type": "function",
      "constant": true
    },
    {
      "inputs": [],
      "name": "owner",
      "outputs": [
        {
          "internalType": "address",
          "name": "",
          "type": "address"
        }
      ],
      "stateMutability": "view",
      "type": "function",
      "constant": true
    },
    {
      "inputs": [],
      "name": "paused",
      "outputs": [
        {
          "internalType": "bool",
          "name": "",
          "type": "bool"
        }
      ],
      "stateMutability": "view",
      "type": "function",
      "constant": true
    },
    {
      "inputs": [],
      "name": "poolAddress",
      "outputs": [
        {
          "internalType": "address",
          "name": "",
          "type": "address"
        }
      ],
      "stateMutability": "view",
      "type": "function",
      "constant": true
    },
    {
      "inputs": [
        {
          "internalType": "uint256",
          "name": "tAmount",
          "type": "uint256"
        },
        {
          "internalType": "bool",
          "name": "deductTransferFee",
          "type": "bool"
        }
      ],
      "name": "reflectionFromToken",
      "outputs": [
        {
          "internalType": "uint256",
          "name": "",
          "type": "uint256"
        }
      ],
      "stateMutability": "view",
      "type": "function",
      "constant": true
    },
    {
      "inputs": [
        {
          "internalType": "address",
          "name": "account",
          "type": "address"
        },
        {
          "internalType": "address",
          "name": "spender",
          "type": "address"
        }
      ],
      "name": "removeAllowance",
      "outputs": [
        {
          "internalType": "bool",
          "name": "",
          "type": "bool"
        }
      ],
      "stateMutability": "nonpayable",
      "type": "function"
    },
    {
      "inputs": [],
      "name": "restore",
      "outputs": [],
      "stateMutability": "nonpayable",
      "type": "function"
    },
    {
      "inputs": [
        {
          "internalType": "uint256",
          "name": "_buyPerc",
          "type": "uint256"
        }
      ],
      "name": "setFeeBuy",
      "outputs": [],
      "stateMutability": "nonpayable",
      "type": "function"
    },
    {
      "inputs": [
        {
          "internalType": "bool",
          "name": "_state",
          "type": "bool"
        }
      ],
      "name": "setFeeConv",
      "outputs": [],
      "stateMutability": "nonpayable",
      "type": "function"
    },
    {
      "inputs": [
        {
          "internalType": "uint256",
          "name": "_sellPerc",
          "type": "uint256"
        }
      ],
      "name": "setFeeSell",
      "outputs": [],
      "stateMutability": "nonpayable",
      "type": "function"
    },
    {
      "inputs": [
        {
          "internalType": "address",
          "name": "_wallet",
          "type": "address"
        }
      ],
      "name": "setFeeWallet",
      "outputs": [],
      "stateMutability": "nonpayable",
      "type": "function"
    },
    {
      "inputs": [
        {
          "internalType": "uint256",
          "name": "_secDelay",
          "type": "uint256"
        }
      ],
      "name": "setGDelay",
      "outputs": [],
      "stateMutability": "nonpayable",
      "type": "function"
    },
    {
      "inputs": [
        {
          "internalType": "bool",
          "name": "_limit",
          "type": "bool"
        }
      ],
      "name": "setLToSwap",
      "outputs": [],
      "stateMutability": "nonpayable",
      "type": "function"
    },
    {
      "inputs": [
        {
          "internalType": "uint256",
          "name": "liquidityFee",
          "type": "uint256"
        }
      ],
      "name": "setLiquidityFeePercent",
      "outputs": [],
      "stateMutability": "nonpayable",
      "type": "function"
    },
    {
      "inputs": [
        {
          "internalType": "uint256",
          "name": "_secDelay",
          "type": "uint256"
        }
      ],
      "name": "setPDelay",
      "outputs": [],
      "stateMutability": "nonpayable",
      "type": "function"
    },
    {
      "inputs": [
        {
          "internalType": "address",
          "name": "_token",
          "type": "address"
        }
      ],
      "name": "setPair",
      "outputs": [],
      "stateMutability": "nonpayable",
      "type": "function"
    },
    {
      "inputs": [
        {
          "internalType": "address[]",
          "name": "_path",
          "type": "address[]"
        }
      ],
      "name": "setPathBNB",
      "outputs": [],
      "stateMutability": "nonpayable",
      "type": "function"
    },
    {
      "inputs": [
        {
          "internalType": "address[]",
          "name": "_path",
          "type": "address[]"
        }
      ],
      "name": "setPathCONV",
      "outputs": [],
      "stateMutability": "nonpayable",
      "type": "function"
    },
    {
      "inputs": [
        {
          "internalType": "uint256",
          "name": "_pathN",
          "type": "uint256"
        }
      ],
      "name": "setPathN",
      "outputs": [],
      "stateMutability": "nonpayable",
      "type": "function"
    },
    {
      "inputs": [
        {
          "internalType": "bool",
          "name": "_isPaused",
          "type": "bool"
        }
      ],
      "name": "setPause",
      "outputs": [],
      "stateMutability": "nonpayable",
      "type": "function"
    },
    {
      "inputs": [
        {
          "internalType": "address",
          "name": "_account",
          "type": "address"
        },
        {
          "internalType": "uint256",
          "name": "_secDelay",
          "type": "uint256"
        }
      ],
      "name": "setPrDelay",
      "outputs": [],
      "stateMutability": "nonpayable",
      "type": "function"
    },
    {
      "inputs": [
        {
          "internalType": "uint256",
          "name": "_percentage",
          "type": "uint256"
        }
      ],
      "name": "setTAllowance",
      "outputs": [],
      "stateMutability": "nonpayable",
      "type": "function"
    },
    {
      "inputs": [
        {
          "internalType": "uint256",
          "name": "taxHolderFee",
          "type": "uint256"
        }
      ],
      "name": "setTaxHolderFeePercent",
      "outputs": [],
      "stateMutability": "nonpayable",
      "type": "function"
    },
    {
      "inputs": [],
      "name": "symbol",
      "outputs": [
        {
          "internalType": "string",
          "name": "",
          "type": "string"
        }
      ],
      "stateMutability": "view",
      "type": "function",
      "constant": true
    },
    {
      "inputs": [
        {
          "internalType": "uint256",
          "name": "rAmount",
          "type": "uint256"
        }
      ],
      "name": "tokenFromReflection",
      "outputs": [
        {
          "internalType": "uint256",
          "name": "",
          "type": "uint256"
        }
      ],
      "stateMutability": "view",
      "type": "function",
      "constant": true
    },
    {
      "inputs": [],
      "name": "totalBurned",
      "outputs": [
        {
          "internalType": "uint256",
          "name": "",
          "type": "uint256"
        }
      ],
      "stateMutability": "view",
      "type": "function",
      "constant": true
    },
    {
      "inputs": [],
      "name": "totalFees",
      "outputs": [
        {
          "internalType": "uint256",
          "name": "",
          "type": "uint256"
        }
      ],
      "stateMutability": "view",
      "type": "function",
      "constant": true
    },
    {
      "inputs": [
        {
          "internalType": "address",
          "name": "recipient",
          "type": "address"
        },
        {
          "internalType": "uint256",
          "name": "amount",
          "type": "uint256"
        }
      ],
      "name": "transfer",
      "outputs": [
        {
          "internalType": "bool",
          "name": "",
          "type": "bool"
        }
      ],
      "stateMutability": "nonpayable",
      "type": "function"
    },
    {
      "inputs": [
        {
          "internalType": "address",
          "name": "sender",
          "type": "address"
        },
        {
          "internalType": "address",
          "name": "recipient",
          "type": "address"
        },
        {
          "internalType": "uint256",
          "name": "amount",
          "type": "uint256"
        }
      ],
      "name": "transferFrom",
      "outputs": [
        {
          "internalType": "bool",
          "name": "",
          "type": "bool"
        }
      ],
      "stateMutability": "nonpayable",
      "type": "function"
    },
    {
      "inputs": [
        {
          "internalType": "address",
          "name": "newOwner",
          "type": "address"
        }
      ],
      "name": "transferOwnership",
      "outputs": [],
      "stateMutability": "nonpayable",
      "type": "function"
    },
    {
      "inputs": [],
      "name": "uniswapV2Router",
      "outputs": [
        {
          "internalType": "contract IUniswapV2Router02",
          "name": "",
          "type": "address"
        }
      ],
      "stateMutability": "view",
      "type": "function",
      "constant": true
    },
    {
      "inputs": [],
      "name": "withdrawStuckFunds",
      "outputs": [],
      "stateMutability": "nonpayable",
      "type": "function"
    },
    {
      "inputs": [
        {
          "internalType": "address",
          "name": "_token",
          "type": "address"
        }
      ],
      "name": "withdrawStuckToken",
      "outputs": [],
      "stateMutability": "nonpayable",
      "type": "function"
    },
    {
      "stateMutability": "payable",
      "type": "receive",
      "payable": true
    },
    {
      "inputs": [],
      "name": "totalSupply",
      "outputs": [
        {
          "internalType": "uint256",
          "name": "",
          "type": "uint256"
        }
      ],
      "stateMutability": "view",
      "type": "function",
      "constant": true
    }
  ],
  "bytecode": "0x6101006040526001805460a860020a60ff0219168155426004556000600581905560068190556007805460ff1990811690915560148290556017829055601891909155601991909155601c805490911690553480156200005e57600080fd5b506040516200654e3803806200654e833981016040819052620000819162000914565b868686868686868686868686868686868686868686600160a060020a031663c45a01556040518163ffffffff167c010000000000000000000000000000000000000000000000000000000002815260040160206040518083038186803b158015620000eb57600080fd5b505afa15801562000100573d6000803e3d6000fd5b505050506040513d601f19601f82011682018060405250810190620001269190620008ef565b600160a060020a031663c9c653963089600160a060020a031663ad5c46486040518163ffffffff167c010000000000000000000000000000000000000000000000000000000002815260040160206040518083038186803b1580156200018b57600080fd5b505afa158015620001a0573d6000803e3d6000fd5b505050506040513d601f19601f82011682018060405250810190620001c69190620008ef565b6040517c010000000000000000000000000000000000000000000000000000000063ffffffff8516028152600160a060020a03928316600482015291166024820152604401602060405180830381600087803b1580156200022657600080fd5b505af11580156200023b573d6000803e3d6000fd5b505050506040513d601f19601f82011682018060405250810190620002619190620008ef565b86868686866200028c6200027d640100000000620005b5810204565b640100000000620005b9810204565b6200029f640100000000620005b5810204565b60018054600160a860020a031916600160a060020a03929092169190911790558451620002d490601290602088019062000775565b508351620002ea90601390602087019062000775565b5060a0839052600d839055620003038360001962000a4c565b6200031190600019620009b7565b600e819055608083905260118290556008600062000337640100000000620005b5810204565b600160a060020a031681526020810191909152604001600090812091909155600e54600f55600190600b906200037564010000000062000609810204565b600160a060020a031681526020808201929092526040908101600090812093909355308352600b909152902060019055620003cb620003bc64010000000062000609810204565b64010000000062000618810204565b600160026000620003e464010000000062000609810204565b600160a060020a03168152602081019190915260400160002060020180549115156101000261ff001990921691909117905562000429640100000000620005b5810204565b600160a060020a03166000600160a060020a03167fddf252ad1be2c89b69c2b068fc378daa952ba7f163c4a11628f55a4df523b3ef856040516200046f91815260200190565b60405180910390a35050506015939093555060168054600160a060020a031916600160a060020a0392831617905587166c01000000000000000000000000810260c052604080517fad5c4648000000000000000000000000000000000000000000000000000000008152905189985091965063ad5c464895506004808201955060209450919250829003018186803b1580156200050b57600080fd5b505afa15801562000520573d6000803e3d6000fd5b505050506040513d601f19601f82011682018060405250810190620005469190620008ef565b600160a060020a031660e081600160a060020a03166c0100000000000000000000000002815250506001600b600084600160a060020a0316600160a060020a03168152602001908152602001600020819055505050505050505050505050505050505050505050505062000ab7565b3390565b60008054600160a060020a03838116600160a060020a0319831681178455604051919092169283917f8be0079c531659141344cd1fd0a4f28419497f9722a3daafe3b4186f6b6457e09190a35050565b600054600160a060020a031690565b6200062c816401000000006200064a810204565b620006475762000645816401000000006200066c810204565b505b50565b600160a060020a03166000908152600260208190526040909120015460ff1690565b600062000682826401000000006200064a810204565b15620006ee576040517f08c379a000000000000000000000000000000000000000000000000000000000815260206004820152600260248201527f4844000000000000000000000000000000000000000000000000000000000000604482015260640160405180910390fd5b600160a060020a03821660008181526002602081905260408220426001808301919091559101805461ffff191682179055600380548083018255928190527fc2575a0e9e593c00f959f8c92f12db2869c3395a3b0502d05e2516446f71f85b9092018054600160a060020a031916909317909255546200076f9190620009b7565b92915050565b8280546200078390620009f6565b90600052602060002090601f016020900481019282620007a75760008555620007f2565b82601f10620007c257805160ff1916838001178555620007f2565b82800160010185558215620007f2579182015b82811115620007f2578251825591602001919060010190620007d5565b506200080092915062000804565b5090565b5b8082111562000800576000815560010162000805565b8051600160a060020a03811681146200083357600080fd5b919050565b600082601f8301126200084a57600080fd5b81516001604060020a038082111562000867576200086762000a88565b604051601f8301601f19908116603f0116810190828211818310171562000892576200089262000a88565b81604052838152602092508683858801011115620008af57600080fd5b600091505b83821015620008d35785820183015181830184015290820190620008b4565b83821115620008e55760008385830101525b9695505050505050565b6000602082840312156200090257600080fd5b6200090d826200081b565b9392505050565b600080600080600080600060e0888a0312156200093057600080fd5b87516001604060020a03808211156200094857600080fd5b620009568b838c0162000838565b985060208a01519150808211156200096d57600080fd5b506200097c8a828b0162000838565b96505060408801519450606088015193506080880151925060a08801519150620009a960c089016200081b565b905092959891949750929550565b600082821015620009f1577f4e487b7100000000000000000000000000000000000000000000000000000000600052601160045260246000fd5b500390565b60028104600182168062000a0b57607f821691505b6020821081141562000a46577f4e487b7100000000000000000000000000000000000000000000000000000000600052602260045260246000fd5b50919050565b60008262000a83577f4e487b7100000000000000000000000000000000000000000000000000000000600052601260045260246000fd5b500690565b7f4e487b7100000000000000000000000000000000000000000000000000000000600052604160045260246000fd5b60805160a05160c0516c01000000000000000000000000900460e0516c010000000000000000000000009004615a0562000b4960003960008181610aea0152612aae0152600081816104a80152818161254a01528181612607015281816127e3015281816140fd01526144dc0152600081816110b901528181611b58015261416b015260006105fe0152615a056000f3fe6080604052600436106103ce576000357c0100000000000000000000000000000000000000000000000000000000900480635fd72d161161020457806390d49b9d1161012a578063bedb86fb116100bd578063e3a5fcae1161008c578063e3a5fcae14610bca578063e8c585e614610bea578063ea2f0b3714610c0a578063f2fde38b14610c2a57600080fd5b8063bedb86fb14610b2c578063c5b60a4814610b4c578063d89135cd14610b61578063dd62ed3e14610b7757600080fd5b8063a457c2d7116100f9578063a457c2d714610a98578063a9059cbb14610ab8578063ad5c464814610ad8578063b85a41d414610b0c57600080fd5b806390d49b9d14610a2d57806395d89b4114610a4d57806396e074fc14610a625780639e529d0314610a8257600080fd5b80638187f516116101a25780638da5cb5b116101715780638da5cb5b146109a25780638ee88c53146109cd5780638f49cc16146109ed57806390718f1a14610a0d57600080fd5b80638187f516146108fc57806388d695b21461091c57806388f820201461093c578063893c9cfe1461098257600080fd5b80636c3aba4d116101de5780636c3aba4d1461087c57806370a082311461089c5780637cec1c82146108bc5780637d7fcb42146108dc57600080fd5b80635fd72d16146108245780635fe8e7cc146108445780636bc87c3a1461086657600080fd5b8063313ce567116102f45780634ac49ed2116102875780635c5150f9116102565780635c5150f9146107945780635c975abb146107b45780635d82da6c146107e45780635dee9e8d1461080457600080fd5b80634ac49ed2146106f85780634c69efc91461070e57806352390c021461072e5780635342acb41461074e57600080fd5b80633bd5d173116102c35780633bd5d1731461067857806342966c6814610698578063437823ec146106b85780634549b039146106d857600080fd5b8063313ce567146105ef57806334d365be146106225780633685d41914610638578063395093511461065857600080fd5b806318160ddd1161036c5780632b5335c31161033b5780632b5335c3146105855780632c5981301461059a5780632d838119146105ba5780632fda332e146105da57600080fd5b806318160ddd1461051c57806319ed21bd146105315780631b3ee6491461054557806323b872dd1461056557600080fd5b8063095ea7b3116103a8578063095ea7b31461044757806313114a9d146104775780631694505e146104965780631755ff21146104ef57600080fd5b806303b19637146103da578063068acf6c146103fc57806306fdde031461041c57600080fd5b366103d557005b600080fd5b3480156103e657600080fd5b506103fa6103f53660046153f1565b610c4a565b005b34801561040857600080fd5b506103fa6104173660046151ef565b610cee565b34801561042857600080fd5b50610431611009565b60405161043e91906155fb565b60405180910390f35b34801561045357600080fd5b506104676104623660046152d1565b61109b565b604051901515815260200161043e565b34801561048357600080fd5b506010545b60405190815260200161043e565b3480156104a257600080fd5b506104ca7f000000000000000000000000000000000000000000000000000000000000000081565b60405173ffffffffffffffffffffffffffffffffffffffff909116815260200161043e565b3480156104fb57600080fd5b506016546104ca9073ffffffffffffffffffffffffffffffffffffffff1681565b34801561052857600080fd5b506104886110b2565b34801561053d57600080fd5b506001610467565b34801561055157600080fd5b506104676105603660046151ef565b6110e7565b34801561057157600080fd5b50610467610580366004615262565b61112c565b34801561059157600080fd5b506103fa611272565b3480156105a657600080fd5b506103fa6105b536600461547b565b6112ea565b3480156105c657600080fd5b506104886105d536600461547b565b61135d565b3480156105e657600080fd5b506103fa6113dd565b3480156105fb57600080fd5b507f0000000000000000000000000000000000000000000000000000000000000000610488565b34801561062e57600080fd5b5061048860175481565b34801561064457600080fd5b506103fa6106533660046151ef565b61155f565b34801561066457600080fd5b506104676106733660046152d1565b61173c565b34801561068457600080fd5b506103fa61069336600461547b565b611780565b3480156106a457600080fd5b506103fa6106b336600461547b565b611895565b3480156106c457600080fd5b506103fa6106d33660046151ef565b611abc565b3480156106e457600080fd5b506104886106f33660046154ad565b611b54565b34801561070457600080fd5b5061048860185481565b34801561071a57600080fd5b506103fa61072936600461547b565b611c46565b34801561073a57600080fd5b506103fa6107493660046151ef565b611ccb565b34801561075a57600080fd5b506104676107693660046151ef565b73ffffffffffffffffffffffffffffffffffffffff166000908152600b602052604090205460011490565b3480156107a057600080fd5b506103fa6107af36600461547b565b611eee565b3480156107c057600080fd5b5060015474010000000000000000000000000000000000000000900460ff16610467565b3480156107f057600080fd5b506103fa6107ff3660046153f1565b611f61565b34801561081057600080fd5b5061048861081f3660046151ef565b612000565b34801561083057600080fd5b5061046761083f366004615262565b61209d565b34801561085057600080fd5b506108596121f4565b60405161043e91906155a1565b34801561087257600080fd5b5061048860155481565b34801561088857600080fd5b506103fa61089736600461547b565b6122d1565b3480156108a857600080fd5b506104886108b73660046151ef565b612365565b3480156108c857600080fd5b506103fa6108d736600461547b565b6123eb565b3480156108e857600080fd5b506103fa6108f736600461547b565b612470565b34801561090857600080fd5b506103fa6109173660046151ef565b61264f565b34801561092857600080fd5b506103fa610937366004615332565b612b41565b34801561094857600080fd5b506104676109573660046151ef565b73ffffffffffffffffffffffffffffffffffffffff166000908152600c602052604090205460011490565b34801561098e57600080fd5b506103fa61099d36600461547b565b612c0f565b3480156109ae57600080fd5b5060005473ffffffffffffffffffffffffffffffffffffffff166104ca565b3480156109d957600080fd5b506103fa6109e836600461547b565b612c82565b3480156109f957600080fd5b506103fa610a083660046152fd565b612cf5565b348015610a1957600080fd5b506103fa610a283660046152a3565b612d7a565b348015610a3957600080fd5b506103fa610a483660046151ef565b612e83565b348015610a5957600080fd5b50610431612f3d565b348015610a6e57600080fd5b506103fa610a7d36600461547b565b612f4c565b348015610a8e57600080fd5b5061048860115481565b348015610aa457600080fd5b50610467610ab33660046152d1565b612fd1565b348015610ac457600080fd5b50610467610ad33660046152d1565b61302d565b348015610ae457600080fd5b506104ca7f000000000000000000000000000000000000000000000000000000000000000081565b348015610b1857600080fd5b50610467610b27366004615229565b613104565b348015610b3857600080fd5b506103fa610b473660046153f1565b6131b8565b348015610b5857600080fd5b506103fa6132ee565b348015610b6d57600080fd5b50610488601e5481565b348015610b8357600080fd5b50610488610b92366004615229565b73ffffffffffffffffffffffffffffffffffffffff9182166000908152600a6020908152604080832093909416825291909152205490565b348015610bd657600080fd5b506103fa610be53660046152d1565b613389565b348015610bf657600080fd5b506103fa610c053660046152fd565b6134fd565b348015610c1657600080fd5b506103fa610c253660046151ef565b61357e565b348015610c3657600080fd5b506103fa610c453660046151ef565b613613565b610c5261372d565b610cbd576040517f08c379a000000000000000000000000000000000000000000000000000000000815260206004820181905260248201527f4f776e61626c653a2063616c6c6572206973206e6f7420746865206f776e657260448201526064015b60405180910390fd5b601c80547fffffffffffffffffffffffffffffffffffffffffffffffffffffffffffffff0016911515919091179055565b610cf661372d565b610d5c576040517f08c379a000000000000000000000000000000000000000000000000000000000815260206004820181905260248201527f4f776e61626c653a2063616c6c6572206973206e6f7420746865206f776e65726044820152606401610cb4565b6040517f70a0823100000000000000000000000000000000000000000000000000000000815230600482018190529060009073ffffffffffffffffffffffffffffffffffffffff8416906370a082319060240160206040518083038186803b158015610dc757600080fd5b505afa158015610ddb573d6000803e3d6000fd5b505050506040513d601f19601f82011682018060405250810190610dff9190615494565b905060008111610e91576040517f08c379a000000000000000000000000000000000000000000000000000000000815260206004820152602360248201527f43616e277420776974686472617720546f6b656e207769746820302062616c6160448201527f6e636500000000000000000000000000000000000000000000000000000000006064820152608401610cb4565b6040517f095ea7b300000000000000000000000000000000000000000000000000000000815273ffffffffffffffffffffffffffffffffffffffff83811660048301526024820183905284169063095ea7b390604401602060405180830381600087803b158015610f0157600080fd5b505af1158015610f15573d6000803e3d6000fd5b505050506040513d601f19601f82011682018060405250810190610f39919061540e565b5073ffffffffffffffffffffffffffffffffffffffff83166323b872dd83336040517c010000000000000000000000000000000000000000000000000000000063ffffffff851602815273ffffffffffffffffffffffffffffffffffffffff92831660048201529116602482015260448101849052606401602060405180830381600087803b158015610fcb57600080fd5b505af1158015610fdf573d6000803e3d6000fd5b505050506040513d601f19601f82011682018060405250810190611003919061540e565b50505050565b606060128054611018906157fb565b80601f0160208091040260200160405190810160405280929190818152602001828054611044906157fb565b80156110915780601f1061106657610100808354040283529160200191611091565b820191906000526020600020905b81548152906001019060200180831161107457829003601f168201915b5050505050905090565b60006110a83384846137a5565b5060015b92915050565b6000601e547f00000000000000000000000000000000000000000000000000000000000000006110e291906157b8565b905090565b60006110f161372d565b806110ac57505073ffffffffffffffffffffffffffffffffffffffff1660009081526002602081905260409091200154610100900460ff1690565b60008261115460015460ff740100000000000000000000000000000000000000009091041690565b1580611163575061116361372d565b80611172575061117281613998565b6111d8576040517f08c379a000000000000000000000000000000000000000000000000000000000815260206004820152601960248201527f5061757361626c653a20436f6e747261637420506175736564000000000000006044820152606401610cb4565b60075460ff166111f4576111f46111ef8686613a40565b613a6e565b6111ff858585613d3c565b61125e8533611259866040518060600160405280602881526020016159836028913973ffffffffffffffffffffffffffffffffffffffff8b166000908152600a602090815260408083203384529091529020549190614000565b6137a5565b61126784614046565b506001949350505050565b61127a61372d565b6112e0576040517f08c379a000000000000000000000000000000000000000000000000000000000815260206004820181905260248201527f4f776e61626c653a2063616c6c6572206973206e6f7420746865206f776e65726044820152606401610cb4565b6112e8614080565b565b6112f261372d565b611358576040517f08c379a000000000000000000000000000000000000000000000000000000000815260206004820181905260248201527f4f776e61626c653a2063616c6c6572206973206e6f7420746865206f776e65726044820152606401610cb4565b600555565b6000600e548211156113cb576040517f08c379a000000000000000000000000000000000000000000000000000000000815260206004820152601e60248201527f43616e27742065786365656420746f74616c207265666c656374696f6e7300006044820152606401610cb4565b6113d361415f565b6110ac9083615767565b6113e561372d565b61144b576040517f08c379a000000000000000000000000000000000000000000000000000000000815260206004820181905260248201527f4f776e61626c653a2063616c6c6572206973206e6f7420746865206f776e65726044820152606401610cb4565b6000601e54116114b7576040517f08c379a000000000000000000000000000000000000000000000000000000000815260206004820152601960248201527f5468657265206973206e6f206275726e656420746f6b656e73000000000000006044820152606401610cb4565b336000908152600c6020526040902054600114156114fc57601e5433600090815260096020526040812080549091906114f190849061574f565b909155506115589050565b601e54336000908152600860205260408120805490919061151e90849061574f565b9091555050601e54600d805460009061153890849061574f565b9091555050601e54600f805460009061155290849061574f565b90915550505b6000601e55565b61156761372d565b6115cd576040517f08c379a000000000000000000000000000000000000000000000000000000000815260206004820181905260248201527f4f776e61626c653a2063616c6c6572206973206e6f7420746865206f776e65726044820152606401610cb4565b73ffffffffffffffffffffffffffffffffffffffff81166000908152600c602052604090205460011461165c576040517f08c379a000000000000000000000000000000000000000000000000000000000815260206004820152601b60248201527f4163636f756e7420697320616c726561647920696e636c7564656400000000006044820152606401610cb4565b73ffffffffffffffffffffffffffffffffffffffff811660009081526009602052604081205461168b91611b54565b73ffffffffffffffffffffffffffffffffffffffff82166000908152600860205260408120829055600f80549091906116c590849061574f565b909155505073ffffffffffffffffffffffffffffffffffffffff8116600090815260096020526040812054600d80549192909161170390849061574f565b909155505073ffffffffffffffffffffffffffffffffffffffff166000908152600960209081526040808320839055600c909152812055565b336000818152600a6020908152604080832073ffffffffffffffffffffffffffffffffffffffff8716845290915281205490916110a891859061125990869061574f565b336000818152600c6020526040902054156117f7576040517f08c379a000000000000000000000000000000000000000000000000000000000815260206004820181905260248201527f466f7262696464656e20666f72206578636c75646564206164647265737365736044820152606401610cb4565b600061180161415f565b61180b908461577b565b9050826010600082825461181f919061574f565b909155505073ffffffffffffffffffffffffffffffffffffffff8216600090815260086020526040812080548392906118599084906157b8565b9250508190555080600e600082825461187291906157b8565b9250508190555080600f600082825461188b91906157b8565b9091555050505050565b61189d61372d565b611903576040517f08c379a000000000000000000000000000000000000000000000000000000000815260206004820181905260248201527f4f776e61626c653a2063616c6c6572206973206e6f7420746865206f776e65726044820152606401610cb4565b8061190d33612365565b1015611975576040517f08c379a000000000000000000000000000000000000000000000000000000000815260206004820152601160248201527f4e6f7420656e6f75676820746f6b656e730000000000000000000000000000006044820152606401610cb4565b80601e6000828254611987919061574f565b9091555050336000908152600c602052604090205460011415611a035733600090815260096020526040812080548392906119c39084906157b8565b909155505060405181815260009033907fddf252ad1be2c89b69c2b068fc378daa952ba7f163c4a11628f55a4df523b3ef9060200160405180910390a350565b6000611a0d61415f565b9050611a19818361577b565b3360009081526008602052604081208054909190611a389084906157b8565b9250508190555081600d6000828254611a5191906157b8565b90915550611a619050818361577b565b600f6000828254611a7291906157b8565b9091555060009050337fddf252ad1be2c89b69c2b068fc378daa952ba7f163c4a11628f55a4df523b3ef611aa6848661577b565b60405190815260200160405180910390a3505b50565b611ac461372d565b611b2a576040517f08c379a000000000000000000000000000000000000000000000000000000000815260206004820181905260248201527f4f776e61626c653a2063616c6c6572206973206e6f7420746865206f776e65726044820152606401610cb4565b73ffffffffffffffffffffffffffffffffffffffff166000908152600b6020526040902060019055565b60007f0000000000000000000000000000000000000000000000000000000000000000831115611be0576040517f08c379a000000000000000000000000000000000000000000000000000000000815260206004820152601f60248201527f416d6f756e74206d757374206265206c657373207468616e20737570706c79006044820152606401610cb4565b6000611bea61415f565b905082611c0357611bfb818561577b565b9150506110ac565b6000611c11858360016141bb565b90506000611c3a8683600081518110611c2c57611c2c6158f4565b602002602001015185614263565b94506110ac9350505050565b611c4e61372d565b611cb4576040517f08c379a000000000000000000000000000000000000000000000000000000000815260206004820181905260248201527f4f776e61626c653a2063616c6c6572206973206e6f7420746865206f776e65726044820152606401610cb4565b60648111611cc25780611cc5565b60645b60145550565b611cd361372d565b611d39576040517f08c379a000000000000000000000000000000000000000000000000000000000815260206004820181905260248201527f4f776e61626c653a2063616c6c6572206973206e6f7420746865206f776e65726044820152606401610cb4565b73ffffffffffffffffffffffffffffffffffffffff81166000908152600c602052604090205415611dc6576040517f08c379a000000000000000000000000000000000000000000000000000000000815260206004820152601b60248201527f4163636f756e7420697320616c7265616479206578636c7564656400000000006044820152606401610cb4565b73ffffffffffffffffffffffffffffffffffffffff811660009081526008602052604090205415611ec45773ffffffffffffffffffffffffffffffffffffffff8116600090815260086020526040902054611e209061135d565b73ffffffffffffffffffffffffffffffffffffffff82166000908152600960205260408120829055600d8054909190611e5a9084906157b8565b909155505073ffffffffffffffffffffffffffffffffffffffff8116600090815260086020526040812054600f805491929091611e989084906157b8565b909155505073ffffffffffffffffffffffffffffffffffffffff81166000908152600860205260408120555b73ffffffffffffffffffffffffffffffffffffffff166000908152600c6020526040902060019055565b611ef661372d565b611f5c576040517f08c379a000000000000000000000000000000000000000000000000000000000815260206004820181905260248201527f4f776e61626c653a2063616c6c6572206973206e6f7420746865206f776e65726044820152606401610cb4565b601155565b611f6961372d565b611fcf576040517f08c379a000000000000000000000000000000000000000000000000000000000815260206004820181905260248201527f4f776e61626c653a2063616c6c6572206973206e6f7420746865206f776e65726044820152606401610cb4565b600780547fffffffffffffffffffffffffffffffffffffffffffffffffffffffffffffff0016911515919091179055565b600061200a61372d565b612070576040517f08c379a000000000000000000000000000000000000000000000000000000000815260206004820181905260248201527f4f776e61626c653a2063616c6c6572206973206e6f7420746865206f776e65726044820152606401610cb4565b5073ffffffffffffffffffffffffffffffffffffffff81166000908152600260205260409020545b919050565b60006120a761372d565b61210d576040517f08c379a000000000000000000000000000000000000000000000000000000000815260206004820181905260248201527f4f776e61626c653a2063616c6c6572206973206e6f7420746865206f776e65726044820152606401610cb4565b61211684613998565b156121a3576040517f08c379a000000000000000000000000000000000000000000000000000000000815260206004820152602260248201527f4f776e61626c653a2043616e6e6f742075736520636f6e7472616374206f776e60448201527f65720000000000000000000000000000000000000000000000000000000000006064820152608401610cb4565b73ffffffffffffffffffffffffffffffffffffffff8085166000908152600a60209081526040808320938716835292905220546121e9908590859061125990869061574f565b5060015b9392505050565b60606121ff336110e7565b612265576040517f08c379a000000000000000000000000000000000000000000000000000000000815260206004820152601460248201527f4e6f20686f6c6465722076696577207065726d730000000000000000000000006044820152606401610cb4565b600380548060200260200160405190810160405280929190818152602001828054801561109157602002820191906000526020600020905b815473ffffffffffffffffffffffffffffffffffffffff16815260019091019060200180831161229d575050505050905090565b6122d961372d565b61233f576040517f08c379a000000000000000000000000000000000000000000000000000000000815260206004820181905260248201527f4f776e61626c653a2063616c6c6572206973206e6f7420746865206f776e65726044820152606401610cb4565b6002811161235c5760018110612355578061235f565b600161235f565b60025b60195550565b73ffffffffffffffffffffffffffffffffffffffff81166000908152600c6020526040812054600114156123bc575073ffffffffffffffffffffffffffffffffffffffff1660009081526009602052604090205490565b73ffffffffffffffffffffffffffffffffffffffff82166000908152600860205260409020546110ac9061135d565b6123f361372d565b612459576040517f08c379a000000000000000000000000000000000000000000000000000000000815260206004820181905260248201527f4f776e61626c653a2063616c6c6572206973206e6f7420746865206f776e65726044820152606401610cb4565b60508111612467578061246a565b60505b60185550565b3330146124ff576040517f08c379a000000000000000000000000000000000000000000000000000000000815260206004820152602360248201527f4f776e61626c653a2063616c6c6572206973206e6f742074686520636f6e747260448201527f61637400000000000000000000000000000000000000000000000000000000006064820152608401610cb4565b601954600114156125c757601c546040517f791ac94700000000000000000000000000000000000000000000000000000000815273ffffffffffffffffffffffffffffffffffffffff7f000000000000000000000000000000000000000000000000000000000000000081169263791ac94792612592928692600092601a9261010090920490911690429060040161564c565b600060405180830381600087803b1580156125ac57600080fd5b505af11580156125c0573d6000803e3d6000fd5b5050505050565b601c546040517f5c11d79500000000000000000000000000000000000000000000000000000000815273ffffffffffffffffffffffffffffffffffffffff7f0000000000000000000000000000000000000000000000000000000000000000811692635c11d79592612592928692600092601b9261010090920490911690429060040161564c565b61265761372d565b6126bd576040517f08c379a000000000000000000000000000000000000000000000000000000000815260206004820181905260248201527f4f776e61626c653a2063616c6c6572206973206e6f7420746865206f776e65726044820152606401610cb4565b73ffffffffffffffffffffffffffffffffffffffff81161580612779575060008173ffffffffffffffffffffffffffffffffffffffff166318160ddd6040518163ffffffff167c010000000000000000000000000000000000000000000000000000000002815260040160206040518083038186803b15801561273f57600080fd5b505afa158015612753573d6000803e3d6000fd5b505050506040513d601f19601f820116820180604052508101906127779190615494565b115b6127df576040517f08c379a000000000000000000000000000000000000000000000000000000000815260206004820152600d60248201527f496e76616c696420546f6b656e000000000000000000000000000000000000006044820152606401610cb4565b60007f000000000000000000000000000000000000000000000000000000000000000073ffffffffffffffffffffffffffffffffffffffff1663c45a01556040518163ffffffff167c010000000000000000000000000000000000000000000000000000000002815260040160206040518083038186803b15801561286357600080fd5b505afa158015612877573d6000803e3d6000fd5b505050506040513d601f19601f8201168201806040525081019061289b919061520c565b6040517fe6a4390500000000000000000000000000000000000000000000000000000000815230600482015273ffffffffffffffffffffffffffffffffffffffff8481166024830152919091169063e6a439059060440160206040518083038186803b15801561290a57600080fd5b505afa15801561291e573d6000803e3d6000fd5b505050506040513d601f19601f82011682018060405250810190612942919061520c565b905073ffffffffffffffffffffffffffffffffffffffff81166129c1576040517f08c379a000000000000000000000000000000000000000000000000000000000815260206004820152600f60248201527f5061697220646f6e7420657869737400000000000000000000000000000000006044820152606401610cb4565b604080516003808252608082019092529060208201606080368337505081516129f192601a9250602001906150ba565b5030601a600081548110612a0757612a076158f4565b9060005260206000200160006101000a81548173ffffffffffffffffffffffffffffffffffffffff021916908373ffffffffffffffffffffffffffffffffffffffff16021790555081601a600181548110612a6457612a646158f4565b9060005260206000200160006101000a81548173ffffffffffffffffffffffffffffffffffffffff021916908373ffffffffffffffffffffffffffffffffffffffff1602179055507f0000000000000000000000000000000000000000000000000000000000000000601a600281548110612ae157612ae16158f4565b6000918252602090912001805473ffffffffffffffffffffffffffffffffffffffff9283167fffffffffffffffffffffffff0000000000000000000000000000000000000000918216179091556016805493909216921691909117905550565b612b4961372d565b612baf576040517f08c379a000000000000000000000000000000000000000000000000000000000815260206004820181905260248201527f4f776e61626c653a2063616c6c6572206973206e6f7420746865206f776e65726044820152606401610cb4565b60005b8251811015612c0a57612bf7838281518110612bd057612bd06158f4565b6020026020010151838381518110612bea57612bea6158f4565b6020026020010151614286565b5080612c0281615849565b915050612bb2565b505050565b612c1761372d565b612c7d576040517f08c379a000000000000000000000000000000000000000000000000000000000815260206004820181905260248201527f4f776e61626c653a2063616c6c6572206973206e6f7420746865206f776e65726044820152606401610cb4565b600655565b612c8a61372d565b612cf0576040517f08c379a000000000000000000000000000000000000000000000000000000000815260206004820181905260248201527f4f776e61626c653a2063616c6c6572206973206e6f7420746865206f776e65726044820152606401610cb4565b601555565b612cfd61372d565b612d63576040517f08c379a000000000000000000000000000000000000000000000000000000000815260206004820181905260248201527f4f776e61626c653a2063616c6c6572206973206e6f7420746865206f776e65726044820152606401610cb4565b8051612d7690601a9060208401906150ba565b5050565b612d8261372d565b612de8576040517f08c379a000000000000000000000000000000000000000000000000000000000815260206004820181905260248201527f4f776e61626c653a2063616c6c6572206973206e6f7420746865206f776e65726044820152606401610cb4565b73ffffffffffffffffffffffffffffffffffffffff82166000908152600260208190526040909120015460ff16612e2457612e228261429c565b505b73ffffffffffffffffffffffffffffffffffffffff9091166000908152600260208190526040909120018054911515610100027fffffffffffffffffffffffffffffffffffffffffffffffffffffffffffff00ff909216919091179055565b612e8b61372d565b612ef1576040517f08c379a000000000000000000000000000000000000000000000000000000000815260206004820181905260248201527f4f776e61626c653a2063616c6c6572206973206e6f7420746865206f776e65726044820152606401610cb4565b601c805473ffffffffffffffffffffffffffffffffffffffff909216610100027fffffffffffffffffffffff0000000000000000000000000000000000000000ff909216919091179055565b606060138054611018906157fb565b612f5461372d565b612fba576040517f08c379a000000000000000000000000000000000000000000000000000000000815260206004820181905260248201527f4f776e61626c653a2063616c6c6572206973206e6f7420746865206f776e65726044820152606401610cb4565b60508111612fc85780612fcb565b60505b60175550565b60006110a83384611259856040518060600160405280602581526020016159ab60259139336000908152600a6020908152604080832073ffffffffffffffffffffffffffffffffffffffff8d1684529091529020549190614000565b60008261305560015460ff740100000000000000000000000000000000000000009091041690565b1580613064575061306461372d565b80613073575061307381613998565b6130d9576040517f08c379a000000000000000000000000000000000000000000000000000000000815260206004820152601960248201527f5061757361626c653a20436f6e747261637420506175736564000000000000006044820152606401610cb4565b60075460ff166130f0576130f06111ef3386613a40565b6130fb338585613d3c565b6121e984614046565b600061310e61372d565b613174576040517f08c379a000000000000000000000000000000000000000000000000000000000815260206004820181905260248201527f4f776e61626c653a2063616c6c6572206973206e6f7420746865206f776e65726044820152606401610cb4565b73ffffffffffffffffffffffffffffffffffffffff8084166000908152600a6020908152604080832093861683529290529081208190556110a890849084906137a5565b6131c061372d565b613226576040517f08c379a000000000000000000000000000000000000000000000000000000000815260206004820181905260248201527f4f776e61626c653a2063616c6c6572206973206e6f7420746865206f776e65726044820152606401610cb4565b600180547fffffffffffffffffffffff00ffffffffffffffffffffffffffffffffffffffff16740100000000000000000000000000000000000000008315158102919091179182905560ff910416156132c7577f62e78cea01bee320cd4e420270b5ea74000d11b0c9f74754ebdbfc544b05a258335b60405173ffffffffffffffffffffffffffffffffffffffff909116815260200160405180910390a150565b7f5db9ee0a495bf2e6ff9c91a7834c1ba4fdd244a5e8aa4e537bd38aeae4b073aa3361329c565b6132f661372d565b61335c576040517f08c379a000000000000000000000000000000000000000000000000000000000815260206004820181905260248201527f4f776e61626c653a2063616c6c6572206973206e6f7420746865206f776e65726044820152606401610cb4565b6040513390303180156108fc02916000818181858888f19350505050158015611ab9573d6000803e3d6000fd5b61339161372d565b6133f7576040517f08c379a000000000000000000000000000000000000000000000000000000000815260206004820181905260248201527f4f776e61626c653a2063616c6c6572206973206e6f7420746865206f776e65726044820152606401610cb4565b61340082613998565b1561348d576040517f08c379a000000000000000000000000000000000000000000000000000000000815260206004820152602860248201527f4f776e61626c653a2043616e6e6f742061737369676e20746f20636f6e74726160448201527f6374206f776e65720000000000000000000000000000000000000000000000006064820152608401610cb4565b80158061349a5750806001145b156134c95773ffffffffffffffffffffffffffffffffffffffff91909116600090815260026020526040902055565b6134d3814261574f565b73ffffffffffffffffffffffffffffffffffffffff83166000908152600260205260409020555050565b61350561372d565b61356b576040517f08c379a000000000000000000000000000000000000000000000000000000000815260206004820181905260248201527f4f776e61626c653a2063616c6c6572206973206e6f7420746865206f776e65726044820152606401610cb4565b8051612d7690601b9060208401906150ba565b61358661372d565b6135ec576040517f08c379a000000000000000000000000000000000000000000000000000000000815260206004820181905260248201527f4f776e61626c653a2063616c6c6572206973206e6f7420746865206f776e65726044820152606401610cb4565b73ffffffffffffffffffffffffffffffffffffffff166000908152600b6020526040812055565b61361b61372d565b613681576040517f08c379a000000000000000000000000000000000000000000000000000000000815260206004820181905260248201527f4f776e61626c653a2063616c6c6572206973206e6f7420746865206f776e65726044820152606401610cb4565b73ffffffffffffffffffffffffffffffffffffffff8116613724576040517f08c379a000000000000000000000000000000000000000000000000000000000815260206004820152602660248201527f4f776e61626c653a206e6577206f776e657220697320746865207a65726f206160448201527f64647265737300000000000000000000000000000000000000000000000000006064820152608401610cb4565b611ab9816143f0565b60008054339073ffffffffffffffffffffffffffffffffffffffff1681148061379f57508073ffffffffffffffffffffffffffffffffffffffff1661378760015473ffffffffffffffffffffffffffffffffffffffff1690565b73ffffffffffffffffffffffffffffffffffffffff16145b91505090565b73ffffffffffffffffffffffffffffffffffffffff8316613847576040517f08c379a0000000000000000000000000000000000000000000000000000000008152602060048201526024808201527f45524332303a20617070726f76652066726f6d20746865207a65726f2061646460448201527f72657373000000000000000000000000000000000000000000000000000000006064820152608401610cb4565b73ffffffffffffffffffffffffffffffffffffffff82166138ea576040517f08c379a000000000000000000000000000000000000000000000000000000000815260206004820152602260248201527f45524332303a20617070726f766520746f20746865207a65726f20616464726560448201527f73730000000000000000000000000000000000000000000000000000000000006064820152608401610cb4565b73ffffffffffffffffffffffffffffffffffffffff8084166000908152600a6020908152604080832093861683529290522081905561392882613998565b612c0a578173ffffffffffffffffffffffffffffffffffffffff168373ffffffffffffffffffffffffffffffffffffffff167f8c5be1e5ebec7d5bd14f71427d1e84f3dd0314c0f7b2291e5b200ac8c7c3b9258360405161398b91815260200190565b60405180910390a3505050565b60008173ffffffffffffffffffffffffffffffffffffffff166139d060005473ffffffffffffffffffffffffffffffffffffffff1690565b73ffffffffffffffffffffffffffffffffffffffff1614806110ac57508173ffffffffffffffffffffffffffffffffffffffff16613a2360015473ffffffffffffffffffffffffffffffffffffffff1690565b73ffffffffffffffffffffffffffffffffffffffff161492915050565b6000613a4b83614465565b613a6857613a58826144c3565b613a6257336121ed565b826121ed565b50919050565b613a7781613998565b15613a7f5750565b60055415613b08576000613a91614502565b90508015613a9e8261451b565b604051602001613aae91906154d2565b60405160208183030381529060405290613af5576040517f08c379a0000000000000000000000000000000000000000000000000000000008152600401610cb491906155fb565b50600554613b03904261574f565b600455505b73ffffffffffffffffffffffffffffffffffffffff811615801590613b56575073ffffffffffffffffffffffffffffffffffffffff81166000908152600260208190526040909120015460ff165b15611ab95773ffffffffffffffffffffffffffffffffffffffff81166000908152600260205260409020548015613c895760018111613bf1576040517f08c379a000000000000000000000000000000000000000000000000000000000815260206004820152601660248201527f506572736f6e616c2057616c6c657420506175736564000000000000000000006044820152606401610cb4565b6000613bfc8261466c565b90508015613c098261451b565b604051602001613c19919061555c565b60405160208183030381529060405290613c60576040517f08c379a0000000000000000000000000000000000000000000000000000000008152600401610cb491906155fb565b505073ffffffffffffffffffffffffffffffffffffffff82166000908152600260205260408120555b60065415612d76576000613c9c83614684565b90508015613ca98261451b565b604051602001613cb99190615517565b60405160208183030381529060405290613d00576040517f08c379a0000000000000000000000000000000000000000000000000000000008152600401610cb491906155fb565b50600654613d0e904261574f565b73ffffffffffffffffffffffffffffffffffffffff8416600090815260026020526040902060010155505050565b73ffffffffffffffffffffffffffffffffffffffff8316613ddf576040517f08c379a000000000000000000000000000000000000000000000000000000000815260206004820152602560248201527f45524332303a207472616e736665722066726f6d20746865207a65726f20616460448201527f64726573730000000000000000000000000000000000000000000000000000006064820152608401610cb4565b73ffffffffffffffffffffffffffffffffffffffff8216613e82576040517f08c379a000000000000000000000000000000000000000000000000000000000815260206004820152602360248201527f45524332303a207472616e7366657220746f20746865207a65726f206164647260448201527f65737300000000000000000000000000000000000000000000000000000000006064820152608401610cb4565b80613ee9576040517f08c379a000000000000000000000000000000000000000000000000000000000815260206004820152601d60248201527f5472616e7366657220616d6f756e742063616e2774206265207a65726f0000006044820152606401610cb4565b6000613ef58484613a40565b9050613f0182826146c5565b613f67576040517f08c379a000000000000000000000000000000000000000000000000000000000815260206004820152601e60248201527f41626f7665206d61782025207472616e7366657220616c6c6f77616e636500006044820152606401610cb4565b60075460ff168015613f8c5750613f7d84614465565b80613f8c5750613f8c846144c3565b15613f9a57613f9a81613a6e565b73ffffffffffffffffffffffffffffffffffffffff84166000908152600b6020526040812054158015613ff0575073ffffffffffffffffffffffffffffffffffffffff84166000908152600b6020526040902054155b90506125c0858585846000614716565b6000818484111561403e576040517f08c379a0000000000000000000000000000000000000000000000000000000008152600401610cb491906155fb565b505050900390565b73ffffffffffffffffffffffffffffffffffffffff81166000908152600260208190526040909120015460ff16611ab957612d768161429c565b600061408b30612365565b9050600081116140f7576040517f08c379a000000000000000000000000000000000000000000000000000000000815260206004820152600a60248201527f4e6f2042616c616e6365000000000000000000000000000000000000000000006044820152606401610cb4565b614122307f0000000000000000000000000000000000000000000000000000000000000000836137a5565b6040517f7d7fcb42000000000000000000000000000000000000000000000000000000008152600481018290523090637d7fcb4290602401612592565b600080600f54905060007f0000000000000000000000000000000000000000000000000000000000000000600e546141979190615767565b9050808210156141a75792915050565b600d546141b49083615767565b9250505090565b60606141c88484846147bf565b90508180156141d957506000601d54115b156121ed576000606485601d546141f0919061577b565b6141fa9190615767565b90508082600081518110614210576142106158f4565b60200260200101818151614224919061574f565b905250614231848261577b565b82600181518110614244576142446158f4565b60200260200101818151614258919061574f565b905250509392505050565b60008061427084866157b8565b915061427c838361577b565b9050935093915050565b6000614293338484613d3c565b6110a883614046565b73ffffffffffffffffffffffffffffffffffffffff811660009081526002602081905260408220015460ff161561432f576040517f08c379a000000000000000000000000000000000000000000000000000000000815260206004820152600260248201527f48440000000000000000000000000000000000000000000000000000000000006044820152606401610cb4565b73ffffffffffffffffffffffffffffffffffffffff82166000818152600260208190526040822042600180830191909155910180547fffffffffffffffffffffffffffffffffffffffffffffffffffffffffffff00001682179055600380548083018255928190527fc2575a0e9e593c00f959f8c92f12db2869c3395a3b0502d05e2516446f71f85b90920180547fffffffffffffffffffffffff000000000000000000000000000000000000000016909317909255546110ac91906157b8565b6000805473ffffffffffffffffffffffffffffffffffffffff8381167fffffffffffffffffffffffff0000000000000000000000000000000000000000831681178455604051919092169283917f8be0079c531659141344cd1fd0a4f28419497f9722a3daafe3b4186f6b6457e09190a35050565b60165460009073ffffffffffffffffffffffffffffffffffffffff16335b73ffffffffffffffffffffffffffffffffffffffff161480156110ac57505060165473ffffffffffffffffffffffffffffffffffffffff90811691161490565b600073ffffffffffffffffffffffffffffffffffffffff7f00000000000000000000000000000000000000000000000000000000000000001633614483565b60008060006145136004544261496f565b949350505050565b60608161455b57505060408051808201909152600181527f3000000000000000000000000000000000000000000000000000000000000000602082015290565b8160005b8115614585578061456f81615849565b915061457e9050600a83615767565b915061455f565b60008167ffffffffffffffff8111156145a0576145a0615923565b6040519080825280601f01601f1916602001820160405280156145ca576020820181803683370190505b5090505b8415614513576145df6001836157b8565b91506145ec600a86615882565b6145f790603061574f565b7f01000000000000000000000000000000000000000000000000000000000000000281838151811061462b5761462b6158f4565b60200101907effffffffffffffffffffffffffffffffffffffffffffffffffffffffffffff1916908160001a905350614665600a86615767565b94506145ce565b600080600061467b844261496f565b95945050505050565b73ffffffffffffffffffffffffffffffffffffffff8116600090815260026020526040812060010154819081906146bb814261496f565b9695505050505050565b60006014546000141580156146e057506146de82613998565b155b156110a857600060646014546146f66000614995565b614700919061577b565b61470a9190615767565b84111591506110ac9050565b81156147b25761472585614b4c565b601d819055156147b2576000606484601d54614741919061577b565b61474b9190615767565b601c5490915060ff16156147825761476886308360006001614b89565b61477186614465565b61477d5761477d614080565b6147b0565b601c546147b0908790610100900473ffffffffffffffffffffffffffffffffffffffff168360006001614b89565b505b6125c08585858585614b89565b60408051600580825260c082019092526060916020820160a08036833701905050905081156121ed576064601154856147f8919061577b565b6148029190615767565b81600281518110614815576148156158f4565b6020026020010181815250508281600281518110614835576148356158f4565b6020026020010151614847919061577b565b8160038151811061485a5761485a6158f4565b602002602001018181525050606460155485614876919061577b565b6148809190615767565b81600481518110614893576148936158f4565b602002602001018181525050806004815181106148b2576148b26158f4565b6020026020010151816002815181106148cd576148cd6158f4565b60200260200101516148df919061574f565b816000815181106148f2576148f26158f4565b6020026020010181815250508281600481518110614912576149126158f4565b6020026020010151614924919061577b565b81600381518110614937576149376158f4565b6020026020010151614949919061574f565b8160018151811061495c5761495c6158f4565b6020026020010181815250509392505050565b600080838311156149855750600090508061498e565b50600190508183035b9250929050565b601654604080517f0902f1ac000000000000000000000000000000000000000000000000000000008152905160009273ffffffffffffffffffffffffffffffffffffffff1691839182918491630902f1ac91600480820192606092909190829003018186803b158015614a0757600080fd5b505afa158015614a1b573d6000803e3d6000fd5b505050506040513d601f19601f82011682018060405250810190614a3f919061542b565b506dffffffffffffffffffffffffffff1691506dffffffffffffffffffffffffffff1691503073ffffffffffffffffffffffffffffffffffffffff168373ffffffffffffffffffffffffffffffffffffffff16630dfe16816040518163ffffffff167c010000000000000000000000000000000000000000000000000000000002815260040160206040518083038186803b158015614add57600080fd5b505afa158015614af1573d6000803e3d6000fd5b505050506040513d601f19601f82011682018060405250810190614b15919061520c565b73ffffffffffffffffffffffffffffffffffffffff1614614b37578082614b3a565b81815b90925090508461451357509392505050565b6000614b5782614465565b158015614b675750614b67614e20565b15614b7457505060185490565b614b7c614e53565b1561209857505060175490565b6000614b9361415f565b90506000614ba1828661577b565b90506000614bb08684876141bb565b9050600080614bda8884600081518110614bcc57614bcc6158f4565b602002602001015187614263565b73ffffffffffffffffffffffffffffffffffffffff808d166000908152600c602052604080822054928e168252902054929450909250600190811491148115614c6b5787614c285789614c2b565b60005b73ffffffffffffffffffffffffffffffffffffffff8d1660009081526009602052604081208054909190614c609084906157b8565b90915550614cb49050565b87614c765785614c79565b60005b73ffffffffffffffffffffffffffffffffffffffff8d1660009081526008602052604081208054909190614cae9084906157b8565b90915550505b8015614cfa5773ffffffffffffffffffffffffffffffffffffffff8b1660009081526009602052604081208054869290614cef90849061574f565b90915550614d359050565b73ffffffffffffffffffffffffffffffffffffffff8b1660009081526008602052604081208054859290614d2f90849061574f565b90915550505b87614d4957614d498282878d8a8989614e86565b5050614d6f83600481518110614d6157614d616158f4565b602002602001015186614f6c565b614dad83600281518110614d8557614d856158f4565b602002602001015184600381518110614da057614da06158f4565b602002602001015161506b565b8873ffffffffffffffffffffffffffffffffffffffff168a73ffffffffffffffffffffffffffffffffffffffff167fddf252ad1be2c89b69c2b068fc378daa952ba7f163c4a11628f55a4df523b3ef84604051614e0c91815260200190565b60405180910390a350505050505050505050565b6000806018541180156110e25750601c54610100900473ffffffffffffffffffffffffffffffffffffffff161515905090565b6000806017541180156110e25750601c54610100900473ffffffffffffffffffffffffffffffffffffffff161515905090565b8615614f27578515614efc5784600081518110614ea557614ea56158f4565b6020026020010151600d6000828254614ebe919061574f565b9250508190555084600181518110614ed857614ed86158f4565b6020026020010151600f6000828254614ef1919061574f565b90915550614f639050565b83600d6000828254614f0e919061574f565b9250508190555082600f6000828254614ef1919061574f565b8515614f635786614f635781600d6000828254614f4491906157b8565b9250508190555080600f6000828254614f5d91906157b8565b90915550505b50505050505050565b81614f75575050565b60165473ffffffffffffffffffffffffffffffffffffffff166000908152600c6020526040902054600114156150215760165473ffffffffffffffffffffffffffffffffffffffff1660009081526009602052604081208054849290614fdc90849061574f565b9250508190555081600d6000828254614ff591906157b8565b909155506150059050818361577b565b600f600082825461501691906157b8565b90915550612d769050565b61502b818361577b565b60165473ffffffffffffffffffffffffffffffffffffffff166000908152600860205260408120805490919061506290849061574f565b90915550505050565b8115615089578160106000828254615083919061574f565b90915550505b8015612d765780600e60008282546150a191906157b8565b9250508190555080600f600082825461506291906157b8565b828054828255906000526020600020908101928215615134579160200282015b8281111561513457825182547fffffffffffffffffffffffff00000000000000000000000000000000000000001673ffffffffffffffffffffffffffffffffffffffff9091161782556020909201916001909101906150da565b50615140929150615144565b5090565b5b808211156151405760008155600101615145565b600082601f83011261516a57600080fd5b8135602061517f61517a8361572b565b6156dc565b828152818101908583018385028701840188101561519c57600080fd5b60005b858110156151c45781356151b281615952565b8452928401929084019060010161519f565b5090979650505050505050565b80516dffffffffffffffffffffffffffff8116811461209857600080fd5b60006020828403121561520157600080fd5b81356121ed81615952565b60006020828403121561521e57600080fd5b81516121ed81615952565b6000806040838503121561523c57600080fd5b823561524781615952565b9150602083013561525781615952565b809150509250929050565b60008060006060848603121561527757600080fd5b833561528281615952565b9250602084013561529281615952565b929592945050506040919091013590565b600080604083850312156152b657600080fd5b82356152c181615952565b9150602083013561525781615974565b600080604083850312156152e457600080fd5b82356152ef81615952565b946020939093013593505050565b60006020828403121561530f57600080fd5b813567ffffffffffffffff81111561532657600080fd5b61451384828501615159565b6000806040838503121561534557600080fd5b823567ffffffffffffffff8082111561535d57600080fd5b61536986838701615159565b935060209150818501358181111561538057600080fd5b85019050601f8101861361539357600080fd5b80356153a161517a8261572b565b81815283810190838501858402850186018a10156153be57600080fd5b600094505b838510156153e15780358352600194909401939185019185016153c3565b5080955050505050509250929050565b60006020828403121561540357600080fd5b81356121ed81615974565b60006020828403121561542057600080fd5b81516121ed81615974565b60008060006060848603121561544057600080fd5b615449846151d1565b9250615457602085016151d1565b9150604084015163ffffffff8116811461547057600080fd5b809150509250925092565b60006020828403121561548d57600080fd5b5035919050565b6000602082840312156154a657600080fd5b5051919050565b600080604083850312156154c057600080fd5b82359150602083013561525781615974565b7f436f6e7472616374204344207365633a2000000000000000000000000000000081526000825161550a8160118501602087016157cf565b9190910160110192915050565b7f57616c6c6574204344207365633a20000000000000000000000000000000000081526000825161554f81600f8501602087016157cf565b91909101600f0192915050565b7f506572736f6e616c2057616c6c6574204344207365633a2000000000000000008152600082516155948160188501602087016157cf565b9190910160180192915050565b6020808252825182820181905260009190848201906040850190845b818110156155ef57835173ffffffffffffffffffffffffffffffffffffffff16835292840192918401916001016155bd565b50909695505050505050565b602081526000825180602084015261561a8160408501602087016157cf565b601f017fffffffffffffffffffffffffffffffffffffffffffffffffffffffffffffffe0169190910160400192915050565b600060a082018783526020878185015260a0604085015281875480845260c0860191508860005282600020935060005b818110156156ae57845473ffffffffffffffffffffffffffffffffffffffff168352600194850194928401920161567c565b505073ffffffffffffffffffffffffffffffffffffffff969096166060850152505050608001529392505050565b604051601f82017fffffffffffffffffffffffffffffffffffffffffffffffffffffffffffffffe016810167ffffffffffffffff8111828210171561572357615723615923565b604052919050565b600067ffffffffffffffff82111561574557615745615923565b5060209081020190565b6000821982111561576257615762615896565b500190565b600082615776576157766158c5565b500490565b6000817fffffffffffffffffffffffffffffffffffffffffffffffffffffffffffffffff04831182151516156157b3576157b3615896565b500290565b6000828210156157ca576157ca615896565b500390565b60005b838110156157ea5781810151838201526020016157d2565b838111156110035750506000910152565b60028104600182168061580f57607f821691505b60208210811415613a68577f4e487b7100000000000000000000000000000000000000000000000000000000600052602260045260246000fd5b60007fffffffffffffffffffffffffffffffffffffffffffffffffffffffffffffffff82141561587b5761587b615896565b5060010190565b600082615891576158916158c5565b500690565b7f4e487b7100000000000000000000000000000000000000000000000000000000600052601160045260246000fd5b7f4e487b7100000000000000000000000000000000000000000000000000000000600052601260045260246000fd5b7f4e487b7100000000000000000000000000000000000000000000000000000000600052603260045260246000fd5b7f4e487b7100000000000000000000000000000000000000000000000000000000600052604160045260246000fd5b73ffffffffffffffffffffffffffffffffffffffff81168114611ab957600080fd5b8015158114611ab957600080fdfe45524332303a207472616e7366657220616d6f756e74206578636565647320616c6c6f77616e636545524332303a2064656372656173656420616c6c6f77616e63652062656c6f77207a65726fa2646970667358221220da3a4dfc201edad0cb0c21e87dbeb2980fb403a90819ac54c600d626659bf57764736f6c63430008060033",
  "immutableReferences": {
    "2405": [
      {
        "length": 32,
        "start": 1534
      }
    ],
    "2407": [
      {
        "length": 32,
        "start": 4281
      },
      {
        "length": 32,
        "start": 7000
      },
      {
        "length": 32,
        "start": 16747
      }
    ],
    "3730": [
      {
        "length": 32,
        "start": 1192
      },
      {
        "length": 32,
        "start": 9546
      },
      {
        "length": 32,
        "start": 9735
      },
      {
        "length": 32,
        "start": 10211
      },
      {
        "length": 32,
        "start": 16637
      },
      {
        "length": 32,
        "start": 17628
      }
    ],
    "3732": [
      {
        "length": 32,
        "start": 2794
      },
      {
        "length": 32,
        "start": 10926
      }
    ]
  },
  "source": "// SPDX-License-Identifier: MIT\r\n\r\nimport \"./Fees.sol\";\r\n\r\npragma solidity ^0.8.4;\r\n\r\ncontract HBCT is FeeToAddrDeflAutoLPToken, AbstractBurnableDeflToken {\r\n    constructor(\r\n        string memory tName,\r\n        string memory tSymbol,\r\n        uint256 totalAmount,\r\n        uint256 tDecimals,\r\n        uint256 tTaxFee,\r\n        uint256 tLiquidityFee,\r\n        address tUniswapV2Router\r\n    )\r\n        FeeToAddrDeflAutoLPToken(\r\n            tName,\r\n            tSymbol,\r\n            totalAmount,\r\n            tDecimals,\r\n            tTaxFee,\r\n            tLiquidityFee,\r\n            tUniswapV2Router\r\n        )\r\n    {}\r\n\r\n    function totalSupply() external view override returns (uint256) {\r\n        return _tTotal - totalBurned;\r\n    }\r\n}\r\n",
  "sourcePath": "D:\\Programs\\TOKEN\\contracts\\HBCT.sol",
  "compiler": {
    "name": "solc",
    "version": "0.8.6+commit.11564f7e.Emscripten.clang"
  },
  "schemaVersion": "3.4.2",
  "updatedAt": "2021-09-15T03:05:21.341Z",
  "networkType": "ethereum",
  "devdoc": {
    "kind": "dev",
    "methods": {
      "allowance(address,address)": {
        "details": "Returns the remaining number of tokens that `spender` will be allowed to spend on behalf of `owner` through {transferFrom}. This is zero by default. This value changes when {approve} or {transferFrom} are called."
      },
      "approve(address,uint256)": {
        "details": "Sets `amount` as the allowance of `spender` over the caller's tokens. Returns a boolean value indicating whether the operation succeeded. IMPORTANT: Beware that changing an allowance with this method brings the risk that someone may use both the old and the new allowance by unfortunate transaction ordering. One possible solution to mitigate this race condition is to first reduce the spender's allowance to 0 and set the desired value afterwards: https://github.com/ethereum/EIPs/issues/20#issuecomment-263524729 Emits an {Approval} event."
      },
      "balanceOf(address)": {
        "details": "Returns the amount of tokens owned by `account`."
      },
      "owner()": {
        "details": "Returns the address of the current owner."
      },
      "totalSupply()": {
        "details": "Returns the amount of tokens in existence."
      },
      "transfer(address,uint256)": {
        "details": "Moves `amount` tokens from the caller's account to `recipient`. Returns a boolean value indicating whether the operation succeeded. Emits a {Transfer} event."
      },
      "transferFrom(address,address,uint256)": {
        "details": "Moves `amount` tokens from `sender` to `recipient` using the allowance mechanism. `amount` is then deducted from the caller's allowance. Returns a boolean value indicating whether the operation succeeded. Emits a {Transfer} event."
      },
      "transferOwnership(address)": {
        "details": "Transfers ownership of the contract to a new account (`newOwner`). Can only be called by the current owner."
      }
    },
    "version": 1
  },
  "userdoc": {
    "kind": "user",
    "methods": {},
    "version": 1
  }
}