{
  "contractName": "SwapToPrice",
  "abi": [
    {
      "inputs": [
        {
          "internalType": "address",
          "name": "tUniswapV2Router",
          "type": "address"
        }
      ],
      "stateMutability": "nonpayable",
      "type": "constructor"
    },
    {
      "inputs": [
        {
          "internalType": "uint256",
          "name": "truePriceTokenA",
          "type": "uint256"
        },
        {
          "internalType": "uint256",
          "name": "truePriceTokenB",
          "type": "uint256"
        },
        {
          "internalType": "uint256",
          "name": "reserveA",
          "type": "uint256"
        },
        {
          "internalType": "uint256",
          "name": "reserveB",
          "type": "uint256"
        }
      ],
      "name": "computeProfitMaximizingTrade",
      "outputs": [
        {
          "internalType": "bool",
          "name": "aToB",
          "type": "bool"
        },
        {
          "internalType": "uint256",
          "name": "amountIn",
          "type": "uint256"
        }
      ],
      "stateMutability": "pure",
      "type": "function"
    },
    {
      "inputs": [
        {
          "internalType": "address",
          "name": "tokenA",
          "type": "address"
        },
        {
          "internalType": "address",
          "name": "tokenB",
          "type": "address"
        },
        {
          "internalType": "uint256",
          "name": "truePriceTokenA",
          "type": "uint256"
        },
        {
          "internalType": "uint256",
          "name": "truePriceTokenB",
          "type": "uint256"
        },
        {
          "internalType": "uint256",
          "name": "maxSpendTokenA",
          "type": "uint256"
        },
        {
          "internalType": "uint256",
          "name": "maxSpendTokenB",
          "type": "uint256"
        },
        {
          "internalType": "address",
          "name": "to",
          "type": "address"
        },
        {
          "internalType": "uint256",
          "name": "deadline",
          "type": "uint256"
        }
      ],
      "name": "swapToPrice",
      "outputs": [],
      "stateMutability": "nonpayable",
      "type": "function"
    }
  ],
  "bytecode": "0x60a060405234801561001057600080fd5b506040516110a93803806110a983398101604081905261002f9161004f565b600160a060020a03166c010000000000000000000000000260805261007f565b60006020828403121561006157600080fd5b8151600160a060020a038116811461007857600080fd5b9392505050565b6080516c010000000000000000000000009004610ff16100b860003960008181610191015281816102ba01526103ad0152610ff16000f3fe608060405234801561001057600080fd5b5060043610610052577c01000000000000000000000000000000000000000000000000000000006000350463bef90fd38114610057578063fa6531541461006c575b600080fd5b61006a610065366004610cab565b61009a565b005b61007f61007a366004610d99565b61042f565b60408051921515835260208301919091520160405180910390f35b85158015906100a857508415155b610113576040517f08c379a000000000000000000000000000000000000000000000000000000000815260206004820152601e60248201527f4578616d706c6553776170546f50726963653a205a45524f5f5052494345000060448201526064015b60405180910390fd5b8315158061012057508215155b610186576040517f08c379a000000000000000000000000000000000000000000000000000000000815260206004820152601e60248201527f4578616d706c6553776170546f50726963653a205a45524f5f5350454e440000604482015260640161010a565b6000806000806102507f000000000000000000000000000000000000000000000000000000000000000073ffffffffffffffffffffffffffffffffffffffff1663c45a01556040518163ffffffff167c010000000000000000000000000000000000000000000000000000000002815260040160206040518083038186803b15801561021157600080fd5b505afa158015610225573d6000803e3d6000fd5b505050506040513d601f19601f820116820180604052508101906102499190610c8e565b8d8d6104f0565b915091506102608a8a848461042f565b9094509250600091508390506102765785610278565b865b905080821115610286578091505b600083610293578a610295565b8b5b90506000846102a4578c6102a6565b8b5b90506102b48233308761061a565b6102df827f0000000000000000000000000000000000000000000000000000000000000000866107b8565b604080516002808252606082018352600092602083019080368337019050509050828160008151811061031457610314610f67565b602002602001019073ffffffffffffffffffffffffffffffffffffffff16908173ffffffffffffffffffffffffffffffffffffffff1681525050818160018151811061036257610362610f67565b73ffffffffffffffffffffffffffffffffffffffff92831660209182029290920101526040517f5c11d7950000000000000000000000000000000000000000000000000000000081527f000000000000000000000000000000000000000000000000000000000000000090911690635c11d795906103ed90889060009086908e908e90600401610e06565b600060405180830381600087803b15801561040757600080fd5b505af115801561041b573d6000803e3d6000fd5b505050505050505050505050505050505050565b600080858361043e8688610928565b6104489190610ea9565b10915060006104578585610928565b905060006104a36104776103e58661046f578a610471565b895b90610928565b6104946103e86104718861048b578b61048d565b8c5b8790610928565b61049e9190610ea9565b61093b565b905060006103e5856104c0576104bb876103e8610928565b6104cc565b6104cc886103e8610928565b6104d69190610ea9565b90506104e282826109ab565b935050505094509492505050565b60008060006104ff85856109b7565b509050600080610510888888610b3c565b73ffffffffffffffffffffffffffffffffffffffff16630902f1ac6040518163ffffffff167c010000000000000000000000000000000000000000000000000000000002815260040160606040518083038186803b15801561057157600080fd5b505afa158015610585573d6000803e3d6000fd5b505050506040513d601f19601f820116820180604052508101906105a99190610d49565b506dffffffffffffffffffffffffffff1691506dffffffffffffffffffffffffffff1691508273ffffffffffffffffffffffffffffffffffffffff168773ffffffffffffffffffffffffffffffffffffffff161461060857808261060b565b81815b90999098509650505050505050565b6040805173ffffffffffffffffffffffffffffffffffffffff85811660248301528481166044830152606480830185905283518084039091018152608490920183526020820180517bffffffffffffffffffffffffffffffffffffffffffffffffffffffff167f23b872dd0000000000000000000000000000000000000000000000000000000017905291516000928392908816916106b99190610dcb565b6000604051808303816000865af19150503d80600081146106f6576040519150601f19603f3d011682016040523d82523d6000602084013e6106fb565b606091505b50915091508180156107255750805115806107255750808060200190518101906107259190610d27565b6107b0576040517f08c379a0000000000000000000000000000000000000000000000000000000008152602060048201526024808201527f5472616e7366657248656c7065723a205452414e534645525f46524f4d5f464160448201527f494c454400000000000000000000000000000000000000000000000000000000606482015260840161010a565b505050505050565b6040805173ffffffffffffffffffffffffffffffffffffffff8481166024830152604480830185905283518084039091018152606490920183526020820180517bffffffffffffffffffffffffffffffffffffffffffffffffffffffff167f095ea7b300000000000000000000000000000000000000000000000000000000179052915160009283929087169161084f9190610dcb565b6000604051808303816000865af19150503d806000811461088c576040519150601f19603f3d011682016040523d82523d6000602084013e610891565b606091505b50915091508180156108bb5750805115806108bb5750808060200190518101906108bb9190610d27565b610921576040517f08c379a000000000000000000000000000000000000000000000000000000000815260206004820152601e60248201527f5472616e7366657248656c7065723a20415050524f56455f4641494c45440000604482015260640161010a565b5050505050565b60006109348284610ee4565b9392505050565b6000600382111561099c5750806000610955600283610ea9565b610960906001610e91565b90505b818110156109965790508060028161097b8186610ea9565b6109859190610e91565b61098f9190610ea9565b9050610963565b50919050565b81156109a6575060015b919050565b60006109348284610f21565b6000808273ffffffffffffffffffffffffffffffffffffffff168473ffffffffffffffffffffffffffffffffffffffff161415610a76576040517f08c379a000000000000000000000000000000000000000000000000000000000815260206004820152602560248201527f556e697377617056324c6962726172793a204944454e544943414c5f4144445260448201527f4553534553000000000000000000000000000000000000000000000000000000606482015260840161010a565b8273ffffffffffffffffffffffffffffffffffffffff168473ffffffffffffffffffffffffffffffffffffffff1610610ab0578284610ab3565b83835b909250905073ffffffffffffffffffffffffffffffffffffffff8216610b35576040517f08c379a000000000000000000000000000000000000000000000000000000000815260206004820152601e60248201527f556e697377617056324c6962726172793a205a45524f5f414444524553530000604482015260640161010a565b9250929050565b6000806000610b4b85856109b7565b6040516c0100000000000000000000000073ffffffffffffffffffffffffffffffffffffffff8085168202602084015283160260348201529193509150869060480160405160208183030381529060405280519060200120604051602001610c309291907fff00000000000000000000000000000000000000000000000000000000000000815273ffffffffffffffffffffffffffffffffffffffff929092166c0100000000000000000000000002600183015260158201527f96e8ac4277198ff8b6f785478aa9a39f403cb768dd02cbee326c3e7da348845f603582015260550190565b604080517fffffffffffffffffffffffffffffffffffffffffffffffffffffffffffffffe081840301815291905280516020909101209695505050505050565b80516dffffffffffffffffffffffffffff811681146109a657600080fd5b600060208284031215610ca057600080fd5b815161093481610f96565b600080600080600080600080610100898b031215610cc857600080fd5b8835610cd381610f96565b97506020890135610ce381610f96565b965060408901359550606089013594506080890135935060a0890135925060c0890135610d0f81610f96565b8092505060e089013590509295985092959890939650565b600060208284031215610d3957600080fd5b8151801515811461093457600080fd5b600080600060608486031215610d5e57600080fd5b610d6784610c70565b9250610d7560208501610c70565b9150604084015163ffffffff81168114610d8e57600080fd5b809150509250925092565b60008060008060808587031215610daf57600080fd5b5050823594602084013594506040840135936060013592509050565b6000825160005b81811015610dec5760208186018101518583015201610dd2565b81811115610dfb576000828501525b509190910192915050565b600060a082018783526020878185015260a0604085015281875180845260c086019150828901935060005b81811015610e6357845173ffffffffffffffffffffffffffffffffffffffff1683529383019391830191600101610e31565b505073ffffffffffffffffffffffffffffffffffffffff969096166060850152505050608001529392505050565b60008219821115610ea457610ea4610f38565b500190565b600082610edf577f4e487b7100000000000000000000000000000000000000000000000000000000600052601260045260246000fd5b500490565b6000817fffffffffffffffffffffffffffffffffffffffffffffffffffffffffffffffff0483118215151615610f1c57610f1c610f38565b500290565b600082821015610f3357610f33610f38565b500390565b7f4e487b7100000000000000000000000000000000000000000000000000000000600052601160045260246000fd5b7f4e487b7100000000000000000000000000000000000000000000000000000000600052603260045260246000fd5b73ffffffffffffffffffffffffffffffffffffffff81168114610fb857600080fd5b5056fea2646970667358221220234f3bac536e619f1835d65e58e93443870591f96cec361a11c6d650527ea79564736f6c63430008060033",
  "immutableReferences": {
    "5386": [
      {
        "length": 32,
        "start": 401
      },
      {
        "length": 32,
        "start": 698
      },
      {
        "length": 32,
        "start": 941
      }
    ]
  },
  "source": "// SPDX-License-Identifier: MIT\r\n\r\npragma solidity ^0.8.0;\r\n\r\nimport \"./Fees.sol\";\r\n\r\n// import '@uniswap/v2-core/contracts/interfaces/IUniswapV2Pair.sol';\r\nimport '@uniswap/lib/contracts/libraries/Babylonian.sol';\r\nimport '@uniswap/lib/contracts/libraries/TransferHelper.sol';\r\n\r\n// import '@uniswap/v2-core/contracts/interfaces/IERC20.sol';\r\nimport '@uniswap/v2-periphery/contracts/interfaces/IUniswapV2Router02.sol';\r\nimport '@openzeppelin/contracts/utils/math/SafeMath.sol';\r\nimport '@uniswap/v2-periphery/contracts/libraries/UniswapV2Library.sol';\r\n\r\ncontract SwapToPrice {\r\n    using SafeMath for uint256;\r\n\r\n    IUniswapV2Router02 private immutable uniswapV2Router;\r\n\r\n    constructor(address tUniswapV2Router) {\r\n        uniswapV2Router = IUniswapV2Router02(tUniswapV2Router);\r\n    }\r\n\r\n    // ReserveA = 1.03048 ReserverB = 9704.72\r\n    // aToB = 1.03048 / 9704.72 < 1 = (0.0001061834) True\r\n    // invariant = 1.03048 x 9704.72 = 10000\r\n    // leftSide = 10000000 / 997 = sqrt(10,030.09) = 100.1503\r\n    // rightSide = 0.0010335807422267\r\n    // amountIn = 100.1503 - 0.0010335807422267 = 100.1492664192578\r\n    // returns True - 100.1492664192578\r\n    //\r\n    // maxSpend (1% tax from 90 HBCT) = 0.9 HBCT\r\n    // amountIn = 0.9 HBCT\r\n    // tokenIn = HBCT\r\n    // tokenOut = WETH\r\n    // safeTransferFrom(HBCT, _msgSender(), HBCT, 0.9) - Sender add 0.9 to HBCT Contract\r\n    // safeApprove(HBCT, Router, 0.9) - Approve Router to spend 0.9\r\n    // path = HBCT, WETH\r\n    // swapExactTokensForTokens(0.9, 0, [HBCT, WETH], bnbReiver, deadline)\r\n\r\n    // computes the direction and magnitude of the profit-maximizing trade\r\n    function computeProfitMaximizingTrade(uint256 truePriceTokenA, uint256 truePriceTokenB, uint256 reserveA, uint256 reserveB)\r\n                                         pure public returns (bool aToB, uint256 amountIn) {\r\n        aToB = reserveA.mul(truePriceTokenB) / reserveB < truePriceTokenA;\r\n\r\n        uint256 invariant = reserveA.mul(reserveB);\r\n\r\n        uint256 leftSide = Babylonian.sqrt(\r\n            invariant.mul(aToB ? truePriceTokenA : truePriceTokenB).mul(1000) /\r\n            uint256(aToB ? truePriceTokenB : truePriceTokenA).mul(997)\r\n        );\r\n        uint256 rightSide = (aToB ? reserveA.mul(1000) : reserveB.mul(1000)) / 997;\r\n\r\n        // compute the amount that must be sent to move the price to the profit-maximizing price\r\n        amountIn = leftSide.sub(rightSide);\r\n    }\r\n\r\n    // swaps an amount of either token such that the trade is profit-maximizing, given an external true price\r\n    // true price is expressed in the ratio of token A to token B\r\n    // caller must approve this contract to spend whichever token is intended to be swapped\r\n    function swapToPrice(address tokenA, address tokenB, uint256 truePriceTokenA, uint256 truePriceTokenB, uint256 maxSpendTokenA,\r\n                         uint256 maxSpendTokenB, address to, uint256 deadline) public {\r\n        // true price is expressed as a ratio, so both values must be non-zero\r\n        require(truePriceTokenA != 0 && truePriceTokenB != 0, \"ExampleSwapToPrice: ZERO_PRICE\");\r\n        // caller can specify 0 for either if they wish to swap in only one direction, but not both\r\n        require(maxSpendTokenA != 0 || maxSpendTokenB != 0, \"ExampleSwapToPrice: ZERO_SPEND\");\r\n\r\n        bool aToB;\r\n        uint256 amountIn;\r\n        {\r\n            (uint256 reserveA, uint256 reserveB) = UniswapV2Library.getReserves(uniswapV2Router.factory(), tokenA, tokenB);\r\n            (aToB, amountIn) = computeProfitMaximizingTrade(\r\n                truePriceTokenA, truePriceTokenB,\r\n                reserveA, reserveB\r\n            );\r\n        }\r\n\r\n        // spend up to the allowance of the token in\r\n        uint256 maxSpend = aToB ? maxSpendTokenA : maxSpendTokenB;\r\n        if (amountIn > maxSpend) {\r\n            amountIn = maxSpend;\r\n        }\r\n\r\n        address tokenIn = aToB ? tokenA : tokenB;\r\n        address tokenOut = aToB ? tokenB : tokenA;\r\n        TransferHelper.safeTransferFrom(tokenIn, msg.sender, address(this), amountIn);\r\n        TransferHelper.safeApprove(tokenIn, address(uniswapV2Router), amountIn);\r\n\r\n        address[] memory path = new address[](2);\r\n        path[0] = tokenIn;\r\n        path[1] = tokenOut;\r\n\r\n        uniswapV2Router.swapExactTokensForTokensSupportingFeeOnTransferTokens(amountIn, 0, path, to, deadline);\r\n    }\r\n}\r\n",
  "sourcePath": "D:\\Programs\\TOKEN\\contracts\\SwapToPrice.sol",
  "compiler": {
    "name": "solc",
    "version": "0.8.6+commit.11564f7e.Emscripten.clang"
  },
  "schemaVersion": "3.4.2",
  "updatedAt": "2021-08-22T10:39:54.026Z",
  "devdoc": {
    "kind": "dev",
    "methods": {},
    "version": 1
  },
  "userdoc": {
    "kind": "user",
    "methods": {},
    "version": 1
  }
}